:0200000460009A
:100000004643464200000156000000000103030081
:1000100000000000000000000000000000000000E0
:1000200000000000000000000000000000000000D0
:1000300000000000000000000000000000000000C0
:1000400000000000010408000000000000000000A3
:100050000000800000000000000000000000000020
:100060000000000000000000000000000000000090
:100070000000000000000000000000000000000080
:10008000EB04180A063204260000000000000000FD
:10009000050404240000000000000000000000002F
:1000A0000000000000000000000000000000000050
:1000B0000604000000000000000000000000000036
:1000C0000000000000000000000000000000000030
:1000D00020041808000000000000000000000000DC
:1000E0000000000000000000000000000000000010
:1000F0000000000000000000000000000000000000
:10010000D8041808000000000000000000000000F3
:100110000204180804200000000000000000000095
:1001200000000000000000000000000000000000CF
:10013000600400000000000000000000000000005B
:1001400000000000000000000000000000000000AF
:10015000000000000000000000000000000000009F
:10016000000000000000000000000000000000008F
:10017000000000000000000000000000000000007F
:10018000000000000000000000000000000000006F
:10019000000000000000000000000000000000005F
:1001A000000000000000000000000000000000004F
:1001B000000000000000000000000000000000003F
:1001C000000100000010000001000000000000001D
:1001D000000001000000000000000000000000001E
:1001E000000000000000000000000000000000000F
:1001F00000000000000000000000000000000000FF
:10020000FFFFFFFFFFFFFFFFFFFFFFFFFFFFFFFFFE
:10021000FFFFFFFFFFFFFFFFFFFFFFFFFFFFFFFFEE
:10100000D100204325160060000000000000000011
:101010002010006000100060001C01600000000053
:10102000000000600028010000000000FFFFFFFF3B
:10103000FFFFFFFFFFFFFFFFFFFFFFFFFFFFFFFFC0
:10104000FFFFFFFFFFFFFFFFFFFFFFFFFFFFFFFFB0
:10105000FFFFFFFFFFFFFFFFFFFFFFFFFFFFFFFFA0
:10106000FFFFFFFFFFFFFFFFFFFFFFFFFFFFFFFF90
:10140000884207D0904205D251F8043B40F8043B93
:101410008242F9D8704700BF884204D2002340F8C6
:10142000043B8142FBD870472DE9884800F0D0F991
:101430000824614B614AC3F8544161496148FFF790
:10144000DFFF614A61496248FFF7DAFF614962489C
:10145000FFF7E2FF614C4FF0E0214FF470000023F2
:101460005F4AC1F8880D44F823200133B02BFAD12C
:101470005C4B80215C4A03F8011B9342FBD14FF087
:10148000E0254D4E4FF08039DFF88CB1DFF88CA1AC
:101490004FF0FF31C5F8084D0027C6F80491C6F893
:1014A00000B1C6F8F490C6F8F0A0D5F8243DDFF8F6
:1014B000708143F4E0234D4AC5F8243DD8F81C3030
:1014C00023F07F0343F04003C8F81C30D8F82430E1
:1014D00023F07F0343F04003C8F824309166D166BF
:1014E0001167516700F07CF9414B4249A363424BBD
:1014F000E36363236B610323AF612B613F4BC5F84B
:10150000203DD5F8FC3D43F08073C5F8FC3D3C4BD5
:101510001A6842F001021A605B680B6000F09EFBE3
:10152000C6F804913748C6F800B1C6F8F490C6F87A
:10153000F0A000F039FDD8F86C10334B334A41F479
:101540004051C8F86C101F60C3F80871C3F81871D7
:10155000C3F82871C3F83871936BDB0708D442F6DF
:1015600015632B4951651365936B43F00103936336
:10157000264A284C936843F00113936000F0ACF9BD
:1015800000F0D0FC00F018FD00F096FB00F022F90E
:101590002368132BFCD900F027FC2368B3F5967F52
:1015A000FBD300F01BF900F017F900F0EDFC00F0A0
:1015B000F3FC30BFFDE700BF00800D4088DA00007B
:1015C0001422006000000000C01E0020A0FC00608B
:1015D00000000020803F0020C01E0020001C0020D2
:1015E000BD3E000000E400E0A0E400E000C00A40CE
:1015F000715300001C3F00207553000000002020A4
:10160000001000E00046C3230040084000400D40A9
:101610000000C056203F00201B1018200C0D111395
:1016200000C00F40074B4FF42A01074A07485A648D
:101630001864074A99639546BFF34F8FBFF36F8FC6
:10164000FFF7F2FE00C00A40AFAAAAAA07002000D6
:101650000000072043690A4A03EB011010B4037A23
:10166000084C02EB0313D3E901321460C2681A601C
:1016700003690BB142691A605DF8044B704700BF03
:10168000380B002061F801004369027E03EB02126F
:1016900092F808C08C451CD01A7AFF2A19D09142C2
:1016A00010B5044616D01A7EFF2A06D00121D3E9D0
:1016B000002312681A4201D1217610BD064B052283
:1016C000204603EB0C135B681A60FFF7C3FF21761B
:1016D000F3E770470021EAE7380B002043690A4A24
:1016E00003EB011010B490F82830084C02EB031300
:1016F000D3E901321460C26A1A60036B0BB1426B0A
:101700001A605DF8044B7047380B002061F8010047
:101710004369427E03EB021292F828C08C451ED02A
:1017200093F82820FF2A1AD0914210B5044617D00A
:1017300093F83820FF2A06D00121D3E9002312684C
:101740001A4201D1617610BD064B0522204603EBFB
:101750000C135B681A60FFF7C1FF6176F3E770470F
:101760000021EAE7380B0020164942698B6B23F40D
:101770007C0343F4802370B58B630446124DD2E999
:1017800000130A681A4303690A60022200211A61E1
:101790000E4A19619A6401225A629D624FF43035F3
:1017A000DD624FF001159E6C1E6519629D651A6120
:1017B000017EFFF74FFF617E2046BDE87040FFF7D6
:1017C0008DBF00BF00C00F40B80B05053B3728197F
:1017D000704700BF704700BF704700BF00BF704731
:1017E00010B44FF0E023002110242B48C3F8941DBF
:1017F000C3F89C4D1124C3F8A00D2848C3F89C4D94
:101800001224C3F8A00D2648C3F89C4D254AC3F8FE
:10181000A00D254C42F015022448C3F89C4DC3F896
:10182000A00D234C2348C3F89C4DC3F8A00D224CB7
:10183000C3F89C2D2148224AC3F8A04DC3F89C0D43
:10184000C3F8A02D02F5A0221E4C0C321E48C3F88E
:101850009C4DC3F8A02D1D4AC3F89C0D1C4CC3F829
:10186000A02D01221B48C3F89C4DC3F8A00DC3F85E
:10187000942DBFF34F8FBFF36F8FC3F8501FBFF38B
:101880004F8FBFF36F8FD3F8142D5DF8044B42F4E4
:101890004032C3F8142D70473F00001025000803A4
:1018A00009001000803F00201300200021000207E3
:1018B0001400002025000813090000101600202045
:1018C00027000B1317000040180000602F000B07C3
:1018D000190000702F000B13F0B5B84B1822B84E4A
:1018E0000120B84F83B0C3F85C62B749C3F8607297
:1018F000B64DC3F86462A6F53046B54CC3F86862CD
:10190000C3F86C52C3F87052C3F87452C3F87852DB
:1019100048F20C75DA661A675A679A67DA67C3F88D
:101920008020C3F88420C3F88820C1F82C03A94A7A
:10193000C1F83003C1F83403C1F83803C1F83C03DF
:10194000C1F85003A169A44B0A40A448A449134319
:10195000A44AA361D4F8843043F00C03C4F8843063
:101960004FF0FF34036843F00203036003682B4029
:101970004FF400551A439C4B026044608A689B4CAC
:1019800013409B4A43F000538360C36823F07803FD
:10199000C360036A134023430362036A1340954AFA
:1019A0002343954C43628262C2620022D1F8B83070
:1019B00023F03F0343F00103C0F8B830D1F8BC3046
:1019C0008E4923F03F0343F00103C0F8BC3040F2DE
:1019D0000563026105660467C0F8803045664467A8
:1019E0000224C0F88430036823F00203036081619D
:1019F000834B8449C46143F8042B8B42FBD1774A63
:101A0000136843F001031360136813F00103FBD163
:101A10007A48022140F2F564906140F29940D16128
:101A200040F26641C2F8004242F20144C2F810128C
:101A30007549C2F82002C2F8301240F235417348AD
:101A4000C2F83442C2F84012714CC2F8500242F25D
:101A500001207049C2F854120121C2F86042C2F854
:101A600064025E48C2F8A030C2F8A430C2F8B010D8
:101A70004369DA07FCD5012300244FF4803257492B
:101A80004361C0F8A040C0F8A420C0F8B0304B6952
:101A9000DB07FCD5012300244FF400304F4A4B6193
:101AA000C1F8A040C1F8A400C1F8B0305369DF0705
:101AB000FCD501230024584848495361C2F8A0408E
:101AC000C2F8A400C2F8B0304B69DE07FCD5D1F8EB
:101AD000003145F60D5221209BB24861934265D1F9
:101AE00000244FF4802201233C48C1F8A040C1F8F3
:101AF000A420C1F8B0304369DD07FCD501234FF4C1
:101B000000040021354A4361C0F8A040C0F8A41089
:101B1000C0F8B0305369DC07FCD501234FF4000452
:101B20004FF480302D495361C2F8A040C2F8A400A0
:101B3000C2F8B0304B69D807FCD501234FF400043C
:101B40004FF40030254A4B61C1F8A040C1F8A40011
:101B5000C1F8B0305369D907FCD501234FF4000414
:101B60002D481E495361C2F8A040C2F8A400C2F833
:101B7000B0304B69DA07FCD5D1F8003145F60D528B
:101B800021209BB24861934250D008254FF40004B5
:101B900022490020224B234A009015705A1A012333
:101BA0002148224400F0F4F903B0F0BD1E4B00229E
:101BB000C3E90022C3E9022203B0F0BD00801F4048
:101BC000F9B00100F910010000841F40F970010014
:101BD00000C00F40FFFCFF1F000300A000402A4090
:101BE00000802A401200FFFFFF37F700400000800E
:101BF00000FFF07CFF000F8363000200F05AF05AF0
:101C000000422A4000432A409F041830EB06180A7D
:101C10003806180A0632012604000300000000708E
:101C200000000070503F0020D03500204FF4000429
:101C30004FF4802201230848C1F8A040C1F8A42035
:101C4000C1F8B0304369DB07FCD5012310254FF004
:101C5000807443619CE700BF00402A40F0B4154AFD
:101C600040274FF480314FF480564FF400554FF425
:101C7000404443F24200136913F0020F0ED113F4F3
:101C8000005F0FD013F4805F0ED0002BF3DA13F453
:101C9000803F0BD15B060BD5F0BC7047946151615E
:101CA0009061E8E75561E6E75661E4E79161E2E7B4
:101CB0005761E0E700800D403F4A03203F49F3EEC3
:101CC000095AD2F880304FF0000C9FED3D6A23F0A6
:101CD00001039FED3C5A30B4C2F88030C2F8900046
:101CE000D1F8E010384DCBB2384C39482B6007EEB4
:101CF000903A0B0DC1F30B21F8EEE77A06EE903A1D
:101D000007EE101A334BB8EEC77A2160F8EEE66A98
:101D1000314937EEC66A37EEC55A76EEC76A77EEB6
:101D2000E57A26EE266AC3ED006A25EE265AD2F839
:101D3000803067EEA64AC0ED007AC6EE275A2748E3
:101D400085EE276AC4EEA76A75EE875AFCEEE55A5F
:101D500036EE076A15EE904ABCEEC66A43EA0453B3
:101D600076EE877AC2F8803016EE103AD2F89041BB
:101D7000FCEEE77A01EA0341214317EE903AC2F8FC
:101D80009011C3F30B03D2F890110B431449C2F81E
:101D90009031D2F8803043F00203C2F88030114B0A
:101DA00080F840C0C1F840314FF0E023012230BC40
:101DB000C3F80821704700BF00810D4000441F4058
:101DC0000000AA420000B442F03E0020EC3E002099
:101DD000F43E0020F83E00200000FF0F00E400E089
:101DE000001C002099400000314B40F6617210B594
:101DF000C3F8202140F2044400F0DAF82D4A2E49BD
:101E0000D2F880302D4843F00303C2F880302C4BC9
:101E1000C1F8604102681A4203D1D1F8A8319A078B
:101E20001BD0254A4FF00041244B5963D2F8403172
:101E300043F00203C2F84031D2F840319B07FBD493
:101E40004FF400304FF0E0211C4B4FF00042C1F83E
:101E50008C0219209A6300F0A3F8184A4FF08040D2
:101E6000154C002190630A20164B11604FF420722C
:101E7000C4F8A801184600F0A3F84FF48002034606
:101E80004FF4810040F243111860C4F858311A64CD
:101E90000D4B0E4AC4F84811C3F804224FF0E0225B
:101EA0004FF400310123C2F80C11C4F8403110BDC9
:101EB00000800D4000C00F4000002E4000900D40FB
:101EC000001C1E0000000020001C002081420000B9
:101ED00008B50E4B1B6E9B0700D4FBBE72B60C4BB5
:101EE00000200C4AC3F8400103F160430A49A3F5FE
:101EF0005F2311649D46BFF34F8F4FF400130748D3
:101F0000074ADB6902609B68984700BF00441F4096
:101F100000002E4000C00A40030020000080202066
:101F2000000012EB104BA020104AD96E41F4403152
:101F300010B4D96640F23764D96E41F44071D96665
:101F400054649064936C1B06FCD4094A40F23761D8
:101F5000A02351649364936C13F08003FBD1054A72
:101F600013705DF8044B704700C00F4000400C40F8
:101F700000800C404F3F0020F8B500BFF8BC08BC03
:101F80009E467047000000005FF800F0D974000022
:101F90005FF800F0095400005FF800F07D3B00009E
:101FA0005FF800F0BD3900005FF800F0CD360000AA
:101FB0005FF800F0F14900005FF800F0AD3D00006F
:101FC0005FF800F00568000089000000BD00000017
:101FD00005010000490100008D02000031030000EE
:101FE0003D0300006D030000ED080000F52B00002C
:101FF00071300000F130000075310000F93100004F
:102000007D3200000133000085330000E9570000F5
:1020100070C00F40C000000012000000130000005C
:10202000D0841F4001000000FF000000FF000000FE
:10203000000000000000000013000000130000007A
:10204000CC841F4001000000FF000000FF000000E2
:1020500000000000000000001C000000C908000093
:1020600070C00F40000C00001100000011000000C3
:10207000E0841F40020000002C000000120000005D
:10208000E0841F400100000010000000110000006B
:10209000DC841F40020000002D0000001200000040
:1020A000DC841F40010000001E000000D508000075
:1020B00080C00F4000000003190000001000000065
:1020C000E8841F4001000000FF000000FF00000046
:1020D00000000000000000001800000010000000D8
:1020E000E4841F4001000000FF000000FF0000002A
:1020F00000000000000000001F000000E1080000D8
:1021000001010101010101001603550053004200C5
:102110002000530065007200690061006C0000003F
:1021200018035400650065006E00730079006400B8
:10213000750069006E006F00040309040902620063
:10214000030100C032080B00020202010009040072
:102150000001020201000524001001052401010113
:10216000042402060524060001070582031000105E
:1021700009040100020A00000007050302400000F4
:10218000070584024000000904020002FF6AFF0004
:10219000070581024000010705010240000100001F
:1021A00009026200030100C032080B0002020201B2
:1021B00000090400000102020100052400100105CD
:1021C00024010101042402060524060001070582FA
:1021D0000310000509040100020A000000070503BE
:1021E0000200020007058402000200090402000246
:1021F000FF6AC7000705810200020107050102000E
:10220000020100000A060002EF0201400100000086
:0422100000000000CA
:1022140000000000000000000000000000000000BA
:1022240000000000000000000000000000000000AA
:102234000348044B834202D0034B03B11847704751
:10224400C01E0020C01E0020000000000548064BF0
:102254001B1AD90F01EBA301491002D0034B03B1A0
:1022640018477047C01E0020C01E00200000000058
:1022740010B5064C237843B9FFF7DAFF044B13B1CA
:102284000448AFF300800123237010BDD820002040
:10229400000000000028016008B5044B1BB104498C
:1022A4000448AFF30080BDE80840CFE70000000019
:1022B400DC20002000280160034B10B504460360B5
:1022C40002F05CFD204610BDC00A002038B50C4C5D
:1022D40000230C4D14221521204602F0DFFC0A4A8B
:1022E4000A49204605F0DAF92146284600F04CFC5C
:1022F4002846054A0649BDE8384005F0CFB900BF75
:10230400643E00209832002030130020A900000011
:10231400E109000038B50B4D00230B4C1D221C2194
:10232400284602F0BBFC094A0949284605F0B6F9DB
:10233400204601F09FFF2046044A0649BDE8384084
:1023440005F0ACB9E0350020CC2600203013002085
:10235400A90000003929000006231622042101489F
:1023640000F0F4BBAC35002008B50A4806F07AFA50
:1023740042F210720121084800F0D0FD00B108BDFE
:102384001E21064804F096FF0548BDE8084003F006
:10239400D5B900BF14070020403500202C070020C9
:1023A400EC18002070B5144E144D154C07E004F0E1
:1023B40081FF144803F0C2F90A2003F007FC00234C
:1023C4004A213246284600F041FD03461A212046A0
:1023D400002BECD00D210C4804F06CFF094803F0ED
:1023E400ADF9FFF7C1FF0E21084804F063FF05486B
:1023F400BDE8704003F0A2B95C2E002040350020F7
:1024040088070020EC180020A4070020B40700204F
:1024140038B51C4D1C4829461C4C2DED048B00F08E
:102424005FFD95ED059A12211948D5ED068A95EDC3
:10243400078A04F03FFFB7EEC90A0221204603F0E1
:102444009BF9204603F07AF91221124804F032FF76
:10245400B7EEE80A0221204603F08EF9204603F085
:102464006DF912210C4804F025FFB7EEC80A204686
:10247400022103F081F92046BDEC048BBDE838400D
:1024840003F05CB9A820002040350020EC1800209F
:102494004C070020600700207407002010B5064C8C
:1024A4004FF0FF31204600F0C5FC2046034A0449A2
:1024B400BDE8104005F0F2B840350020301300208C
:1024C400390C00002DE9F843184D40F2EE28184C61
:1024D400184FDFF864902E6804F06AFF237883B104
:1024E4003B78DB070DD52B68D9F800209B1A0E2BFF
:1024F40007D94FF4FA6003F069FBBDE8F843FFF72E
:1025040051BF2B6822789B1B2AB1B3F5FA6FF0D820
:1025140004F04EFFE0E74345FAD94FF4FA6003F0C4
:1025240055FBBDE8F843FFF73DBF00BF203F002047
:10253400593F0020583F0020383F0020FFF768BF74
:10254400014800F0FDBA00BF883E002008B50748E6
:1025540002F034FC064802F031FC064802F02EFC7E
:102564000548BDE8084002F029BC00BF4C3E0020ED
:10257400543E00205C3E0020283F0020014800F02B
:1025840043BB00BF043600200020704790F8A3200E
:1025940090F8A200101A704790F8A23090F8A32087
:1025A4009A4205D95A1C034480F8A220987E7047A9
:1025B4004FF0FF30704700BF90F8A23090F8A3208E
:1025C4009A4202D91844807E70474FF0FF3070471A
:1025D400704700BF0346B0F8300178B193F82F215B
:1025E400882A03D9012200205A60704702F1010CA5
:1025F40001201A4483F82FC182F8A510704700BF48
:1026040038B5B0F830410CB9204638BD90F82F31B8
:102614000546C3F18904A2420DD8144605F1A5006C
:102624002246184403F0BAFB95F82F312046234480
:1026340085F82F3138BD01224260EFE738B5002517
:1026440013464FF47A720446C0E9015215488822B1
:1026540021612946206004F11A00636125732576FF
:10266400657606F0D7F98922294604F1A50084F895
:10267400A25084F8A35084F8A45006F0CBF9204665
:1026840084F82E5184F82F5184F8305184F8315154
:1026940084F8325184F8335184F83451C4E94E55E6
:1026A40038BD00BF180B00202DE9F04FD0F814A05E
:1026B4001524017E8146437E83B00AEB0111384A1A
:1026C4000AEB0313374F097A93F8283002EB01150C
:1026D4000901E86852F8018002EB0311D5F804B04F
:1026E4001B01CE68D558CBF80040C8F88400D8F850
:1026F40004304A6803432C490192C8F8043014603A
:10270400C5F884606B6833436B60284B4C683A6847
:10271400A3FB0232920C02EB820252004B681B1B99
:102724009A42FBD84FF0090C1F4ADFF880E0D8F832
:102734000830034202D0AB6833422FD1C5F8886019
:1027440054683968AEFB0131890C01EB810153688F
:102754001B1B9942FBD8C5F8846054683968AEFBEA
:102764000131890C01EB810153681B1B9942FBD891
:10277400BCF1010CDBD1604699F81830019A0AEBE0
:102784000313DB68CBF8003099F819300AEB031A0D
:10279400DAF82C30136003B0BDE8F08F0120EBE7CA
:1027A400380B0020E8180020001000E083DE1B43F3
:1027B4000E4A10B51168046905E0DB0107D41368FB
:1027C4005B1A102B08D8636913F0007FF5D14FF41E
:1027D400FE430120636110BDFFF766FF0028FAD0B5
:1027E4004FF4FE4301206361F5E700BF203F002062
:1027F4002DE9F04790F82FA1BAF1000F58D0814687
:102804008846FFF7D5FF002852D0374E002437689A
:1028140016E06B691A0544D4580558D499044CD46D
:102824003268D21B322A48D8544507D9EA6D520778
:1028340004D19B0555D4B8F1000F52D004F0B8FD73
:102844005445D9F81050E4D8EA6D510702F0070353
:10285400DFD413E099F8A5200133022442F4806206
:10286400042B2A6627D08A4503F1010309EB0102F0
:102874000ED992F8A520042B2A66CAD00121002C77
:10288400E8D02146013301348A4509EB0102F0D82E
:10289400B8F1000FBDD04FF400732B666B691A05B5
:1028A400BAD52B69042043F440732B61BDE8F0874B
:1028B4000420BDE8F0870124ABE72B694FF40072D4
:1028C400042043F440732B612A66BDE8F0872B692A
:1028D4004FF40072022043F440732B612A66BDE872
:1028E400F0870020E5E700BF203F00202DE9F047F6
:1028F40082460C4615461F46FFF75AFF002800F093
:102904008F8063000021012DDFF81C81DBB240F2CF
:10291400014638BF01250C461E43D8F80090AAF89A
:10292400A2101EE09AF8A330872B3DD951690B05FC
:1029340057D411F4105F67D1D8F80030A3EB090322
:10294400322B61D89AF8A330AB4208D3022C06D9B3
:10295400D36D580703D18B0547D4002F45D004F01D
:1029640027FD022CDAF81020DCD8D36D590703F0C8
:102974000700D7D421466C1E084444F4807441B93E
:1029840016660131431A032B01D80229F7D90C46E4
:10299400C8E7012931D017B14FF4007313669AF8D0
:1029A400A3300324872BC1D8D16D11F4E02FC1F3D8
:1029B400024EBBD0591C9E441933C9B25FFA8EFE35
:1029C4005AFA83F3D2F870C0481C71458AF8A310F0
:1029D400C1B203F801CFA9D08929F3D151690B05FC
:1029E400A7D5136943F440731361D36D13F4E02F37
:1029F40005D19AF8A300BDE8F0871466C1E713690E
:102A040043F400731361F4E713694FF4007143F462
:102A1400407313611166D36D13F4E02FE9D0EEE730
:102A24000420BDE8F08700BF203F0020036970B593
:102A3400D3F81451044615F4706201D0C3F814217C
:102A4400AE070BD5D3F8701108043ED5002201203F
:102A540084F8A220224484F8A3009176EA0710D5D2
:102A640094F83061F6B194F82E6194F82F21B242B3
:102A740027D9721C264484F82E2196F8A520C3F881
:102A84006021AB050DD594F8A30018B1D4F83C31FE
:102A940003B198470023A4F8A230A4F82E3184F897
:102AA400303170BDD4F838210AB19047236900222F
:102AB40084F82E21012284F8302194F82F21B24287
:102AC400D7D80022C3F86021DBE794F8A320872A33
:102AD400C4D8501CC0B2BDE70148FFF7A7BF00BF70
:102AE400DC2B00200148FFF7A1BF00BF1C2D0020F4
:102AF4000148FFF79BBF00BF5C2E002010B5094CB6
:102B0400094922460948FFF799FD04F15002084992
:102B14000848FFF793FD04F1A00207490748FFF7AF
:102B24008DFD10BD1020006000003F40DC2B002014
:102B340000803F401C2D002000C03F405C2E002040
:102B4400014B4362704700BF00A08044084B827170
:102B54004FF47A721B68417110B4064CA4FB034312
:102B64005DF8044B9B0C02FB03F3C360704700BF8A
:102B7400E818002083DE1B4304F076BB04F030BB6E
:102B8400084604F081BB00BF38B504464FF4007515
:102B940021602846A58004F053FF002345F242211A
:102BA4000122A5610180E361238484F82220636209
:102BB40084F828306385636384F838306387E3637B
:102BC400A4F840306364A4F8483084F85430A4F87E
:102BD4005630A4F86030C4E90203C4E90430C4E9FF
:102BE4000B332046C4E91333C4E9163338BD00BFA0
:102BF40010B50446806D08B104F02AFFA06808B13E
:102C040004F026FF204610BD704700BF704700BF88
:102C1400034B4FF47A701B6803FB00F0704700BF4E
:102C2400203F00200B6813B9014B01221A70704732
:102C34004B3F00200A480123006830B5C56883B0C3
:102C44000024AA4228BF2A46CDE9004494B2224671
:102C540004F050FD002814BF2046002003B030BD0E
:102C6400FC3200202DE9F04F85B02B480E46144667
:102C740000AF0123042207F10C01006804F0A6FD53
:102C840000283FD0244B8046B7F80C901868C9F34D
:102C94000E09C368A1457B6034D8073323F00703CA
:102CA400ADEB030DEA46B9F1000F30D07C684D4618
:102CB4000DF1040B4C4528BF4C46A4B22246012317
:102CC400514604F083FD0346A4F1040C2246514608
:102CD4003046BBB1B8F1000F03D11FFA8CF459464A
:102CE40022462D1B26444FF0000803F057F8ADB2DE
:102CF4002C1D65B1084B18687B689C4228BF1C4694
:102D0400A4B2DBE700201437BD46BDE8F08F484687
:102D14001437BD46BDE8F08FFC320020134B70B56C
:102D240093E8030084B00524114E002502908DF829
:102D34000C100123052202A93068CDE9005504F0E6
:102D4400D9FC03461E204BB902F040FF631E13F06A
:102D5400FF04EED14FF0FF3004B070BD4FF4967015
:102D640002F034FF002004B070BD00BFA8030020AF
:102D7400FC32002010B5104C94F90000431C00D123
:102D840010BD0121C0B202F0C9FF0121207802F078
:102D94009BFF0A2002F01AFF0021207802F094FF22
:102DA4000A2002F013FF2078012102F08DFF0A208F
:102DB400BDE8104002F00ABF4A3F002010B50446A7
:102DC400FFF7D8FF00220C4904F1580000F034FB4F
:102DD40008B1002010BD043401465422204605F0F9
:102DE40019FE204600F0BCFB0028F2D1014603483E
:102DF40000F0AEFB012010BD150A0000F10B00002D
:102E040010B5094C206800F057FC00B910BD24210E
:102E1400064804F04FFA064802F090FC23680020AC
:102E24000021C3E9020110BD8C320020C407002038
:102E3400EC180020024A034B02601970704700BF6F
:102E4400E40A00204A3F0020704700BFF0B51C4F41
:102E5400044683B00D4638681E4620B11021019205
:102E640003F03AF8019A1020019203F031F8294650
:102E74000546019A04F018FC012128463D6004F03F
:102E84001DFC054688B10F4A31460F4B0F48C4E973
:102E940016230F4B0F4AC4E9180323682046A26681
:102EA4001B6803B0BDE8F040184715210A4804F038
:102EB40001FA0A4802F042FC284603B0F0BD00BF04
:102EC400FC3200200D0B0000FD090000550A000033
:102ED400250A0000010A000020090020EC18002047
:102EE4009FED0B7B0C4B10B50C46196081ED027BFA
:102EF40000F028FBD4E90232134306D12078A0F174
:102F04002A00B0FA80F0400910BD012010BD00BFB6
:102F140000000000000000008C320020074B08462F
:102F240010B5002419469A601C609C80C3E90344D0
:102F340000F028FBB0FA80F0400910BD30330020C7
:102F4400704700BF0848094BD0F8BC2010B40124D6
:102F540019711C602AB11946D0F8C0005DF8044B01
:102F640010475DF8044B704744330020003F0020B5
:102F740000B54FF4806183B04FF0F90C0223A0F840
:102F8400AC1001AAC17A4068ADF804C001F008F998
:102F940003B05DF804FB00BFD0F8A8301A78597864
:102FA400520030B5D2B287B0044609B142F00102F2
:102FB400997809B142F00402D97809B142F00802C3
:102FC4000025019504958DF814508DF8062001AA6A
:102FD400CDE902559988ADF807109968CDF8091024
:102FE400D3E903011123CDF8111094F8AC10CDF8F6
:102FF4000D008DF80510FD2160688DF80410E17A4C
:1030040001F0CEF8C4E9285007B030BD2DE9F04FE7
:103014008BB0164604460F464FF0000C00F11D021B
:10302400019304E00CF1010CBCF1400F2DD012F817
:103034001C302A2BF6D104EB4C0C9CF81E500EB31A
:103044004FF000091FFA85FB4FF02A0AC846019B7E
:1030540007EB08012A460DF112008DF811A0CDE905
:10306400023902F09BFED4F8C42002A98DF8105056
:1030740012B1D4F8C80090470BEB08031FFA83F889
:103084004645E4D80BB0BDE8F08F0025D7E700BF74
:10309400002A7ED02DE9F04F4FF000088BB000F1EC
:1030A4001D0407460E469A469146DFF8ECB04546A5
:1030B40000947119705D0023009C02E00133402BE1
:1030C4005FD014F813208242F8D107EB4303009435
:1030D4009A7F002A55D0FB2836D0FA283AD0EF2818
:1030E4003DD091F802E0CB784FEA8E1E0EF47C5E60
:1030F40003EB0E0CDBF800309A45264B3CD31B68DF
:1031040003930CEB08038DF811006420CBF800A0A6
:1031140000FB03A30DF11200CDE9012302F03EFEF2
:10312400019AD7F8C4308DF8102092B22BB102A9BD
:10313400D7F8C80001929847019A2A4495B2A94544
:10314400B7D80BB0BDE8F08FD1F8018092B2C8F1C6
:103154000008F2E7D1F8013092B29844EDE7D7F8CD
:10316400A03092B2002BE8D09B68002BE5D0384603
:1031740001929847019AE0E71C461B6801332360DB
:10318400BEE7D7F8F8310133C7F8F8310BB0BDE822
:10319400F08F7047B83E0020483E0020FFF778BF0C
:1031A400802938B5044628D0812911D001B138BD11
:1031B400164A1749406800F003FF0346154AA372F4
:1031C4001549606800F0FCFE0123E072637238BDAB
:1031D400812A18D85008EAD004F11D0C00221E34AC
:1031E4005D1C13F812100CF8121015F8121004F8E4
:1031F400121001328242F4DB38BD19460C30BDE8AE
:10320400384006F023BC4020E6E700BFB40E00209F
:10321400BC0E0020C80E0020D00E0020012A02D1CE
:103224000B78012B05D0D0F8F0310133C0F8F03120
:10323400704710B407490024D0F8BC2003720C6016
:1032440022B1D0F8C0005DF8044B10475DF8044B80
:10325400704700BF003F00200B78F82B31D190F865
:10326400AC3070B5D0F8A85065B390F8ADE07345B4
:1032740028D24C781A01AC5405EB03128C785470A4
:10328400CC7894704C6854608E68966091F80CC049
:103294004E7B4CEA062CA2F80CC091F80EC082F8C2
:1032A4000EC0C97BD1730A4A944203D105229646C3
:1032B40080F8AD200133DBB2734580F8AC3001D225
:1032C40070BD7047002285F85030C0E9282270BDD7
:1032D4007FA69800F8B5194C054623681A69184664
:1032E4009047D4F8A07037BB06466B682046C4E903
:1032F40028579847A8B9D4F8A0307BB130462A683B
:10330400831B0AB19A420FD9606800F089FE2068D5
:1033140003699847D4F8A030002BF0D1D4F8A40066
:10332400F8BDC4E92870F8BD6FF005030022184603
:10333400C4E92823F8BD6FF00200F8BD443300202F
:10334400FFF7A6BE2DE9F84F0646002A63D00F46C4
:103354009146002500F11D04DFF8D8B007EB0508FD
:10336400795D002302E00133402B5BD014F8132075
:103374008A42F8D106EB430393F81EA0BAF1000F7A
:1033840050D0FC2911D0D6F8A0101FFA8AFA29B11E
:103394008B681BB152464146304698470AEB0503F9
:1033A4009DB2A945DAD8BDE8F88FD6F8BC20002A2A
:1033B400E9D00223D6F8C000CBF8003098F8011009
:1033C4008BF8041098F802C01A49CCF3400E8BF81D
:1033D40008E00CF0010E8BF809E0CCF3800ECCF37E
:1033E400C00C8BF80AE08BF80BC098F803C098F86F
:1033F40004E04CEA0E2CABF80CC0D8F80530CBF83E
:103404001030D8F80930CBF81430D8F80D30CBF898
:1034140018309047B7E7D0F8F4310133C0F8F431ED
:10342400BDE8F88FD6F8F8310133C6F8F831BDE8B5
:10343400F88F00BF003F002000285ED0F0B5324C6A
:10344400054683B00F46164600214FF4FE7220460F
:1034540005F0E0FAFF2328462560E372C4E92F76DD
:1034640000F0D0FC606000284AD02246274900F0D2
:103474004DFD2346264A0221606800F077FD254B66
:10348400254A02216068009400F044FD234B244A3D
:1034940002216068009400F03DFD224B224A022183
:1034A4006068009400F036FD204A0221204B6068D9
:1034B400009400F02FFD23461E4A0121606800F0AD
:1034C40055FD1D4B1D4A01216068009400F022FD4A
:1034D40020681B4E03699847054608E0606800F0C1
:1034E4009FFD206803699847401BB04202D8237AA5
:1034F400002BF3D0002003B0F0BD6FF00100704743
:103504004FF0FF30F7E700BF44330020350D0000D3
:10351400910F000035110000C80E00208D0F00002F
:10352400E80E002031110000F40E0020000F0020EE
:10353400FD0D0000310D00000D100000B40E002040
:103544003F0D0300014B586800F06ABD443300206E
:103554000246024B0020C3E9312170474433002066
:1035640010B4064A044600230548C2E92A43C2E9C6
:103574002C335DF8044BFFF7ADBE00BF443300208D
:10358400A80E002000B5074B864600220648C3E972
:103594002A12C3E92C2283F8ACE05DF804EBFFF7B0
:1035A40099BE00BF44330020DC0E002038B5044629
:1035B40001F10E000D462DED028B00F087FA07EEA7
:1035C400900A9FED1D8A05F11000F8EEE77A67EE88
:1035D400887AC4ED057A00F079FA07EE900A05F1CD
:1035E4001200F8EEE77A67EE887AC4ED067A00F006
:1035F4006DFA07EE900A05F11400F8EEE77A67EE2B
:10360400887AC4ED077A00F061FA07EE900A05F1B2
:103614001600F8EEE77A67EE887AC4ED087A00F0CF
:1036240055FA07EE900A0020FAEECA7ABDEC028B36
:10363400C4ED097A38BD00BF0000803838B50446AF
:1036440001F10E000D462DED028B00F03FFA07EE5E
:10365400900A9FED188A05F11000F8EEE77A67EEFC
:10366400887AC4ED057A00F031FA07EE900A05F184
:103674001200F8EEE77A67EE887AC4ED067A00F075
:1036840025FA07EE900A05F11400F8EEE77A67EEE2
:10369400887AC4ED077A00F019FA07EE900A002040
:1036A400F8EEE77A67EE887ABDEC028BC4ED087A0F
:1036B40038BD00BF0000803870B52DED028B4B7A09
:1036C4000D46044603702A2B91ED007B80ED027BAE
:1036D40040D0CA7A013B42700A7B02F00302827036
:1036E4002A2B00F2C580DFE813F09400F600F10005
:1036F40094009F0194001501EB00DB01CF01C3018D
:10370400B701AB01C6006E01BF0061012B00BF0011
:10371400D2007901D200C60098012B002B002B00A7
:103724002B00C3000101BF002B002B002B002B003A
:10373400C300C300C300C3007301A501C300FB00A1
:10374400002601F10E0000F0BDF9A0823046BDEC68
:10375400028B70BD002601F10A00DFEDD48A667089
:10376400A67000F0B3F907EE900A05F10C009FED86
:10377400D08AF8EEE77A67EEA87AC4ED057A00F00D
:10378400A5F907EE900A05F10E00F8EEE77A67EE68
:10379400A87AC4ED067A00F099F907EE900A05F1CB
:1037A4001000F8EEE77A67EEA87AC4ED077A00F025
:1037B4008DF907EE900A05F11200F8EEE77A67EE4C
:1037C400A87AC4ED087A00F081F907EE900A05F1B1
:1037D4001400F8EEE77A67EE887AC4ED097A00F00F
:1037E40075F907EE900A05F11600F8EEE77A67EE30
:1037F400887AC4ED0A7A00F069F907EE900A304637
:10380400F8EEE77A67EE887ABDEC028BC4ED0B7AAA
:1038140070BD01F10E009FEDA78A00F057F907EE85
:10382400900A05F110000026F8EEE77A67EE887A30
:10383400C4ED057A00F04AF907EE900A05F112008A
:10384400F8EEE77A67EE887AC4ED067A00F03EF97E
:1038540007EE900A3046F8EEE77A67EE887ABDEC18
:10386400028BC4ED077A70BD8A7B002602756DE772
:103874004FF0FF366AE701F10E00002600F026F94A
:1038840007EE900AFAEEEC7AC4ED057A5EE701F1F0
:103894000E00002600F01AF9034605F11000A38279
:1038A40000F014F9034605F11200E38200F00EF96A
:1038B400034605F11600238300F00CF9E06145E7A7
:1038C400BDEC028BBDE87040FFF7B8BE01F10E00FD
:1038D4009FED798AA1E701F10E009FED788A9CE7BC
:1038E4008A7B00260275CA7B42752FE78B7B01F128
:1038F400190203F07F01DB090175437515F80F3FC9
:1039040004F8163F15F8013FAA4204F8013FF9D123
:1039140000261BE701F10E009FED688A00F0D6F83F
:1039240007EE900A05F110000026F8EEE77A67EE3C
:10393400887AC4ED057A00F0C9F807EE900A05F11B
:103944001200F8EEE77A67EE887AC4ED067A00F0A2
:10395400BDF807EE900A05F11400F8EEE77A67EE79
:10396400887AC4ED077A00F0B1F807EE900A05F101
:103974001600F8EEE77A67EE887AC4ED087A00F06C
:10398400A5F807EE900A05F11800F8EEE77A67EE5D
:10399400887AC4ED097A00F099F807EE900AF8EEF7
:1039A400E77A67EE887AC4ED0A7ACFE601F10E0071
:1039B400002600F089F8034605F11200636100F067
:1039C40083F82083C2E601F10E009FED3B8AA5E750
:1039D400BDEC028BBDE87040FFF7E8BD01F10E00BD
:1039E400002600F073F8034605F11000A38200F0EE
:1039F4006DF8034605F11200E38200F067F8034610
:103A040005F11400238300F061F8034605F1160064
:103A1400638300F05FF8E06198E601F10E00002690
:103A240000F052F8606191E6BDEC028BBDE8704095
:103A3400FFF7BCBDBDEC028BBDE87040FFF7FEBDD7
:103A440001F10E00002600F041F807EE900AFAEEAC
:103A5400CE7AC4ED057A79E601F10E00002600F075
:103A640035F807EE900AFAEECC7AC4ED057A6DE6E5
:103A740001F10E00002600F02DF807EE900AFAEE90
:103A8400CC7AC4ED057A61E601F10E00002600F05F
:103A940021F807EE900AFAEEC67AC4ED057A55E6E7
:103AA400BDEC028BBDE87040FFF780BD000080389C
:103AB4000000803A0000803B0000803D0000003B95
:103AC400007870470088704700687047B0F90000BC
:103AD400704700BF006870472DE9F84F4FF00009A8
:103AE400074600F2245B00F2C4685BF804ACCBF830
:103AF4002490BAF1FF3F1ED007F2BE64002503E014
:103B040001352C34082D16D0D4F82260002EF7D0BD
:103B140034F8023C9A45F3D12146584605F02CFE70
:103B24000028EDD12C23CBF8246003FB0575D5F8D0
:103B3400E436CBF828300BF1340BC345D5D1BDE8BE
:103B4400F88F00BF10B590F8DC447CB104EBC40ED0
:103B5400002300F5856C01E0734505D05CF8232053
:103B640009338A42F8D110BD052CFCD004EBC40201
:103B740004F1010C242300EB820280F8DCC4C2F8B7
:103B8400281440F22C41002213FB0413BDE810401A
:103B9400C254FFF7A1BF00BF802900D0704738B5D9
:103BA400054618461C4605F0B3FF072800D938BD62
:103BB400421C214605F10C00BDE8384002F0EEB885
:103BC400002A18BF00292FD02DE9F04F97B00B78A9
:103BD400029313B117B0BDE8F08F029D0223012AAE
:103BE40080468DF818508DF8385080F8243400F051
:103BF40006810124894603950192631CA61C19F8C9
:103C040004A09BB2B6B219F803B00AF1FF3306EB75
:103C14000B044E44A4B2082B38D8DFE803F0B9AF44
:103C2400AB9F948D86650600704731460EA805F05B
:103C340021F8029A0490072A28D8342140F224500B
:103C440011FB020301FB028731464344C7F82055A8
:103C54001846059305F0FAFE0021039B4046A7F899
:103C64001C1587F84435C7F84815C7F84C15FFF7F5
:103C740033FF0EA9049A059B521AC7F8205518461B
:103C8400013202F08BF8039B87F844354346002247
:103C9400B3F8E0148D4200F0938001320C33052A0E
:103CA400F6D1019BA342A8D843460022B3F8E014FE
:103CB400A94207D001320C33052A8BD0B3F8E014A3
:103CC400A942F7D1D3F8E444002CF3D002EB42022A
:103CD4000023A44608EB820819461A46D8F8E804DB
:103CE40017B0BDE8F04F604706AF3146384604F0E0
:103CF400C1FF98F8DCC4BCF1000FC7D042460023D2
:103D040002E001336345C1D0D2F828142432A94219
:103D1400F7D103EBC303C21B394608EB830301321B
:103D240003F22C4002F03AF8B0E73046FFF7C8FE41
:103D3400012302900393A9E73046FFF7C1FE002355
:103D440002900393A2E73046FFF7BCFE043883B227
:103D5400B3F5C07F9AD2A8F8183197E73046FFF739
:103D6400B1FE043883B2FF2B88BF4FF48073A8F8E8
:103D740016308BE73046FFF7A5FE87E73046FFF79E
:103D8400A1FE043883B2FF2B80D8A8F814307DE755
:103D940043460022B3F8E014A94221D001320C3387
:103DA400052AF7D13046FFF78FFE054640462946DF
:103DB400FFF7C8FE00238DF818308DF8383065E71A
:103DC400D3F8E474002F3FF468AF02EB42003346AB
:103DD4005A46514608EB8000D0F8E804B84760E73B
:103DE400D3F8E474002FD9D002EB420208EB82032B
:103DF400D3F8E80400231A461946B847D2E7029DCF
:103E040052E700BF70B53C4C05462178002968D0C4
:103E1400002D6ED0394C2668002E6AD140F634024B
:103E24003146204604F0F6FD4FF00123314620468A
:103E340063612560FFF786FE314A04F22453C4F817
:103E4400206584F84465A4F81C65C4F84865C4F882
:103E54004C6592E8030083E803002046FFF73CFE2C
:103E640094F8DD34042B0DD85A1C03EB430384F877
:103E7400DD2404EB8303234AA3F8E064C3F8E84495
:103E8400C3F8E42494F82434022B02D1002384F8E8
:103E9400243494F81C28072A1BD8511C2C2384F89A
:103EA4001C1840F2BE6103FB024613FB02130021FF
:103EB400134AA6F8BC1604EB030C03CAE050124BD9
:103EC400CCF804100D48C6F8E446C6F8E036FFF70F
:103ED40003FE0123284684F824342B6898470748B6
:103EE40070BD40F63402054804F094FD01232370AC
:103EF4008EE7002070BD00BF533F00201436002021
:103F04000C0F002089190000B1190000C0E901124A
:103F1400704700BF32B38C46114670B51E46137805
:103F2400D3B1044690F81C08072818D82C22431C47
:103F340002FB004584F81C3805F2BE60A5F8BCC637
:103F440005F084FD049B2046C5F8E066C5F8E43618
:103F5400FFF7C2FD002070BD6FF0010070BD4FF08F
:103F6400FF3070BD6FF00100704700BF90F8DDC4F2
:103F7400BCF1040F1BD800B50CEB4C0E0CF1010C7A
:103F840080F8DDC400EB8E0CACF8E014CCF8E4242B
:103F9400CCF8E83490F82434022B02D000205DF8E9
:103FA40004FB002380F8243400205DF804FB90F81F
:103FB4002434022B02D1002380F8243400207047DB
:103FC4002DE9F843002605468946904600F22C4721
:103FD4003846494605F0D0FB2437044628B101365B
:103FE400052EF5D1FF20BDE8F88306EBC60605EBE8
:103FF4008606D6F82864731CF4D005F224552846A6
:10400400414605F0B9FB18B955F8043CB34204D055
:1040140001343435082CF2D1E4E7E0B2BDE8F8838A
:104024002DE9F043002383B090F82454044601930F
:104034005DB1206801AB4FF4C07204F52971856845
:10404400A84778B903B0BDE8F083012202232946CA
:1040540080F82424514A00F0A3F80028E9D084F819
:104064002454E6E780B2DDF804C003285FD994F84D
:10407400A51247F6FC7594F8A43294F8A62203EB33
:10408400012394F8A7622B429FB244D0072A56D842
:1040940094F81C38934252D9B4F81A31C7F30E0875
:1040A400002B59D1B8F5C07F5CD800231746C4F85B
:1040B400A0C284F81C21A4F89E32404504F21D19C4
:1040C40004F52A7128BF4046054609EB03002A1F60
:1040D400A8EB050801F062FEB4F89E221FFA88F3EB
:1040E400043AA4F81A31A81882B2A4F89E225BB943
:1040F400342303FB0743D3F848552DB1D3F84C05BB
:104104004946D4F8A032A8473423013603FB0747B5
:1041140087F81D6596E7D4F8243862680133C4F83B
:104124002438002A8ED00121A06890478AE7D4F869
:1041340024380133C4F8243803B0BDE8F083D4F83C
:104144002C3862680133C4F82C38002A3FF47AAF63
:104154000321A068904775E70B0610D40023A4F848
:104164001A319FE7D4F8283862680133C4F8283834
:10417400002A3FF467AF0221A068904762E794F8F1
:104184001C719742EAD1342303FB074393F81D358E
:10419400B342E3D1B4F89E328FE700BF340B002062
:1041A4002DE9F04F1E46838A83B0B34201925DD35A
:1041B40007298346894651D800274FF0340808FB65
:1041C40001083946002E45D0BBF81620043A92B2B5
:1041D400B24228BF3246141D9246A4B2230A8BF879
:1041E400184009B163F07F038BF819305D468BF8F2
:1041F4001A90A6EB0A0698F81C35019AB6B2581C18
:10420400D119524688F81C050BF11C008BF81B30A1
:10421400574401F0C3FD55F8180B2246BFB2C368DA
:104224002946984750B95846FFF7FAFEDBF80000D4
:1042340022462946C36898470028F4D000284FF046
:104244000101BFDADBF820380B44CBF8203803B087
:10425400BDE8F08F304603B0BDE8F08FD0F83038B9
:104264006FF001000133CBF83038F0E76FF0010054
:10427400EDE700BF10B44FF4005400223B4940F670
:10428400641C04804224C0E90122C0E90322C0E97D
:104294000522C0E90722C0E90922C0E90B22C0E9CE
:1042A4000D22C0E90F22C0E91122C0E91322C0E99E
:1042B4001522C0E91722C0E91922C0E91B22C0E96E
:1042C4001D22C0E91F22C0F8E8408024C0F8C420A1
:1042D40080F8094100F1F404C0F8D020C0F814417A
:1042E40000F1F604C0F8D82080F80821C0E946128D
:1042F400C0E92122C0E92322C0E92522C0E92722FE
:10430400C0E92922C0E92B22C0E92D22C0E92F22CD
:10431400C0E93E22C0E94022C0E94322C0E9482462
:10432400134CC0F85421A0F850C180F86421C0F89F
:104334006821A0F86C2180F87821C0F87C21A0F8CD
:104344007221A0F87421C0E95214C0E94A12C0E9EC
:104354004E1258215DF8044B80F85D110121C0E92B
:104364004C22C0E95022C0E93B2170470000020200
:104374000002646438B50446D0F8680168B194F862
:10438400E930002B40F0BE8301F0A4FD0023C4F803
:104394006831A4F86C31A4F87231606820B103214B
:1043A40001F09AFD00236360A06820B1342101F07C
:1043B40093FD0023A360606C20B12C2101F08CFDDF
:1043C40000236364E36863B1586A002800F0CF8275
:1043D400142101F081FDE368002B40F0C882002322
:1043E400E360236963B1186A002800F0BB821021DE
:1043F40001F072FD2369002B40F0B4820023236195
:10440400636963B1586A002800F0CF82142101F077
:1044140063FD6369002B40F0C88200236361E36994
:1044240063B1186B002800F0BB82202101F054FD19
:10443400E369002B40F0B4820023E361236AFBB1FB
:10444400186F002800F0BB825C2101F045FD94F850
:10445400E930002B40F06783236A002B40F0AF82E1
:10446400002294F8E930226253B1D4F8D4502522C2
:104474009F492B6828465B689847284601F05EF9F7
:10448400636A63B1586A002800F09482142101F031
:1044940023FD636A002B40F08D8200236362E36A8C
:1044A40063B1586A002800F06C82142101F014FDF5
:1044B400E36A002B40F065820023E362236B63B15F
:1044C400586B002800F05882242101F005FD236B6D
:1044D400002B40F0518200232363636B63B1D86ADD
:1044E400002800F058821C2101F0F6FC636B002BBD
:1044F40040F0518200236363A36B63B1586B0028BF
:1045040000F04482242101F0E7FCA36B002B40F06F
:104514003D820023A363E36B6BB1D3F888000028CA
:1045240000F0B882742101F0D7FCE36B002B40F05B
:10453400B1820023E363A36A63B1186A002800F020
:10454400A482142101F0C8FCA36A002B40F09D82D0
:104554000023A362236C63B1586A002800F0A4828C
:10456400142101F0B9FC236C002B40F09D82002340
:104574002364A36C63B1586B002800F09082282157
:1045840001F0AAFCA36C002B40F089820023A364F1
:10459400E36C73B1D3F80C0C002800F0668240F68B
:1045A400FC3101F099FCE36C002B40F05E820023A7
:1045B400E364236D63B1186D002800F0518240213B
:1045C40001F08AFC236D002B40F04A82002323650E
:1045D400636D63B1186A002800F05282102101F063
:1045E4007BFC636D002B40F04B8200236365A36961
:1045F40063B11869002800F03E82042101F06CFCCC
:10460400A369002B40F037820023A361A36D6BB133
:104614009868002800F067824FF4047101F05CFC94
:10462400A36D002B40F05F820023A365E36D6BB1A3
:104634009868002800F052824FF4067101F04CFC97
:10464400E36D002B40F04A820023E365236E5BB1E7
:104654009868002800F0518201F03CFC236E002B86
:1046640040F04B8200232366636E63B19868002890
:1046740000F03E820C2101F02FFC636E002B40F011
:10468400378200236366A36E63B1986D002800F03F
:104694001682482101F020FCA36E002B40F00F820B
:1046A4000023A366E36E73B1D3F89C0B002800F0DB
:1046B40000824FF4396101F00FFCE36E002B40F0EF
:1046C400F8810023E366606F20B10C2101F004FC43
:1046D40000236367A36F7BB1D86A002800F0F981D7
:1046E4001C2101F0F9FBA36F002B40F0F28101E0E3
:1046F400F80800200023A367E36F63B1186A002859
:1047040000F0E281102101F0E7FBE36F002B40F0A1
:10471400DB810023E367D4F88C3073B1D86B0028B5
:1047240000F06B812C2101F0D7FBD4F88C30002BE6
:1047340040F063810023C4F88C30D4F8803073B126
:10474400586B002800F05481242101F0C5FBD4F8F3
:104754008030002B40F04C810023C4F88030D4F822
:1047640084307BB1D3F89400002800F05181882173
:1047740001F0B2FBD4F88430002B40F049810023CF
:10478400C4F88430D4F8883083B1D3F844020028C4
:1047940000F038814FF40E7101F09EFBD4F888309C
:1047A400002B40F02F810023C4F88830D4F89C00FB
:1047B40028B1822101F090FB0023C4F89C30D4F886
:1047C400A00030B14AF2FA7101F086FB0023C4F86C
:1047D400A030D4F8943073B1186B002800F0F9803D
:1047E400202101F079FBD4F89430002B40F0F180C3
:1047F4000023C4F89430D4F8983073B1586B00286F
:1048040000F0E280242101F067FBD4F89830002BFB
:1048140040F0DA800023C4F89830D4F8903073B1B3
:10482400986D002800F0DF80482101F055FBD4F892
:104834009030002B40F0D7800023C4F89030D4F897
:10484400A4307BB1D3F8D400002800F0C7806521E0
:1048540001F042FBD4F8A430002B40F0BF800023C9
:10486400C4F8A430D4F8A8307BB1D3F8D40000281D
:1048740000F0E780652101F02FFBD4F8A830002B6D
:1048840040F0DF800023C4F8A830D4F8AC307BB10A
:10489400D3F8D400002800F0CF80652101F01CFB80
:1048A400D4F8AC30002B40F0C7800023C4F8AC30FF
:1048B400D4F8B0307BB1D3F8D400002800F0CB801A
:1048C400652101F009FBD4F8B030002B40F0C3801F
:1048D4000023C4F8B030D4F8B4307BB1D3F8D4009A
:1048E400002800F0B380652101F0F6FAD4F8B43062
:1048F400002B40F0AB800023C4F8B430D4F8B830B7
:104904007BB1D3F8D400002800F08C80652101F03D
:10491400E3FAD4F8B830002B40F084800023C4F8C4
:10492400B830D4F8BC3063B1186F002875D0332187
:1049340001F0D2FAD4F8BC30002B6ED10023C4F8B5
:10494400BC30D4F8C03063B1186F00286FD0332165
:1049540001F0C2FAD4F8C030002B68D10023C4F8A7
:10496400C03038BD2421184601F0B6FA46E52821A6
:10497400184601F0B1FA32E53821184601F0ACFAD4
:10498400A9E52821184601F0A7FA95E5382118462B
:1049940001F0A2FABDE53021184601F09DFAA9E51F
:1049A4003421184601F098FA46E52821184601F00A
:1049B40093FA32E52821184601F08EFA6DE5742148
:1049C400184601F089FA4BE53821184601F084FABB
:1049D40020E73421184601F07FFA09E7D821184668
:1049E40001F07AFA3BE75C21184601F075FA23E7F7
:1049F4003821184601F070FAAEE64021184601F05D
:104A04006BFA97E64FF41271184601F065FACAE69C
:104A14009821184601F060FAB1E67421184601F0B5
:104A24005BFA8BE7D821184601F056FA76E7742131
:104A3400184601F051FA91E7D821184601F04CFAD2
:104A440033E7D821184601F047FA1BE7D821184666
:104A540001F042FA4FE7D821184601F03DFA37E752
:104A64005421184601F038FAB0E54FF44161184674
:104A740001F032FA9BE51421184601F02DFAC3E542
:104A84002421184601F028FAAFE52421184601F044
:104A940023FA5DE58C21184601F01EFA49E5382118
:104AA400184601F019FA71E52821184601F014FAA4
:104AB4005DE54FF43A61184601F00EFA01E65C2117
:104AC400184601F009FAEBE52421184601F004FA2E
:104AD4001FE63021184601F0FFF90BE60C211846B9
:104AE40001F0FAF9B0E50C21184601F0F5F99BE55F
:104AF4000C21184601F0F0F9C3E50C21184601F029
:104B0400EBF9AFE5D4F8D45071220D492B6828464F
:104B14005B689847284600F011FED4F86801002825
:104B24003FF434AC30E4D4F8D450332205492B6834
:104B340028465B689847284600F000FE8CE400BFD6
:104B440050080020C408002010B50446FFF712FCEA
:104B5400D4F8FC0020B101F0BDF90023C4F8FC3006
:104B6400D4F8000120B101F0B5F90023C4F80031F4
:104B7400D4F8040108B101F0ADF9204610BD00BF1E
:104B8400006910B10368DB6818477047006910B109
:104B940003681B6918477047006910B103689B6973
:104BA40018474FF0FF307047006910B103685B6924
:104BB40018474FF0FF3070472DE9F04106460F4685
:104BC40001F058F8306928B1036839461B68BDE81C
:104BD400F0411847736913B91846BDE8F0814FF0E6
:104BE400E0222D49D2F8FC3D43F08073C2F8FC3D2D
:104BF4000B6843F001030B60746972B6D6F818E0D1
:104C04004A68CEF800004B68D31A2344B3F5BE7F3C
:104C140009D9A4F5B47062B64B689B1A9842FBD8C4
:104C240072B6D6F818E01C494B689B1A9C42FBD814
:104C34004FF0080C0121184D0F4214BF012300232B
:104C4400CEF800306B687069D31A04442344B3F57A
:104C5400BE7F09D9A4F5B47062B66B689B1A9842FA
:104C6400FBD872B6D6F818E06B689B1A9C42FBD846
:104C74004900BCF1010CC9B2DED10123CEF80030E9
:104C840062B6736904491C444B689B1A9C42FBD866
:104C940001231846BDE8F081001000E070B5002340
:104CA40004464FF47A7082B00D46237384F82030A2
:104CB400C4E901302848206031B9012A04D1274BC6
:104CC4002046236102B070BD062D06D1072A04D107
:104CD400234B2361204602B070BD0E2D06D10F2A4E
:104CE40004D1204B2046236102B070BD102D04D1A5
:104CF400112A02D11C4B2361ECE7152D04D1142A8F
:104D040002D11A4B2361E5E7192D04D1182A02D1E7
:104D1400174B2361DEE71C2D04D11D2A02D1154B4C
:104D24002361D7E70026104601210192266100F095
:104D3400F5FF2846022100F0F1FF019A0E4B84F89A
:104D44002120120184F822502D019A58A2615B5946
:104D540066610833E361BDE7C00A00203C290020F6
:104D64009C290020FC2900205C2A0020BC2A002069
:104D74001C2B00207C2B0020380B002038B5056943
:104D840004463DB1284600F01FF9002323610023A7
:104D9400636138BD90F82100294600F0BFFF294621
:104DA40094F8220000F0BAFF0023636138BD00BF0D
:104DB40010B5044600F02AFC204610BD30B40F4D57
:104DC40000230C2101222C68037122424FEA420C79
:104DD4000BD0037901391FFA8CF203F1010303713B
:104DE400F3D1FF2330BC03717047054914430B68AA
:104DF4002C6023EA020330BC0B607047943200201D
:104E040090320020024A0349034802F047BC00BF25
:104E140030130020A12B0000541B0020B0F84630B2
:104E2400B0F848209BB292B2934202D2013AD01A0F
:104E34007047416B01390A44D01A704772B6B0F812
:104E44004A20B0F84C3092B29BB29A423CBF816B7C
:104E54005218D31A0269D06A62B6C0F302601844C9
:104E6400704700BFB0F84A100246B0F84C3089B21F
:104E74009BB2994210D00133906B116B984298BF4A
:104E84000023994203D9126AD05CC0B270475B1AFE
:104E9400526AD05CC0B2704772B6B0F84A0080B2B1
:104EA400814201D062B6E6E71369D96A11F0E06F76
:104EB40003D14FF0FF3062B67047DB6901204FF039
:104EC400000C116AA2F84A00C3F30900DBB2A2F88D
:104ED4004CC04B70EFE700BFB0F84A100246B0F880
:104EE4004C3089B29BB2994226D0013330B4946BD2
:104EF4009C4216D9106B1FFA83FC984217D9106A8A
:104F0400C05CC0B2956DA2F84CC045B199421CD3A7
:104F1400CB1AD16B994202D3D36DC5F8883030BC1B
:104F240070474FF0000C106B63469842E7D8181A8C
:104F3400556A285CC0B2E5E7084672B6B2F84A1072
:104F440089B2884204D062B6CFE70C44E31AE0E7A2
:104F54001369DA6A12F0E06F03D14FF0FF3062B6E2
:104F64007047D869C0F30900F9E700BF90F84430EE
:104F740043B110B5044602F01BFA94F84430002BF8
:104F8400F9D110BD704700BFEFF31380B8B9EFF348
:104F940010834BB9EFF305823AB94FF48073EFF302
:104FA400118050B1984208D270470F2AF7D9054BA7
:104FB4009B5CEFF311800028F4D1184670474FF042
:104FC400FF30F1E7F0E300E038B54369D3E90412B8
:104FD400096811422AD090F84420044632B102F004
:104FE400E7F994F84430002BF9D163692069002172
:104FF4000F4A8161207E03EB0010007E02EB00105B
:1050040045680520286094F819C003EB0C1393F845
:10501400383002EB0312A36D52681060A4F84A10F2
:10502400A4F84C1013B1E26DC3F8842038BD00BF5E
:10503400380B0020F8B5036D04460E4613B1426DDB
:10504400C3F88420A37E33B172B62269936943F016
:105054000053936162B6B4F84650636BADB2013548
:10506400AB424CD800273D46B4F848309BB29D4231
:105074001AD029E021694B691B0210D5B4F84830D5
:10508400626B9BB201339A4236D99AB2E06A984273
:105094002DD9E069C35CDBB2CB61A4F84820B4F835
:1050A40048309BB2AB420FD1FFF76EFF6369B3F890
:1050B4005A308342DEDAFF28F1DD02F079F9B4F8E0
:1050C40048309BB2AB42EFD0E36AAB4219D9E369F3
:1050D400F6B25E5572B60120226984F84400A4F841
:1050E4004670936943F40003936162B6F8BD1B1ADA
:1050F400A06AC35CDBB2CFE700221346C6E7AFB2B7
:10510400B2E7ED1AF6B2A36A5E55E3E7FFF792BF82
:105114000269536913F4401F70B5154647D0D36A2A
:1051240013F0E06FC3F3026E3ED0B0F84A40B0F81B
:105134004C50A4B2ADB208E0026A02F803C002699E
:105144000EF1FF3313F0FF0E1ED0D169631CB0F8CB
:105154004CC0866BC1F309011FFA8CFC9E4298BFB8
:1051640000239C45ECD0026B5FFA81FC1C469A42FA
:10517400A3EB0206E0D8436A03F806C00EF1FF333E
:10518400026913F0FF0EE0D1A3B2A0F84A30836D98
:10519400002B5AD0AC425DD3641B016CA14254D89D
:1051A400C16D1546C3F884105369DC0248D496696E
:1051B400310229D553691B0226D5B0F846C0B0F890
:1051C40048301FFA8CFC9BB206E0C169C95CC9B2C5
:1051D400D161D16A4C0512D463453FD0446B01338D
:1051E400C16A9C4298BF00239942A3EB0104ECD806
:1051F400816A095DC9B2D161D16A4C05ECD599B215
:105204006345A0F848102CD0710218D553695B028D
:1052140015D50022036D80F8442013B1426DC3F804
:105224008820837E3BB172B60269936923F00053F0
:10523400936162B60569AB6923F48003AB6170BD09
:10524400536943F480135361B1E753691546DC0293
:10525400ADD5F5E7816B491B0C449EE79BB2A0F8E2
:105264004830936923F400039361936943F4800302
:105274009361C9E70148FFF74BBF00BF3C290020F9
:1052840010B4164B4FF47A74154800229C604021E8
:10529400144C186014481C615861144C144883F869
:1052A40044201A731A839A76A3F84620DC61A3F883
:1052B40048205DF8044BA3F84A205A605A629A6267
:1052C4001862A3F84C20C3E90B11C3E90D11C3E91B
:1052D4000F22C3E91422C3E9162270473C29002097
:1052E4009C0A002000801940EC0700205C3100205B
:1052F4009C2F00200148FFF70BBF00BF9C29002012
:1053040010B4174B4FF47A74002228209C6040217B
:10531400144C83F844201C60134C1A731C61134C06
:105324001A835C61124C9A76A3F84620DC61A3F8D8
:1053340048205DF8044BA3F84A205A605A621A6464
:10534400A3F84C20C3E90A20C3E90C100948C3E9B7
:105354000E121862C3E91422C3E91622704700BF73
:105364009C2900209C0A002000001940281A0020D3
:105374009C310020DC2F00200148FFF7C9BE00BF8C
:10538400FC29002010B4174B4FF47A740022282013
:105394009C604021144C83F844201C60134C1A7305
:1053A4001C61134C1A835C61124C9A76A3F8462054
:1053B400DC61A3F848205DF8044BA3F84A205A6046
:1053C4005A621A64A3F84C20C3E90A20C3E90C10FA
:1053D4000948C3E90E121862C3E91422C3E916226C
:1053E400704700BFFC2900209C0A00200080184060
:1053F40060190020C43100201C3000200148FFF750
:1054040087BE00BF5C2A002010B4174B4FF47A7497
:10541400002228209C604021144C83F844201C6006
:10542400134C1A731C61134C1A835C61124C9A76E8
:10543400A3F84620DC61A3F848205DF8044BA3F8E8
:105444004A205A605A621A64A3F84C20C3E90A201D
:10545400C3E90C100948C3E90E121862C3E9142207
:10546400C3E91622704700BF5C2A00209C0A002072
:1054740000C01840C4190020EC3100205C3000202A
:105484000148FFF745BE00BFBC2A002010B4174BEB
:105494004FF47A74002228209C604021144C83F835
:1054A40044201C60134C1A731C61134C1A835C61F6
:1054B400124C9A76A3F84620DC61A3F848205DF8E4
:1054C400044BA3F84A205A605A621A64A3F84C2089
:1054D400C3E90A20C3E90C100948C3E90E12186293
:1054E400C3E91422C3E91622704700BFBC2A002076
:1054F4009C0A002000001A40F01A002014320020F8
:105504009C3000200148FFF703BE00BF1C2B002085
:1055140010B4174B4FF47A74002228209C60402169
:10552400144C83F844201C60134C1A731C61134CF4
:105534001A835C61124C9A76A3F84620DC61A3F8C6
:1055440048205DF8044BA3F84A205A605A621A6452
:10555400A3F84C20C3E90A20C3E90C100948C3E9A5
:105564000E121862C3E91422C3E91622704700BF61
:105574001C2B00209C0A002000401840FC1800202E
:105584003C320020DC3000200148FFF7C1BD00BFE1
:105594007C2B002010B4174B4FF47A74002228207F
:1055A4009C604021144C83F844201C60134C1A73F3
:1055B4001C61134C1A835C61124C9A76A3F8462042
:1055C400DC61A3F848205DF8044BA3F84A205A6034
:1055D4005A621A64A3F84C20C3E90A20C3E90C10E8
:1055E4000948C3E90E121862C3E91422C3E916225A
:1055F400704700BF7C2B00209C0A002000C019408B
:105604008C1A0020643200201C310020026822B36E
:10561400124B00214FF0FF0C134410B51B11104C1A
:10562400916044F823100124D4600E4A02F803C0A8
:10563400137892F801C092F802E0634528BF6346EC
:1056440092F803C0084A734528BF7346634528BFD0
:10565400634682F87A30016010BD704700BFF7BF1F
:10566400C01E00205C1B002000E400E0012A70B58D
:1056740008BF0A228AB091B34FF0210E01E05FFA0D
:1056840086FE0EF1FF36B1FBF2F502FB15145FFA4C
:1056940084FC092C0CF137040CF1300C98BF5FFA30
:1056A4008CF40EF1280C88BFE4B29142EC442946F4
:1056B4000CF8244CE3D24BB10EF1FF3E2D225FFADD
:1056C4008EFE0EF128036B4403F8242C036801A911
:1056D400CEF122025B68714498470AB070BD302253
:1056E4004FF0210E8DF82520E5E700BF2DE9F041AC
:1056F4000C46D1B1EAB180468E1800250E4F04E065
:1057040001F0C2FDB44205440CD0D8F8003014F8BE
:10571400010B1B68BB42F3D0014640469847B44294
:105724000544F2D12846BDE8F0810D462846BDE87F
:10573400F0811546F6E700BF7109000000B5036863
:1057440083B040F60D2C022201A95B68ADF804C0B9
:10575400984703B05DF804FB054B022888BF034655
:1057640010B41C68184663685DF8044B184700BF02
:10577400EC18002000000000B4EE400B70B5F1EE10
:1057840010FA05462DED028B86B07CD6B0EEC07BB8
:105794009FED476BB4EE467BF1EE10FA6BDC9FEDA8
:1057A400467BB4EEC70BF1EE10FA5ADC9FED447B56
:1057B400B4EEC70BF1EE10FA53D4B5EEC00B0C46A1
:1057C400F1EE10FA5BD40023B6EE007B002C5ED021
:1057D4004FF0000C9FED3C6B0CF1010C27EE067BA7
:1057E4005FFA8CF2A242F7D330EE070B0A22284666
:1057F400FCEEC07BB8EE678B17EE901A30EE488B48
:10580400FFF734FF0F2C4FF02E03B2EE046B064665
:1058140028BF0F248DF808300DF1090302AA611E78
:1058240053FA81F128EE060BFCEEC07BCDED017A34
:105834009DF8043007EE903A3033B8EEE78B02F867
:10584400013F914230EE488BECD12B68013402A920
:1058540028465B68E2B29847304606B0BDEC028B3E
:1058640070BD2B6803221A495B6806B0BDEC028B3D
:10587400BDE870401847036803221649F4E7B1EE07
:10588400400B0123A0E7036803221349ECE730EE41
:10589400070B0A222846FCEEC07B17EE901A06B0CE
:1058A400BDEC028BBDE87040FFF7E0BEAFF30080B3
:1058B400FFFFFFFFFFFFEF7F000000E0FFFFEF416E
:1058C400000000E0FFFFEFC19A9999999999B93FB7
:1058D400400900203C09002038090020A249A34BBC
:1058E40088422DE9F047A24C5E699A69D4F80C808D
:1058F4001BD9A04B984240F20281C31A9E491B0A4D
:10590400A1FB031340F22761DB0903EB830303EBE1
:10591400830303F2E2438B4228BF0B46A3F5487787
:10592400964BA3FB0737FF0804E0954FB8428CBFA2
:105934000E2706278D4908F01F09D1F88030B94594
:1059440043F0C003C1F880300CD228F01F08A1F541
:10595400F82148EA0708C1F80C800B68002BFCDA30
:1059640008F01F0916F0007324D186490C69864992
:10597400A14300F0EA8082F4805134464FF480550C
:1059840014F0605F04D026F060561E43774B5E61CE
:1059940011F4405F07D022F4405274492A438A61CB
:1059A4008B6C1A07FCD446F00076704A5661936CEF
:1059B4009B06FCD4754CA04200F2CE804FF0010C43
:1059C4000146634603FB011203F1010E0CF10105CC
:1059D400A24218D8BEF1080F4FF0010340F08D80A9
:1059E400BCF1040F00F291800A18A24200F2A480D4
:1059F40005FB00F1AC4603F1010E03FB01120CF1AF
:105A04000105A242E6D90CF1FF318C0286EA81211C
:105A14005F4810445F4A90427FD9DFF8A4A16C220A
:105A24005D48584DB0FBFEF0D5F800E0B0FBFCF04B
:105A3400DFF890C10EEA0C0CD44509D042F40052B0
:105A44004FF4805CC5F800C02A602A68002AFCDA9A
:105A5400464A156905F007059D4203D01361936C0E
:105A6400DD03FCD411F4E05F09D026F4E05604F41D
:105A7400E0543E4A26435661936C9907FCD4474947
:105A8400474A014491423CD8464BC909A3FB013122
:105A9400090B4B1E1B0286EA030212F4407F06D058
:105AA40026F4407603F44073304A334353612F4A5B
:105AB400536923F000735361936C9B06FCD43A4BF7
:105AC4004F45A3FB00234FF0FF324FEA9343B0FB53
:105AD400F1F1B2FBF3F3354A1060354A1160354AEF
:105AE400136008D228F01F08214A48EA0707D76044
:105AF4001368002BFCDABDE8F087734662E71227CF
:105B040018E74FF440730421C5E70CF1FF31204836
:105B140007238C02104486EA8121274ADFF8A8A0D3
:105B2400A2FB0020020D2548362A38BF362202FB8C
:105B340000F042EA0A0A74E74FEA8C24002386EA5A
:105B44008C214FF0010EAC4662E71D4686F0C0542E
:105B540011464FF0C05313E700244FF0010C0246E6
:105B640031462346E64653E700A4781F00C00F40A1
:105B7400000008400046C32323B24C001F85EB51AC
:105B840000366E0100800D4040300080FFB19F263A
:105B9400808D5B00FF7EF64D00643F4D7FD1F008A1
:105BA4007F17B42C9F10E50083DE1B43E818002008
:105BB400E4180020FC3E0020819F5E16001BB70005
:105BC4006C2000807F3001800020008000B9704785
:105BD4002DE9F84F01218146214C224D224E54E8F3
:105BE400003F2A68306844E80013002BF7D11F49AE
:105BF4004B684FF47A7BDFF878A01B1A01270BFB64
:105C040002F8DAF80020A3FB02325A4594BF90440C
:105C1400D84454E8003F2A68306844E80073002BF5
:105C2400F7D14B68DAF800C01B1A0BFB02F2A3FB96
:105C34000C3CBCF57A7F94BF624402F57A72A2EB05
:105C44000802B2F57A7F06D3B9F1010908F57A782A
:105C5400DFD1BDE8F88F01F0ABFB0449D9E700BF01
:105C6400243F0020203F00201C3F0020001000E0C3
:105C7400FC3E002030B40F4B4FF0010C0E4D0F4C86
:105C840053E8002F2868216843E800C2002AF7D1AE
:105C94000B4B5B680B4A5B1A4FF47A71126801FB79
:105CA40000F0A3FB023230BC8A4294BF8018401833
:105CB400704700BF243F0020203F00201C3F0020ED
:105CC400001000E0FC3E0020362816D80201104BDC
:105CD40003EB00109B5810B4C2685C68144205D0F2
:105CE40061B95DF8044BC3F888207047836851B1EB
:105CF400084A5DF8044B1A60704770475DF8044B1E
:105D0400C3F884207047044A5DF8044B1A60704756
:105D1400380B002038F0010038300100362829D82B
:105D2400164B0201012903EB00109A5810B4536872
:105D3400C4680ED004290CD023EA0403536083689A
:105D4400A9B1022917D003290CBF0D4A0D4A1A60C4
:105D540007E0234301295360836808D040F63802E2
:105D64001A60436815225DF8044B1A6070473822A4
:105D74001A60F6E77047044A1A60F2E7380B00200D
:105D8400383001003800010038F0010008B5FCF794
:105D940099FBFCF7D3FB01F00BFBFAE7844641EADD
:105DA400000313F003036DD1403A41D351F8043B8F
:105DB40040F8043B51F8043B40F8043B51F8043BE1
:105DC40040F8043B51F8043B40F8043B51F8043BD1
:105DD40040F8043B51F8043B40F8043B51F8043BC1
:105DE40040F8043B51F8043B40F8043B51F8043BB1
:105DF40040F8043B51F8043B40F8043B51F8043BA1
:105E040040F8043B51F8043B40F8043B51F8043B90
:105E140040F8043B51F8043B40F8043B51F8043B80
:105E240040F8043B51F8043B40F8043B403ABDD2EF
:105E3400303211D351F8043B40F8043B51F8043B91
:105E440040F8043B51F8043B40F8043B51F8043B50
:105E540040F8043B103AEDD20C3205D351F8043B20
:105E640040F8043B043AF9D2043208D0D2071CBFEC
:105E740011F8013B00F8013B01D30B880380604615
:105E8400704700BF082A13D38B078DD010F003038B
:105E94008AD0C3F10403D21ADB071CBF11F8013BFB
:105EA40000F8013B80D331F8023B20F8023B7BE74A
:105EB400043AD9D3013A11F8013B00F8013BF9D275
:105EC4000B7803704B7843708B788370604670470F
:105ED40001F0B6BD01F0BCBD01F0BABD01F1FF3C5B
:105EE40070B56646002400E00134B0FBF2F502FB15
:105EF4001503092B03F1370E03F130035FFA8EFE0D
:105F040098BF5FFA83FE9042284606F801EFEBD271
:105F1400631C0022C818CA547CB162461CF8015F95
:105F240010F8016DA1EB0C0302328CF80060013B08
:105F3400521A057023449A42EFDB084670BD00BF35
:105F440000230F2248F2B82C194610B54FF47044C0
:105F54004FF4806EA0F88C414FF46044A0F88E2179
:105F64000A46A0F89031B0F888319BB243F0F003B0
:105F7400A0F8883101EB4103013100EB43130429FC
:105F84009C80A3F806E05A841A865A805A81A3F8A2
:105F94000EC05A82DA825A83DA83EBD1B0F88831A0
:105FA4009BB243F00F03A0F88831B0F888319BB25C
:105FB40043F47063A0F8883110BD00BF374B384AF2
:105FC400996F384841F47F0170B5996741F2010631
:105FD400D3F8801045F6C05543F226040A43C3F8AB
:105FE4008020FFF7ADFF00F58040FFF7A9FF00F523
:105FF4008040FFF7A5FF00F58040FFF7A1FF0022D6
:10600400A0F503104FF00F0E114600EB42134FEAB8
:10601400421C01329981042A5981A3F80EE09E8220
:10602400DD8020F80C1019829C81EED100221E48DC
:106034004FF00F0E41F20106114645F6C05543F2EA
:10604400260400EB42134FEA421C01329981042AD0
:106054005981A3F80EE09E82DD8020F80C1019828D
:106064009C81EED1002211480F2641F20105114610
:1060740045F6C05443F2260E00EB42134FEA421C8D
:1060840001329981042A5981DE819D82DC8020F8C5
:106094000C101982A3F80CE0EED170BD00C00F40C3
:1060A400000003FC00C03D4000001E4000401E40B4
:1060B400704700BF704700BF704700BF704700BF04
:1060C400704700BF704700BF704700BF72B6EFF360
:1060D40005834F4CC4F88430EFF308824FF0E0237B
:1060E4004C4E4D4DD3F8280DD3F82C1DC4E9220194
:1060F400D3F8341DD3F8383DC4E924139369C4F8A4
:106104009830D369C4F89C3000F0D0F884ED280AA4
:1061140001F048FA0B214FF0FF32C4F8A4000B46FB
:10612400C4F880103D49301D5A40202402F0010378
:10613400013C01FB03F383EA5202F7D1A84202D0E7
:1061440073680646EFE7324BC3F8A820BFF34F8FBE
:106154004FF0E0232F49324AC3F8701FC3F8702F61
:10616400BFF34F8FBFF36F8F2E4A02252E48D36E95
:106174002E4943F44053D3660560D3692C4823F079
:106184007F0343F04003D3610B6883423DD8264D1F
:1061940000214FF0E0234FF0FF3229600126C5F8BB
:1061A40008112449C5F80011C5F80861C3F8802115
:1061B400C3F88421C3F88821C3F88C21C3F8902143
:1061C40001E000F065F9D5F80C31002BF9D0013469
:1061D400C5F80C614F2CF4D9174B022017494FF026
:1061E4000042C1F840015A63D5F80C313BB9144858
:1061F40014490D4A0163D2F80C31002BFAD04FF048
:10620400E023114AC3F80C2DFEE7FFF767FBBEE756
:1062140000FF272080FF2720A8FF27202083B8ED38
:10622400A0FF272000C00F4000400840E8180020CD
:10623400803DCD0B009F240000900D4000002E40B7
:1062440000800F40F100AD0B0400FA050A490A680A
:1062540038B108B513180948834204D810460B60B6
:1062640008BD1046704703F039FA0C234FF0FF3293
:106274000360104608BD00BF601B002000002820FA
:10628400002070474FF0FF30704700BF4FF40053B9
:1062940000204B60704700BF012070474FF0FF3073
:1062A400704700BF30BFFDE7FFF710BF124AD2F8B6
:1062B40080305B07FBD5D2F880301048C3F30B2342
:1062C4000F4990ED007A07EE903A91ED006AB8EE2E
:1062D400477A0C4AF8EEE77A0B4BD2ED006A77EE78
:1062E400C77A93ED007AB8EE477A67EE867A87EE3E
:1062F400A60A37EE400A704700810D40EC3E0020AC
:10630400F43E0020F83E0020F03E0020836BF0B401
:106314001BB1536843F40043536072B6446B3CB3FF
:106324001A4B2260D3F8B0410C421DD1184E776845
:1063340004E07468E41BB4F5166F0BD2D3F8404143
:1063440044F48044C3F84041D3F8B851D3F84041F1
:106354006404EED50D4007D10C4CC0E90225D4F8F5
:10636400B0310B43C4F8B031426362B6F0BC70473D
:10637400064DC0E90224D5F8B0310B43C5F8B0315D
:106384000263426362B6F0BC704700BF00002E4057
:10639400001000E070B5056B9DB106462A46002446
:1063A40003E012680134012A0CD0536813F080030F
:1063B400F7D032632CB12846B36B2D689847013C63
:1063C400F9D170BDC6E90C33F4E700BF30B4D9B9D4
:1063D4001F4C204B0021204A01254FF001109960E9
:1063E4001D60C4E9023180245C60C2F8BC01D2F8AB
:1063F400B0311A482B43C2F8B0310160D2F8B03141
:10640400002BFBD130BC70470904154B104C0125FF
:1064140041F080019860104A596000F580511D6078
:10642400D96000F50051A364196100F5405100F5ED
:106434008040596100219861E164D2F8B03143F49D
:106444008033C2F8B031D2F8B031002BFBD1C0E7B1
:1064540000000020E01E002000002E40C83500206F
:10646400001F0020084901220B7802FA00F023EAF9
:106474000000087030B9054AD2F8483123F080038F
:10648400C2F84831704700BF543F002000002E403E
:106494002DE9F04F974C83B0D4F84471FB07C4F84E
:1064A400447153D5D4F8AC21002A4AD0924EDFF877
:1064B40060A2DFF87492DFF874B2DFF87482C4F873
:1064C400AC21D6E90A20D4F8403143F40053C4F88F
:1064D4004031D4F840319D04F5D5D4F8403123F44B
:1064E4000053C4F840314FF00113C4F8B431D4F868
:1064F400B45115F00115FAD193B28446CAF800508C
:10650400B3F5086F00F0CF8100F2DB8040F2023176
:106514008B4200F0E78100F29A80822B00F0CB815D
:10652400B3F5817F40F08A8010F0780F83B200F0D9
:1065340003824FF00113C4F8C031D4F8AC21002A0F
:10654400BDD16C4AD2F8BC31002B42D17E0616D59F
:10655400684BD3F8AC21C3F8AC21D3F8BC21C3F801
:10656400BC21D3F8B041002CFBD14FF0FF32C3F86B
:10657400B421D3F8843100F029FD604B1C60FC0188
:1065840003D55F4B1B6803B19847B80103D55D4B36
:106594001B6803B19847790708D5564BD3F8843163
:1065A40013F4007347D0584B01221A70514BD3F89F
:1065B40048311A060AD53B0608D5544A13782BB13C
:1065C400013BDBB21370002B00F0728203B0BDE814
:1065D400F08F4F49C2F8BC310868034240F0D181C2
:1065E400464A14681C40B1D05FEA144810D0424EA9
:1065F4004FF0010998FAA8F5B5FA85F506EBC51030
:1066040009FA05F54030FFF7C5FE38EA0508F1D16F
:10661400A4B2002C9AD0384E4FF0010894FAA4F595
:10662400B5FA85F506EBC51008FA05F5FFF7B2FED5
:10663400AC43F3D18AE7344A1370B7E7802B7FF475
:1066440078AF344802210580FFF7C0FE75E7B3F543
:10665400A06F00F00B81A3F5D063012B3FF669AF67
:106664002D4B5D68002D3FF464AF1FFA8CFC4FEA9C
:10667400124E04E01D690C33002D3FF45AAF1A8802
:106684007245F7D15A886245F4D14FEA1E22032A93
:1066940000F0A5811A89000C824228BF0246BEF58B
:1066A400007F40F0A181184B1C4918781C4B0192C3
:1066B400002818BF19461B48FFF770FB194D019AB3
:1066C400E1E142F221218B427CD033D942F22131E3
:1066D4008B4200F081804FF6C0018B427FF429AFDA
:1066E40010F47F4F83B27FF424AF43F46E4363F31B
:1066F4000F0CB5E700002E4000000020CC35002030
:106704003C3F0020403F00205A3F00205B3F0020D8
:10671400C8350020B03E0020841100203C210060D8
:10672400A021006000002020C03500205DCFC6B845
:10673400C0012E40B3F5106F66D042F221018B42A6
:106744007FF4F7AE030C072B7FF4F3AEB24BB349DF
:10675400F560D960B249B360C3F80890C1E900207C
:1067640001221A60AF4A5A60AF4A1A61D4F8B011D4
:1067740041F00101C4F8B01102F5805102F5005254
:1067840059619A61D4F8B031002BFBD1A74AF36464
:1067940093600123B264136048F2800353604FF0A6
:1067A4000113C4F8BC31D4F8B03143F48033C4F8D5
:1067B400B0314FF48033CAF80030D4F8B031002B34
:1067C400FBD1BAE680B238B9994BC2F307421968D3
:1067D400984B1960984B1A70944B00229A60F2649B
:1067E4000122B3641A6080225A604FF00113C4F886
:1067F400BC31D4F8B03143F48033C4F8B031D4F8A8
:10680400B031002BFBD198E6C2F307428B4B1A70D0
:106814008B4BC4F8C8318B4BC4F8CC318A4BC4F8C9
:10682400D03100F0D5FB80222946884802F0F2F8E6
:10683400874B8022C6F8A0B0C6F8E0307B4BF564E5
:106844005A600122B3649D601A604FF00113C4F8CA
:10685400BC31D4F8B03143F48033C4F8B031CAF851
:106864000050D4F8B031002BFBD166E66F4B012108
:10687400F564196080219D60B36459604FF0011381
:10688400C4F8BC31D4F8B03143F48033C4F8B03127
:10689400D4F8B031002BFBD1130C5B0643F08073AA
:1068A400C4F8543149E6654B01216A481B780370EA
:1068B400FFF78CFD41E683B210F078007FF439AE27
:1068C40003F07F0258F82210624A1080180600F183
:1068D4009E80CB0701D50123137002215D48FFF789
:1068E40075FD2AE610F0780F83B27FF422AE03F030
:1068F4007F0213F0800F58F8223014BF43F4803322
:1069040043F0010348F822300022484BF2649A60B5
:106914000122B3641A6080225A604FF00113C4F854
:10692400BC31D4F8B03143F48033C4F8B031D4F876
:10693400B031002BFBD100E603F07F0213F0800F8F
:1069440058F8223014BF23F4803323F0010348F8AD
:1069540022300022354BF2649A600122B3641A603B
:1069640080225A604FF00113C4F8BC31D4F8B0311E
:1069740043F48033C4F8B031D4F8B031002BFBD1E8
:10698400DBE50020086026490C88486842F22101B2
:106994008C427FF425AE80B200287FF421AE2E49CC
:1069A4002E4C03C9A18086284FEA11412060A171B1
:1069B4007FF416AE72B62A48017841F008010170DE
:1069C400D2F848110D0605D480200143C2F84401D1
:1069D400C2F8481162B6234A5021117000E6000C37
:1069E4002A78824228BF0246BEF5E06F44D11E4B8E
:1069F4001E4D18781E491F4B0192002818BF1946D6
:106A04002846FFF7CBF907236B70019A3BE0C903D3
:106A14003FF561AF61E700BF001F0020C0450020C3
:106A2400A020002080000700C0550020E01E0020A8
:106A3400203F0020383F0020583F0020593F0020CD
:106A44000200CC00C80002000200C8008000002040
:106A54001993D574B03E0020C0350020303F00208B
:106A6400543F00205B3F00205A3F002000002020BC
:106A7400A02100603C2100602946104D0192284667
:106A8400FFF78CF9019A25F01F031544BFF34F8FCC
:106A94004FF0E021C1F8703F20339D42FAD8BFF394
:106AA4004F8FBFF36F8F05481146FFF78FFC44E506
:106AB4000320FFF7D7FC09F0E7F800BF000020200F
:106AC4002DE9F0471F46831E022B01D9BDE8F0874C
:106AD400DFF84C9015460C463C2209EBC0180646DC
:106AE4004FEAC01A002108F10400240401F092FFC7
:106AF400B5FA85F20123520944EA427449F80A407E
:106B0400C8F83870C8F80830002FDFD0034AB34003
:106B140011680B431360BDE8F08700BFCC3500203B
:106B2400000000202DE9F0470D46811E022901D9FD
:106B3400BDE8F087C701DFF84C9092460446403721
:106B44003C2200211E4609EB07082D0408F104002D
:106B540001F060FFBAFA8AF2520945EA427249F832
:106B640007200122C8F83860C8F80820002EDFD0BA
:106B7400034B10341968A2400A431A60BDE8F08739
:106B8400CC3500200000002012048160C36101F5AF
:106B9400405342F0800210B40124426001F50052D7
:106BA400046001F5805401F58041C46081615DF8A1
:106BB400044BC0E904237047831E0A46022B00D904
:106BC4007047064B00F110014FF0010C03EBC010AD
:106BD4000CFA01F14030FFF799BB00BF0000002020
:106BE400831E0A46022B00D970470121024B8140C3
:106BF40003EBC010FFF78ABB000000204068704719
:106C0400124A134BD2F8200220F07F40984210B56C
:106C140084B002D200EB800040000E4C01A90A228D
:106C2400FFF75CF901A90023204611F8012B013379
:106C34003AB10A2B20F8022FF7D11623237004B09F
