:0200000460009A
:100000004643464200000156000000000103030081
:1000100000000000000000000000000000000000E0
:1000200000000000000000000000000000000000D0
:1000300000000000000000000000000000000000C0
:1000400000000000010408000000000000000000A3
:100050000000800000000000000000000000000020
:100060000000000000000000000000000000000090
:100070000000000000000000000000000000000080
:10008000EB04180A063204260000000000000000FD
:10009000050404240000000000000000000000002F
:1000A0000000000000000000000000000000000050
:1000B0000604000000000000000000000000000036
:1000C0000000000000000000000000000000000030
:1000D00020041808000000000000000000000000DC
:1000E0000000000000000000000000000000000010
:1000F0000000000000000000000000000000000000
:10010000D8041808000000000000000000000000F3
:100110000204180804200000000000000000000095
:1001200000000000000000000000000000000000CF
:10013000600400000000000000000000000000005B
:1001400000000000000000000000000000000000AF
:10015000000000000000000000000000000000009F
:10016000000000000000000000000000000000008F
:10017000000000000000000000000000000000007F
:10018000000000000000000000000000000000006F
:10019000000000000000000000000000000000005F
:1001A000000000000000000000000000000000004F
:1001B000000000000000000000000000000000003F
:1001C000000100000010000001000000000000001D
:1001D000000001000000000000000000000000001E
:1001E000000000000000000000000000000000000F
:1001F00000000000000000000000000000000000FF
:10020000FFFFFFFFFFFFFFFFFFFFFFFFFFFFFFFFFE
:10021000FFFFFFFFFFFFFFFFFFFFFFFFFFFFFFFFEE
:10100000D100204325160060000000000000000011
:10101000201000600010006000DC01600000000093
:101020000000006000E8010000000000FFFFFFFF7B
:10103000FFFFFFFFFFFFFFFFFFFFFFFFFFFFFFFFC0
:10104000FFFFFFFFFFFFFFFFFFFFFFFFFFFFFFFFB0
:10105000FFFFFFFFFFFFFFFFFFFFFFFFFFFFFFFFA0
:10106000FFFFFFFFFFFFFFFFFFFFFFFFFFFFFFFF90
:10140000884207D0904205D251F8043B40F8043B93
:101410008242F9D8704700BF884204D2002340F8C6
:10142000043B8142FBD870472DE9884800F0D0F991
:101430000824614B614AC3F8544161496148FFF790
:10144000DFFF614A61496248FFF7DAFF614962489C
:10145000FFF7E2FF614C4FF0E0214FF470000023F2
:101460005F4AC1F8880D44F823200133B02BFAD12C
:101470005C4B80215C4A03F8011B9342FBD14FF087
:10148000E0254D4E4FF08039DFF88CB1DFF88CA1AC
:101490004FF0FF31C5F8084D0027C6F80491C6F893
:1014A00000B1C6F8F490C6F8F0A0D5F8243DDFF8F6
:1014B000708143F4E0234D4AC5F8243DD8F81C3030
:1014C00023F07F0343F04003C8F81C30D8F82430E1
:1014D00023F07F0343F04003C8F824309166D166BF
:1014E0001167516700F07CF9414B4249A363424BBD
:1014F000E36363236B610323AF612B613F4BC5F84B
:10150000203DD5F8FC3D43F08073C5F8FC3D3C4BD5
:101510001A6842F001021A605B680B6000F09EFBE3
:10152000C6F804913748C6F800B1C6F8F490C6F87A
:10153000F0A000F035FDD8F86C10334B334A41F47D
:101540004051C8F86C101F60C3F80871C3F81871D7
:10155000C3F82871C3F83871936BDB0708D442F6DF
:1015600015632B4951651365936B43F00103936336
:10157000264A284C936843F00113936000F0ACF9BD
:1015800000F0D0FC00F018FD00F096FB00F022F90E
:101590002368132BFCD900F027FC2368B3F5967F52
:1015A000FBD300F01BF900F017F900F0F5FC00F098
:1015B000FBFC30BFFDE700BF00800D40A87D0100AF
:1015C000FC21006000000000C03A0020A89F0160DC
:1015D0000000002080590020C03A00200038002080
:1015E0000545000000E400E0A0E400E000C00A407F
:1015F000C559000094580020C9590000000020205F
:10160000001000E00046C3230040084000400D40A9
:101610000000C056985800201B1018200C0D111304
:1016200000C00F40074B4FF42A01074A07485A648D
:101630001864074A99639546BFF34F8FBFF36F8FC6
:10164000FFF7F2FE00C00A40BFAAAAAA07002000C6
:101650000080062043690A4A03EB011010B4037AA4
:10166000084C02EB0313D3E901321460C2681A601C
:1016700003690BB142691A605DF8044B704700BF03
:101680003C0C002061F801004369027E03EB02126A
:1016900092F808C08C451CD01A7AFF2A19D09142C2
:1016A00010B5044616D01A7EFF2A06D00121D3E9D0
:1016B000002312681A4201D1217610BD064B052283
:1016C000204603EB0C135B681A60FFF7C3FF21761B
:1016D000F3E770470021EAE73C0C002043690A4A1F
:1016E00003EB011010B490F82830084C02EB031300
:1016F000D3E901321460C26A1A60036B0BB1426B0A
:101700001A605DF8044B70473C0C002061F8010042
:101710004369427E03EB021292F828C08C451ED02A
:1017200093F82820FF2A1AD0914210B5044617D00A
:1017300093F83820FF2A06D00121D3E9002312684C
:101740001A4201D1617610BD064B0522204603EBFB
:101750000C135B681A60FFF7C1FF6176F3E770470F
:101760000021EAE73C0C0020164942698B6B23F408
:101770007C0343F4802370B58B630446124DD2E999
:1017800000130A681A4303690A60022200211A61E1
:101790000E4A19619A6401225A629D624FF43035F3
:1017A000DD624FF001159E6C1E6519629D651A6120
:1017B000017EFFF74FFF617E2046BDE87040FFF7D6
:1017C0008DBF00BF00C00F40B80B05053B3728197F
:1017D000704700BF704700BF704700BF00BF704731
:1017E00010B44FF0E023002110242B48C3F8941DBF
:1017F000C3F89C4D1124C3F8A00D2848C3F89C4D94
:101800001224C3F8A00D2648C3F89C4D254AC3F8FE
:10181000A00D254C42F015022448C3F89C4DC3F896
:10182000A00D234C2348C3F89C4DC3F8A00D224CB7
:10183000C3F89C2D2148224AC3F8A04DC3F89C0D43
:10184000C3F8A02D02F5A0221E4C0C321E48C3F88E
:101850009C4DC3F8A02D1D4AC3F89C0D1C4CC3F829
:10186000A02D01221B48C3F89C4DC3F8A00DC3F85E
:10187000942DBFF34F8FBFF36F8FC3F8501FBFF38B
:101880004F8FBFF36F8FD3F8142D5DF8044B42F4E4
:101890004032C3F8142D70473F00001025000803A4
:1018A00009001000805900201300200021000207C9
:1018B0001400002025000813090000101600202045
:1018C00027000B1317000040180000602F000B07C3
:1018D000190000702F000B13F0B5B84B1822B84E4A
:1018E0000120B84F83B0C3F85C62B749C3F8607297
:1018F000B64DC3F86462A6F53046B54CC3F86862CD
:10190000C3F86C52C3F87052C3F87452C3F87852DB
:1019100048F20C75DA661A675A679A67DA67C3F88D
:101920008020C3F88420C3F88820C1F82C03A94A7A
:10193000C1F83003C1F83403C1F83803C1F83C03DF
:10194000C1F85003A169A44B0A40A448A449134319
:10195000A44AA361D4F8843043F00C03C4F8843063
:101960004FF0FF34036843F00203036003682B4029
:101970004FF400551A439C4B026044608A689B4CAC
:1019800013409B4A43F000538360C36823F07803FD
:10199000C360036A134023430362036A1340954AFA
:1019A0002343954C43628262C2620022D1F8B83070
:1019B00023F03F0343F00103C0F8B830D1F8BC3046
:1019C0008E4923F03F0343F00103C0F8BC3040F2DE
:1019D0000563026105660467C0F8803045664467A8
:1019E0000224C0F88430036823F00203036081619D
:1019F000834B8449C46143F8042B8B42FBD1774A63
:101A0000136843F001031360136813F00103FBD163
:101A10007A48022140F2F564906140F29940D16128
:101A200040F26641C2F8004242F20144C2F810128C
:101A30007549C2F82002C2F8301240F235417348AD
:101A4000C2F83442C2F84012714CC2F8500242F25D
:101A500001207049C2F854120121C2F86042C2F854
:101A600064025E48C2F8A030C2F8A430C2F8B010D8
:101A70004369DA07FCD5012300244FF4803257492B
:101A80004361C0F8A040C0F8A420C0F8B0304B6952
:101A9000DB07FCD5012300244FF400304F4A4B6193
:101AA000C1F8A040C1F8A400C1F8B0305369DF0705
:101AB000FCD501230024584848495361C2F8A0408E
:101AC000C2F8A400C2F8B0304B69DE07FCD5D1F8EB
:101AD000003145F60D5221209BB24861934265D1F9
:101AE00000244FF4802201233C48C1F8A040C1F8F3
:101AF000A420C1F8B0304369DD07FCD501234FF4C1
:101B000000040021354A4361C0F8A040C0F8A41089
:101B1000C0F8B0305369DC07FCD501234FF4000452
:101B20004FF480302D495361C2F8A040C2F8A400A0
:101B3000C2F8B0304B69D807FCD501234FF400043C
:101B40004FF40030254A4B61C1F8A040C1F8A40011
:101B5000C1F8B0305369D907FCD501234FF4000414
:101B60002D481E495361C2F8A040C2F8A400C2F833
:101B7000B0304B69DA07FCD5D1F8003145F60D528B
:101B800021209BB24861934250D008254FF40004B5
:101B900022490020224B234A009015705A1A012333
:101BA0002148224400F004FA03B0F0BD1E4B00228D
:101BB000C3E90022C3E9022203B0F0BD00801F4048
:101BC000F9B00100F910010000841F40F970010014
:101BD00000C00F40FFFCFF1F000300A000402A4090
:101BE00000802A401200FFFFFF37F700400000800E
:101BF00000FFF07CFF000F8363000200F05AF05AF0
:101C000000422A4000432A409F041830EB06180A7D
:101C10003806180A0632012604000300000000708E
:101C20000000007040590020044F00204FF40004D1
:101C30004FF4802201230848C1F8A040C1F8A42035
:101C4000C1F8B0304369DB07FCD5012310254FF004
:101C5000807443619CE700BF00402A40F0B4154AFD
:101C600040274FF480314FF480564FF400554FF425
:101C7000404443F24200136913F0020F0ED113F4F3
:101C8000005F0FD013F4805F0ED0002BF3DA13F453
:101C9000803F0BD15B060BD5F0BC7047946151615E
:101CA0009061E8E75561E6E75661E4E79161E2E7B4
:101CB0005761E0E700800D403F4A03203F49F3EEC3
:101CC000095AD2F880304FF0000C9FED3D6A23F0A6
:101CD00001039FED3C5A30B4C2F88030C2F8900046
:101CE000D1F8E010384DCBB2384C39482B6007EEB4
:101CF000903A0B0DC1F30B21F8EEE77A06EE903A1D
:101D000007EE101A334BB8EEC77A2160F8EEE66A98
:101D1000314937EEC66A37EEC55A76EEC76A77EEB6
:101D2000E57A26EE266AC3ED006A25EE265AD2F839
:101D3000803067EEA64AC0ED007AC6EE275A2748E3
:101D400085EE276AC4EEA76A75EE875AFCEEE55A5F
:101D500036EE076A15EE904ABCEEC66A43EA0453B3
:101D600076EE877AC2F8803016EE103AD2F89041BB
:101D7000FCEEE77A01EA0341214317EE903AC2F8FC
:101D80009011C3F30B03D2F890110B431449C2F81E
:101D90009031D2F8803043F00203C2F88030114B0A
:101DA00080F840C0C1F840314FF0E023012230BC40
:101DB000C3F80821704700BF00810D4000441F4058
:101DC0000000AA420000B442585800205458002095
:101DD0005C580020605800200000FF0F00E400E085
:101DE00000380020E5460000314B40F6617210B526
:101DF000C3F8202140F2044400F0C6F82D4A2E49D1
:101E0000D2F880302D4843F00303C2F880302C4BC9
:101E1000C1F8604102681A4203D1D1F8A8319A078B
:101E20001BD0254A4FF00041244B5963D2F8403172
:101E300043F00203C2F84031D2F840319B07FBD493
:101E40004FF400304FF0E0211C4B4FF00042C1F83E
:101E50008C0219209A6300F09BF8184A4FF08040DA
:101E6000154C002190630A20164B11604FF420722C
:101E7000C4F8A801184600F0A3F84FF48002034606
:101E80004FF4810040F243111860C4F858311A64CD
:101E90000D4B0E4AC4F84811C3F804224FF0E0225B
:101EA0004FF400310123C2F80C11C4F8403110BDC9
:101EB00000800D4000C00F4000002E4000900D40FB
:101EC000001C1E000000002000380020CD4800004B
:101ED00008B50E4B1B6E9B0700D4FBBE72B60C4BB5
:101EE00000200C4AC3F8400103F160430A49A3F5FE
:101EF0005F2311649D46BFF34F8F4FF400130748D3
:101F0000074ADB6902609B68984700BF00441F4096
:101F100000002E4000C00A40030020000080202066
:101F2000000012EB104BA020104AD96E41F4403152
:101F300010B4D96640F23764D96E41F44071D96665
:101F400054649064936C1B06FCD4094A40F23761D8
:101F5000A02351649364936C13F08003FBD1054A72
:101F600013705DF8044B704700C00F4000400C40F8
:101F700000800C403F590020F8B500BFF8BC08BCF9
:101F80009E467047000000005FF800F03D500000E2
:101F90005FF800F0FD3F00005FF800F0FD0A01006F
:101FA0005FF800F00D3D00005FF800F0E141000037
:101FB0005FF800F05D5A00005FF800F00D4400008B
:101FC0005FF800F081F800008900000021060000A1
:101FD000751000000D33000095390000095B00000A
:101FE000395B0000695B0000995B0000AD5B00009D
:0C1FF000C15B0000F15B0000B5D90000EF
:101FFC0070C00F40C0000000120000001300000071
:10200C00D0841F4001000000FF000000FF00000012
:10201C00000000000000000013000000130000008E
:10202C00CC841F4001000000FF000000FF000000F6
:10203C0000000000000000001C0000005110000017
:10204C0070C00F40000C00001100000011000000D7
:10205C00E0841F40020000002C0000001200000071
:10206C00E0841F400100000010000000110000007F
:10207C00DC841F40020000002D0000001200000054
:10208C00DC841F40010000001E0000005D100000F9
:10209C0080C00F4000000003190000001000000079
:1020AC00E8841F4001000000FF000000FF0000005A
:1020BC0000000000000000001800000010000000EC
:1020CC00E4841F4001000000FF000000FF0000003E
:1020DC0000000000000000001F000000691000005C
:1020EC00010000001603550053004200200053006D
:1020FC0065007200690061006C0000001803540058
:10210C00650065006E00730079006400750069005D
:10211C006E006F000403090409026200030100C091
:10212C0032080B0002020201000904000001020245
:10213C0001000524001001052401010104240206FC
:10214C000524060001070582031000100904010094
:10215C00020A000000070503024000000705840284
:10216C004000000904020002FF6AFF00070581021B
:10217C004000010705010240000100000902620055
:10218C00030100C032080B00020202010009040026
:10219C0000010202010005240010010524010101C7
:1021AC00042402060524060001070582031000051D
:1021BC0009040100020A00000007050302000200E6
:1021CC00070584020002000904020002FF6AC7002E
:1021DC00070581020002010705010200020100004F
:1021EC000A060002EF02014001000000000000009E
:1021FC0000000000000000000000000000000000D3
:10220C0000000000000000000000000000000000C2
:10221C000348044B834202D0034B03B11847704769
:10222C00C03A0020C03A0020000000000548064BD0
:10223C001B1AD90F01EBA301491002D0034B03B1B8
:10224C0018477047C03A0020C03A00200000000038
:10225C0010B5064C237843B9FFF7DAFF044B13B1E2
:10226C000448AFF300800123237010BDC83F002049
:10227C000000000000E8016008B5044B1BB10449E4
:10228C000448AFF30080BDE80840CFE70000000031
:10229C00CC3F002000E8016070B500F10805044651
:1022AC00284601F01FFD10EE100A0EF04DF8064600
:1022BC0028460D4601F0FAFC43F698239E4275F130
:1022CC00000300DB70BD10EE100AC4E90C650EF0C3
:1022DC003BF8C4E90E0109F013F8034604F11801A8
:1022EC00201DE3610022BDE8704008F033BB00BF45
:1022FC0010B50446083000212DED028B82B0019000
:10230C0001F022FCD4ED077A00220121019830EE75
:10231C00678A01F0A5FBF2EE047AB4EEE78AF1EEDF
:10232C0010FA03DC02B0BDEC028B10BD84ED0D8AFB
:10233C0084ED0E0A08F0E4FF0022034604F12001AC
:10234C00201D636202B0BDEC028BBDE8104008F0AA
:10235C0001BB00BF10B5044682B01C30019001F0E7
:10236C0057F90198B7EE000A01F0C2F8B7EEC00AAF
:10237C00019884ED180B01F0DBF8D4ED067A019886
:10238C0030EE670AB7EEC00A84ED1A0B01F0C4F800
:10239C00B7EEC00A84ED1C0B08F0B2FF0022034616
:1023AC0004F14801201DE36402B0BDE8104008F0C0
:1023BC00D1BA00BF70B582B000F1080604466D4674
:1023CC00304685E80600104A402101F0F5FB05F087
:1023DC00F9FC0E4B02462946201D08F0B3F818B143
:1023EC00642003F003FFFBE704460221304601F0B2
:1023FC0093FC2146304601F0AFFC2146304601F0FB
:10240C009BFC02B070BD00BFDC4A00208C08002091
:10241C0070B52DED028B82B000F1080506466C46B6
:10242C00284684E80600372101F032FA05F06EFCEC
:10243C00154B02462146301D08F084F818B1642073
:10244C0003F0D4FEFBE70A249FED108A28460021F6
:10245C0001F07AFB0A2038EE008A03F0C7FE013C3B
:10246C00F4D1B7EEC87A9FED066B27EE067BB7EE7C
:10247C00C77B86ED077A02B0BDEC028B70BD00BF46
:10248C009A9999999999B93F9408002000000000F5
:10249C0030B583B0044610206D4685E80600002157
:1024AC0003F05EFF05F062FC074B02462946201D37
:1024BC0008F048F808B903B030BD642003F096FE6C
:1024CC00642003F093FEF8E7E00900200000000010
:1024DC00F0B52DED028B83B000F11C049FED268A24
:1024EC0006466F462046F0EE488A0A2587E8060025
:1024FC0001F054F99FED210A204600F0DBFE204646
:10250C0001F086F82046B7EE000A00F0F1FF2046F5
:10251C0078EE808A01F00CF8013D38EE008AEED19D
:10252C00B7EEE86AB7EEC87A9FED115B26EE056B45
:10253C0027EE057BB7EEC66BB7EEC77B86ED056A5B
:10254C0086ED067A05F0CAFB0D4B02463946301D66
:10255C0007F0F8FF18B903B0BDEC028BF0BD642096
:10256C0003F044FE642003F041FEF8E7AFF3008073
:10257C009A9999999999B93F0000000000407944C3
:10258C00A008002030B583B004466D4685E80600EF
:10259C0005F0D4FB074B02462946201D07F0D2FF5D
:1025AC0008B903B030BD642003F020FE642003F0B2
:1025BC001DFEF8E7CC090020044B10B5044640F88A
:1025CC00143B01F0F7FC204610BD00BFD00B0020DF
:1025DC0010B50446102003F0B1FE0128A06000D015
:1025EC0010BD84F8200008F08BFE034604F10C01AA
:1025FC00201D23610022BDE8104008F0ABB900BFDC
:10260C0030EEC00A0721494810B5494C2DED028B1C
:10261C0084ED160A05F068F994ED160A0221454876
:10262C00B7EEC00A9FED448A03F0B6FB414803F0B5
:10263C0081FB636DA26D591C404804EB830380FB46
:10264C0001C05A60CA17231DC2EBE00202EB8202E2
:10265C00A1EB820104F154026165F3EC017A93421F
:10266C0038EE278AF9D1D4E91A20636E0821121AA0
:10267C001B1A334802EB820203EB830307EE902A0A
:10268C00B8EEE77A07EE903AF8EEE77AB4EE478ABE
:10269C00F1EE10FA37FE088AF4EE487AF1EE10FAF1
:1026AC0037FE888A05F020F9B7EEC80A02212148C6
:1026BC0003F072FB1F4803F03DFBD4ED186A94ED58
:1026CC00167A092128EE268AD4ED177A1D48A7EE32
:1026DC00278A05F009F902211648B7EEC80A03F05B
:1026EC005BFB144803F026FBD4ED1B7AB8EEE77ABB
:1026FC00D4ED1A7AF8EEE77A37EE087AB4EEE77A88
:10270C00F1EE10FA0ADCD4ED197AF8EEE77AB4EEB1
:10271C00E77AF1EE10FA58BFF0EE477AFDEEE77A61
:10272C00BDEC028B17EE900A10BD00BF44080020D0
:10273C002C4600204C2500200000000067666666D1
:10274C004C0800205808002070B5274CB7EE006BE1
:10275C00264E0022002026493368264D83F840205F
:10276C00002294ED067BC3E90801002337EE067BBB
:10277C00C4E9082384ED067BC4E90A23C4E90C23CD
:10278C00C4E90E2308F0BCFD002200236060C5E9FB
:10279C000623C5E90823C5E90A23C5E90C2308F07B
:1027AC00AFFD3268144BDFED156A93ED020A6860D9
:1027BC0030EE260A92ED087BF7EEC70BFFF720FFF1
:1027CC0001460F4802F040FE5A210E4802F03CFE32
:1027DC005A210D4802F038FE40F2DC510B48BDE89E
:1027EC00704002F079BE00BFC83E002004580020A3
:1027FC0000805640903E0020283D002000003443CD
:10280C00EC570020F4570020FC570020A058002063
:10281C002DE9F0474820424C03F07CFE414902462A
:10282C004148424B002640F8081B4FF02D091A6016
:10283C0001F0C0F93E4804210623162240F8084B4B
:10284C00002401F00FF83B483B4A4FF087083B4B04
:10285C005A2740F81C2B3A4A3A4D1A609C6000F0FB
:10286C0023FD2846384B4FF0FF31DFF808A140F824
:10287C00143B01F095FB28230020002185F8B03093
:10288C0042F21073314AC5F8B430C5F8BC40C5F8F3
:10289C00C860C5F8CC60C5E93001C5E934442C49A1
:1028AC00284605F015FA2B4802F0AAFD2A4802F03A
:1028BC00A7FD2A4802F0A4FD294802F0A1FD294DEC
:1028CC00294821465022066044658665C0F85CA004
:1028DC000566C766C0E9199804300FF0C9F823489B
:1028EC006423214606605022446504304665C0F8D6
:1028FC0058A0C5650466846643660FF0B9F81C4899
:10290C0021465022C0F85CA00566066086654465C9
:10291C00C766C0E919980430BDE8F0470FF0A8B8B5
:10292C00580B0020480B0020883F00200458002042
:10293C00544F0020103F0020680B0020C857002087
:10294C00E00B0020283D0020D00B0020901F002021
:10295C00C9030000EC570020F4570020FC5700205E
:10296C00A0580020CDCC4C3D2C460020EC4700203C
:10297C00BC450020CDCC4C3E38B504460A4D08F081
:10298C00BFFC002204F1D801C4F8DC00201D07F0C4
:10299C00E1FF28460722054903F0A4F92846BDE8C3
:1029AC00384003F0C7B900BF8C470020D80900207D
:1029BC00F0B59DB000224FF416513A4802F080FE5B
:1029CC0017AC4FF0FF3101A801F0EAFA02A954222A
:1029DC00354803F005FD354D354F364E0FCC0FC540
:1029EC00236801A845F8683901F0E4FA384617F075
:1029FC00C3FA11E003F076F92A4803F09BF92E494B
:102A0C0023460A220968274803F0B0F9254803F049
:102A1C0091F9642003F0EAFB3A464A210023284648
:102A2C0001F0CAFA04461A2231461E48002CE1D0A5
:102A3C001722224903F056F91A4803F07BF942F2A7
:102A4C00107204211E4801F029FBC8B924221D492B
:102A5C00144803F047F9134803F06CF941F288323B
:102A6C002821174801F01AFB98B1092216490D4884
:102A7C0003F038F90B481DB0BDE8F04003F05AB92B
:102A8C0007221249074803F02DF9064803F052F9C2
:102A9C00E4E729220E49034803F024F9014803F026
:102AAC0049F9E2E78C470020403D0020943D00208E
:102ABC00DC4A00206C12002098580020881200205C
:102ACC003C3D0020A0120020FC120020C812002067
:102ADC00D01200200000000010B57B482DED088BB3
:102AEC0001F0B4FAA0B9794C04F1800104F114009E
:102AFC0001F0B6FA30B994F88030042B00F0BA80AB
:102B0C00282B37D0BDEC088BBDE81040FFF71CBE5E
:102B1C0009226F496F4803F0E5F86E4803F00AF993
:102B2C0017226D496B4803F0DDF86A4803F002F98F
:102B3C0042F210720421644801F0B0FA002800F04F
:102B4C00B38007226549634803F0CCF8614803F071
:102B5C00F1F841F2883228215B4801F09FFA0028F5
:102B6C00C1D129225E495B4803F0BCF8594803F0F7
:102B7C00E1F8B8E705225B49564803F0B3F855482D
:102B8C0003F0D8F8D4ED26BA94ED258A6BEEAB8A17
:102B9C0094ED28AAD4ED27AAB0EE681A2AEE2A0AD8
:102BAC00B1EE68BA98EE081AA8EE2B0AAAEEEA1A49
:102BBC00B7EEC00A30EE000BAAEE0A1AB7EEC11A35
:102BCC000DF040F8E8EE088A6BEECA7AB8EE006BAE
:102BDC00B0EE409BE8EE2A7AEAEEAA8AB7EEE70A54
:102BEC00EAEE0A8A20EE060BB7EEE87A80EE070BC7
:102BFC000CF0FCFFA8EE48BA2AEE087AB0EE408B37
:102C0C00ABEEAA7AAAEEAABAB7EEC70AAAEE0ABA2D
:102C1C0030EE000BB7EECB1A0DF014F8B7EEC99BE3
:102C2C00B7EEC88BB7EEC07BB7EEC99AB7EEC88AC1
:102C3C00B7EEC77A9FED226B29EE069B28EE068B2A
:102C4C0027EE067BB7EEC99BB7EEC88BB7EEC77BFA
:102C5C0084ED029A84ED038A84ED3E9A84ED3F8ADA
:102C6C0084ED047A84ED407ABDEC088BBDE810400D
:102C7C00FFF76ABD05221C49164803F033F81548C6
:102C8C0003F058F8D4F89410D4F89820D4F89C3069
:102C9C00C4F81011C4F81421C4F81831BDEC088B19
:102CAC00BDE81040FFF750BD24221049094803F03D
:102CBC0019F8084803F03EF84BE700BFAFF300806B
:102CCC00F8C1631ADCA54C403C3D0020283D002097
:102CDC00A41000208C47002088120020C81200206D
:102CEC00D0120020B8100020B0100020A01200203C
:102CFC000020704790F8A32090F8A200101A70479B
:102D0C0090F8A23090F8A3209A4205D95A1C03449B
:102D1C0080F8A220987E70474FF0FF30704700BFBC
:102D2C0090F8A23090F8A3209A4202D91844807EE1
:102D3C0070474FF0FF307047704700BF0346B0F844
:102D4C00300178B193F82F21882A03D90122002071
:102D5C005A60704702F1010C01201A4483F82FC10C
:102D6C0082F8A510704700BF38B5B0F830410CB9E7
:102D7C00204638BD90F82F310546C3F18904A24294
:102D8C000DD8144605F1A5002246184403F028FB83
:102D9C0095F82F312046234485F82F3138BD012278
:102DAC004260EFE738B5002513464FF47A720446BB
:102DBC00C0E901521548882221612946206004F19E
:102DCC001A0063612573257665760EF051FE892213
:102DDC00294604F1A50084F8A25084F8A35084F885
:102DEC00A4500EF045FE204684F82E5184F82F5145
:102DFC0084F8305184F8315184F8325184F83351CD
:102E0C0084F83451C4E94E5538BD00BFF00B002096
:102E1C002DE9F04FD0F814A01524017E8146437E95
:102E2C0083B00AEB0111384A0AEB0313374F097AC6
:102E3C0093F8283002EB01150901E86852F801807B
:102E4C0002EB0311D5F804B01B01CE68D558CBF8B2
:102E5C000040C8F88400D8F804304A6803432C4971
:102E6C000192C8F804301460C5F884606B68334371
:102E7C006B60284B4C683A68A3FB0232920C02EB55
:102E8C00820252004B681B1B9A42FBD84FF0090C74
:102E9C001F4ADFF880E0D8F80830034202D0AB6854
:102EAC0033422FD1C5F8886054683968AEFB0131C4
:102EBC00890C01EB810153681B1B9942FBD8C5F8A7
:102ECC00846054683968AEFB0131890C01EB8101D7
:102EDC0053681B1B9942FBD8BCF1010CDBD160463B
:102EEC0099F81830019A0AEB0313DB68CBF8003021
:102EFC0099F819300AEB031ADAF82C30136003B086
:102F0C00BDE8F08F0120EBE73C0C002048250020A9
:102F1C00001000E083DE1B430E4A10B511680469F3
:102F2C0005E0DB0107D413685B1A102B08D8636922
:102F3C0013F0007FF5D14FF4FE430120636110BD07
:102F4C00FFF766FF0028FAD04FF4FE4301206361BF
:102F5C00F5E700BF985800202DE9F04790F82FA115
:102F6C00BAF1000F58D081468846FFF7D5FF0028EC
:102F7C0052D0374E0024376816E06B691A0544D4DA
:102F8C00580558D499044CD43268D21B322A48D8EC
:102F9C00544507D9EA6D520704D19B0555D4B8F1B5
:102FAC00000F52D004F01EFD5445D9F81050E4D84F
:102FBC00EA6D510702F00703DFD413E099F8A5205E
:102FCC000133022442F48062042B2A6627D08A45FE
:102FDC0003F1010309EB01020ED992F8A520042B91
:102FEC002A66CAD00121002CE8D0214601330134D5
:102FFC008A4509EB0102F0D8B8F1000FBDD04FF4AF
:10300C0000732B666B691A05BAD52B69042043F43F
:10301C0040732B61BDE8F0870420BDE8F0870124E4
:10302C00ABE72B694FF40072042043F440732B611F
:10303C002A66BDE8F0872B694FF40072022043F436
:10304C0040732B612A66BDE8F0870020E5E700BFDE
:10305C00985800202DE9F04782460C4615461F462D
:10306C00FFF75AFF002800F08F8063000021012D2C
:10307C00DFF81C81DBB240F2014638BF01250C465B
:10308C001E43D8F80090AAF8A2101EE09AF8A330BC
:10309C00872B3DD951690B0557D411F4105F67D1BB
:1030AC00D8F80030A3EB0903322B61D89AF8A3307F
:1030BC00AB4208D3022C06D9D36D580703D18B052C
:1030CC0047D4002F45D004F08DFC022CDAF81020E8
:1030DC00DCD8D36D590703F00700D7D421466C1EFA
:1030EC00084444F4807441B916660131431A032B29
:1030FC0001D80229F7D90C46C8E7012931D017B1FC
:10310C004FF4007313669AF8A3300324872BC1D8AD
:10311C00D16D11F4E02FC1F3024EBBD0591C9E446B
:10312C001933C9B25FFA8EFE5AFA83F3D2F870C023
:10313C00481C71458AF8A310C1B203F801CFA9D07D
:10314C008929F3D151690B05A7D5136943F4407351
:10315C001361D36D13F4E02F05D19AF8A300BDE8E9
:10316C00F0871466C1E7136943F400731361F4E745
:10317C0013694FF4007143F4407313611166D36DFE
:10318C0013F4E02FE9D0EEE70420BDE8F08700BF90
:10319C0098580020036970B5D3F81451044615F4FF
:1031AC00706201D0C3F81421AE070BD5D3F870119F
:1031BC0008043ED50022012084F8A220224484F881
:1031CC00A3009176EA0710D594F83061F6B194F823
:1031DC002E6194F82F21B24227D9721C264484F810
:1031EC002E2196F8A520C3F86021AB050DD594F8D7
:1031FC00A30018B1D4F83C3103B198470023A4F8CC
:10320C00A230A4F82E3184F8303170BDD4F83821B6
:10321C000AB190472369002284F82E21012284F8F8
:10322C00302194F82F21B242D7D80022C3F8602164
:10323C00DBE794F8A320872AC4D8501CC0B2BDE7A2
:10324C000148FFF7A7BF00BF5C4800200148FFF70B
:10325C00A1BF00BF9C4900200148FFF79BBF00BFE6
:10326C00DC4A002010B5094C094922460948FFF7F1
:10327C0099FD04F1500208490848FFF793FD04F149
:10328C00A00207490748FFF78DFD10BDFC1F006029
:10329C0000003F405C48002000803F409C490020DB
:1032AC0000C03F40DC4A0020014B4362704700BF26
:1032BC0000A0804480ED090A704700BF90F82030D0
:1032CC0042894169012BC388A1EB02212DE9F0470A
:1032DC0000F0878083FB01344588002C7DDB02895C
:1032EC001B0A4FF4004682FB012E43EA04632412AE
:1032FC00BEF1000FE6FB05346BDBD209858842EA90
:10330C004E622D044FEAEE1E12EB050C828982FBF5
:10331C0001254EF1000E002D56DBD20D42EA45225E
:10332C0002F5FA66B6F5FA6F26DB02FB02F215110E
:10333C0002698661A2FB033102FB0411002903DA46
:10334C00694A9B1841F100015B0DBCEB050243EA95
:10335C00C1236EEBE57E49159B1A61EB0E0100292A
:10336C0004DA41F6FF729B1841F100015B0B43EA52
:10337C00C143C361BDE8F08781FB011702FB02F872
:10338C0011EB010908EB480547EB070A19EB01099A
:10339C0008EB880847EB0A0716F5C86F4FEA650576
:1033AC004FEA67074FEAE80100F3968002F6AC5249
:1033BC00F61B02FB02F201EB8201C2EBC2025B1AAA
:1033CC00154464EBE174B3E7484E921945F10005DE
:1033DC00A3E77F324EF1000E8FE7FF3344F1000478
:1033EC007DE783FB0132002A02DA7F3342F10002CF
:1033FC00DB09D41143EA4263428812049B18028908
:10340C0082FB012544F10004002D02DA3F3245F124
:10341C000005B0F804E09209B0F80CC042EA8562ED
:10342C004FEA4E464FEADE3E92194EEBA51E8CFB40
:10343C0001C5002D04DA2D4E1CEB060C45F10005E0
:10344C004FEADC5C4CEA452C0CF5FA66B6F5FA6FE3
:10345C001FDB05698661A5FB033105FB04110029FF
:10346C0003DA214C1B1941F100015B0D43EAC12326
:10347C0049159B1A61EB0E01002904DA47F6FF721D
:10348C009B1841F10001DB0B43EA4143C361BDE8EA
:10349C00F0870CFB0CFC81FB0118CCEB8C17CCEBF4
:1034AC004C1C7D115D1B2B464FEAEC0564EBE7745D
:1034BC00551B6EEBEC7E2A464D1848EB08076D1831
:1034CC0048EB0707BF0047EA9577AD006D1A67EB2D
:1034DC000807A6EBE706BCE7591AA6EB070664EB50
:1034EC00E8740B4624E700BFFFFF1F00FFFF7F00BF
:1034FC00D0ED077A90F82030F8EEE77A012B67EEE2
:10350C00807A0CBF9FED037AB2EE047A87EE870ABD
:10351C00704700BF0000C84290ED060ADFED037A49
:10352C00B8EEC00A80EE270A704700BF0000C84200
:10353C0090F82030012B1ED0D0ED077AB2EE047A31
:10354C00DFED156AF8EEE77A67EEA67A87EE876A02
:10355C0090ED097ADFED116AB7EEC77A36EE666A3E
:10356C009FED0B5BB7EEC66A27EE057B86EE070B6D
:10357C00B7EEC00B7047D0ED077A9FED077AF8EEE7
:10358C00E77A67EE877A87EE876AE1E7AFF3008028
:10359C0005A3923A019D23400000C84200DAC547BA
:1035AC0000220B8800B59646C3F30B031046CA8164
:1035BC001EF0010F0B8024D0DBB25840082305E02D
:1035CC00013B1FFA8CF013F0FF030CD0420010F4F7
:1035DC00004F944682F44052F2D0013B12B213F0E9
:1035EC00FF0390B2F2D10EF1010E5FFA8EFEBEF126
:1035FC00100F09D04FEA5E031EF0010F31F81330A3
:10360C00DAD180EA1320D9E7000B5DF804FB00BF88
:10361C00F8B5614C0126EC274A210546204684F872
:10362C00306184F8A57084F82F61FFF787FB314671
:10363C002046FFF791FC142002F0D8FD0021204613
:10364C0084F8A57084F8306184F82F61FFF776FB5D
:10365C0031462046FFF780FC334603227621204674
:10366C00FFF7F8FC00232B6194F8A23094F8A32008
:10367C009A4277D9E2183344927E84F8A230110230
:10368C002A6194F8A23094F8A3209A427FD95A1C4C
:10369C0023449B7E84F8A2200B4319022B6194F8DF
:1036AC00A23094F8A3209A426ED95A1C23449B7ED4
:1036BC0084F8A2200B430126EC272B615A213648B3
:1036CC0084F8A57084F8306184F82F61FFF736FB1D
:1036DC0031463148FFF740FC142002F087FD0021F1
:1036EC002D4884F8A57084F8306184F82F61FFF7B9
:1036FC0025FB31462848FFF72FFC33460322762161
:10370C002548FFF7A7FC00236B6194F8A23094F8CE
:10371C00A3209A4233D9E2183344927E84F8A23023
:10372C0011026A6194F8A23094F8A3209A4221D92C
:10373C005A1C23449B7E84F8A2200B4319026B6114
:10374C0094F8A23094F8A3209A4210D95A1C23441E
:10375C009B7E84F8A2200B4328466B61BDE8F840A1
:10376C00FFF7ACBD6FF0FF014FF0FF3288E74FF071
:10377C00FF33F1E76FF0FF014FF0FF33DFE76FF03E
:10378C00FF014FF0FF32CCE74FF0FF3393E76FF0C0
:10379C00FF014FF0FF3381E79C4900202DE9F047F2
:1037AC002F4CEC27804601261E21204684F8A5705C
:1037BC0008F10E0A84F83061454684F82F61C8F18F
:1037CC00A009FFF7BBFA31462046FFF7C5FB0A20DC
:1037DC0002F00CFD09EB0501204684F8A570C9B276
:1037EC0084F8306184F82F61FFF7A8FA0121204694
:1037FC00FFF7B2FB0123022276212046FFF72AFCB9
:10380C0094F8A23094F8A3005A1C04EB030C8342E6
:10381C0003F10201D2B220D29CF91A30904204EB8F
:10382C00020E84F8A2204FEA032316D99EF81A2020
:10383C0084F8A21013439BB225F8023B5545C9D11D
:10384C00B8F8004041464046240BFFF7A9FE201A69
:10385C00B0FA80F04009BDE8F0874FF6FF73EBE754
:10386C009C490020084B82714FF47A721B6841719D
:10387C0010B4064CA4FB03435DF8044B9B0C02FBF9
:10388C0003F3C360704700BF4825002083DE1B4351
:10389C0038B504460D464079022102F061FD034B18
:1038AC0065741B68A3F5FA63A36038BD98580020B3
:1038BC00674B2DE9F0431A68D1B0044629B98368E7
:1038CC00D31AB3F5FA6FC0F09F800025A2600221D5
:1038DC0060792560257102F043FD012002F086FC21
:1038EC006079012102F03CFD2946607902F0FCFC74
:1038FC00A379153B012B00F28280564940F24C46CD
:10390C00554D564B48682A68A3FB0232920C06FBB5
:10391C0002F24B681B1A9A42FBD80221607902F022
:10392C001FFD4C494D4E48682B68627CA6FB036317
:10393C009B0C03FB02F24B681B1A9A42FBD872B623
:10394C00002503E0E26895421D466CD2607902F0D6
:10395C00F5FC6B1C0028F5D0013564D0002503E084
:10396C00E26895421D465ED2607902F0E7FC0128C0
:10397C0005F10103F4D0013555D0E8460DF5A079D9
:10398C004746002503E0E26895421D4640D2607927
:10399C0002F0D4FC6B1C0028F5D000263D6003E03F
:1039AC00E26896421E4636D2607902F0C7FC0128C6
:1039BC0006F10103F4D07E600837B945E1D162B657
:1039CC00002211E0431C14D0635D814202F101021C
:1039DC0008F108084FEA4303DBB243F001012CBFA6
:1039EC0063556155282A24D0D510D8E900104E1CF7
:1039FC00E8D100231846237451B0BDE8F08314209D
:103A0C00154D02F0F3FB88E7007C51B0BDE8F08364
:103A1C004FF0FF35C1E74FF0FF36083747F8046C1D
:103A2C00B945AED1CBE70020207462B651B0BDE8E9
:103A3C00F08362782378A0781344E17822790344E8
:103A4C000B44DBB29A42D4D1012318462374DCE731
:103A5C0098580020001000E04825002083DE1B430E
:103A6C0038B50D4611460446FFF722FF002841D019
:103A7C00A379A1780C2BE2783FD025D80B2B39D128
:103A8C0007EE901A1106B8EE670A03D5FFEE007A1E
:103A9C0037EEC00A02F00F02B7EEC00A07EE902A0A
:103AAC009FED216BB8EEE77BA7EE060BB7EEC00BD4
:103ABC004DB1B7EEC00A9FED1E6B9FED1F7BA0EEC4
:103ACC00067BB7EEC70B38BD153B012B12D80B028A
:103ADC0003F4FE43134300EE103A0B069FED127BEA
:103AEC00B8EEC00B20EE070BB7EEC00B17D4002DB1
:103AFC00DFD138BD9FED120A38BD02F00F0207EE80
:103B0C00901AB8EE670B07EE902A0A06B8EEE77B20
:103B1C009FED056BA7EE060BB7EEC00BE7D5B1EE2C
:103B2C00400A002DE5D0C4E79A9999999999B93F23
:103B3C00CDCCCCCCCCCCFC3F0000000000004040F5
:103B4C000000C07F0000000010B50446FFF7B0FE77
:103B5C00A8B1A3790C2B10D9153B012B0FD82388B6
:103B6C005BBA9BB200EE103A9FED0F7BB8EEC00B28
:103B7C0020EE070BB7EEC00B10BD0A2B02D89FED41
:103B8C000C0A10BD637807EE103A237800EE103A59
:103B9C00B8EEC77B9FED046BB8EEC00BA7EE060B1F
:103BAC00B7EEC00B10BD00BF9A9999999999B93F7E
:103BBC000000C07F704700BF2DE9F04186B005467C
:103BCC001020CDE9022102F0A5FC0446DDE902211A
:103BDC000BF08CFB01212046EC600BF091FB20B923
:103BEC000024204606B0BDE8F081012604461820CA
:103BFC0002F090FC0223FF228046CDE90066E968C2
:103C0C000BF052FA182002F085FC0223FE22074624
:103C1C00CDE90066E9680BF047FA082002F07AFC5F
:103C2C00414604230C2280460BF036FB38460BF041
:103C3C0011FB45F249439842D2D140460BF030FB80
:103C4C0040F227239842CBD1182002F063FC0746A0
:103C5C0002230022CDE90066E9680BF025FA2F60FB
:103C6C00182002F057FC074602230622CDE9006615
:103C7C00E9680BF019FA6F60182002F04BFC07464C
:103C8C0002230722CDE90066E9680BF00DFA0F2339
:103C9C002968324604A8AF600BF0FEFA314604A83E
:103CAC000BF00CFB022002F0A1FA9AE700B50122FE
:103CBC0089B0C168022302A8CDE900220BF0F4F907
:103CCC0002A80BF0C7FAB7EE047B03B200EE103A71
:103CDC00B8EEC00B20EE070BB7EEC00B09B05DF8C9
:103CEC0004FB00BF10B5022388B00124C1681A463A
:103CFC0002A8CDE900440BF0D7F902A80BF0AAFA00
:103D0C0006EE900AB7EE047BB8EE660B20EE070BBE
:103D1C00B7EEC00B08B010BD10B582B00C4609232D
:103D2C000322016868460BF0B7FA214668460BF08F
:103D3C00C5FA02B010BD00BF10B5032382B00C460B
:103D4C0001681A4668460BF0A7FA214668460BF044
:103D5C00B5FA02B010BD00BF10B582B00C460623F8
:103D6C000322016868460BF097FA214668460BF06F
:103D7C00A5FA02B010BD00BF704700BF034B4FF453
:103D8C007A701B6803FB00F0704700BF9858002046
:103D9C000B6813B9014B01221A7070473B59002074
:103DAC000A480123006830B5C56883B00024AA42D4
:103DBC0028BF2A46CDE9004494B222460BF0BCFA47
:103DCC00002814BF2046002003B030BDA84C0020B2
:103DDC002DE9F04F85B02B480E46144600AF012359
:103DEC00042207F10C0100680BF012FB00283FD0F5
:103DFC00244B8046B7F80C901868C9F30E09C368B9
:103E0C00A1457B6034D8073323F00703ADEB030DDA
:103E1C00EA46B9F1000F30D07C684D460DF1040B29
:103E2C004C4528BF4C46A4B22246012351460BF008
:103E3C00EFFA0346A4F1040C224651463046BBB1BE
:103E4C00B8F1000F03D11FFA8CF4594622462D1BF2
:103E5C0026444FF0000802F0C3FAADB22C1D65B138
:103E6C00084B18687B689C4228BF1C46A4B2DBE751
:103E7C0000201437BD46BDE8F08F48461437BD46C8
:103E8C00BDE8F08FA84C0020134B70B593E80300ED
:103E9C0084B00524114E002502908DF80C100123DE
:103EAC00052202A93068CDE900550BF045FA03460E
:103EBC001E204BB902F09AF9631E13F0FF04EED1E9
:103ECC004FF0FF3004B070BD4FF4967002F08EF9D5
:103EDC00002004B070BD00BFB8040020A84C002026
:103EEC0010B5104C94F90000431C00D110BD0121F9
:103EFC00C0B202F035FA0121207802F0F5F90A205F
:103F0C0002F074F90021207802F0EEF90A2002F098
:103F1C006DF92078012102F0E7F90A20BDE8104084
:103F2C0002F064B93A59002010B50446FFF7D8FFE7
:103F3C0000220C4904F1580000F03EFB08B10020AF
:103F4C0010BD04340146542220460DF091FD20464C
:103F5C0000F0C6FB0028F2D10146034800F0B8FB84
:103F6C00012010BDA11B00007D1D000010B5094CE7
:103F7C00206800F061FC00B910BD2421064803F054
:103F8C00B3FC064801F0D6FE236800200021C3E9EB
:103F9C00020110BD9C4C0020640800204C25002020
:103FAC00024A034B02601970704700BF9C0B002043
:103FBC003A590020704700BFF0B51C4F044683B03F
:103FCC000D4638681E4620B11021019202F0A4FA69
:103FDC00019A1020019202F09DFA29460546019A99
:103FEC000BF084F9012128463D600BF089F9054658
:103FFC0088B10F4A31460F4B0F48C4E916230F4BBB
:10400C000F4AC4E9180323682046A2661B6803B054
:10401C00BDE8F040184715210A4803F065FC0A4832
:10402C0001F088FE284603B0F0BD00BFA84C00206C
:10403C00991C0000891B0000E11B0000B11B000053
:10404C008D1B0000AC0800204C250020024B0022E8
:10405C0018781A70704700BF3B5900200000000010
:10406C009FED0B7B0C4B10B50C46196081ED027B60
:10407C0000F028FBD4E90232134306D12078A0F1DA
:10408C002A00B0FA80F0400910BD012010BD00BF1D
:10409C0000000000000000009C4C0020074B08466C
:1040AC0010B5002419469A601C609C80C3E9034437
:1040BC0000F028FBB0FA80F0400910BDE44C002061
:1040CC00704700BF0848094BD0F8BC2010B401243D
:1040DC0019711C602AB11946D0F8C0005DF8044B68
:1040EC0010475DF8044B7047F84C002078580020BE
:1040FC0000B54FF4806183B04FF0F90C0223A0F8A7
:10410C00AC1001AAC17A4068ADF804C001F008F9FE
:10411C0003B05DF804FB00BFD0F8A8301A785978CA
:10412C00520030B5D2B287B0044609B142F0010258
:10413C00997809B142F00402D97809B142F0080229
:10414C000025019504958DF814508DF8062001AAD0
:10415C00CDE902559988ADF807109968CDF809108A
:10416C00D3E903011123CDF8111094F8AC10CDF85C
:10417C000D008DF80510FD2160688DF80410E17AB2
:10418C0001F0CEF8C4E9285007B030BD2DE9F04F4E
:10419C008BB0164604460F464FF0000C00F11D0282
:1041AC00019304E00CF1010CBCF1400F2DD012F87E
:1041BC001C302A2BF6D104EB4C0C9CF81E500EB381
:1041CC004FF000091FFA85FB4FF02A0AC846019BE5
:1041DC0007EB08012A460DF112008DF811A0CDE96C
:1041EC00023902F0FDF8D4F8C42002A98DF8105061
:1041FC0012B1D4F8C80090470BEB08031FFA83F8F0
:10420C004645E4D80BB0BDE8F08F0025D7E700BFDA
:10421C00002A7ED02DE9F04F4FF000088BB000F152
:10422C001D0407460E469A469146DFF8ECB045460B
:10423C0000947119705D0023009C02E00133402B47
:10424C005FD014F813208242F8D107EB430300949B
:10425C009A7F002A55D0FB2836D0FA283AD0EF287E
:10426C003DD091F802E0CB784FEA8E1E0EF47C5EC6
:10427C0003EB0E0CDBF800309A45264B3CD31B6845
:10428C0003930CEB08038DF811006420CBF800A00D
:10429C0000FB03A30DF11200CDE9012302F0A0F8FD
:1042AC00019AD7F8C4308DF8102092B22BB102A924
:1042BC00D7F8C80001929847019A2A4495B2A945AB
:1042CC00B7D80BB0BDE8F08FD1F8018092B2C8F12D
:1042DC000008F2E7D1F8013092B29844EDE7D7F834
:1042EC00A03092B2002BE8D09B68002BE5D038466A
:1042FC0001929847019AE0E71C461B680133236042
:10430C00BEE7D7F8F8310133C7F8F8310BB0BDE888
:10431C00F08F704720580020C4570020FFF778BF5B
:10432C00802938B5044628D0812911D001B138BD77
:10433C00164A1749406800F003FF0346154AA3725A
:10434C001549606800F0FCFE0123E072637238BD11
:10435C00812A18D85008EAD004F11D0C00221E3412
:10436C005D1C13F812100CF8121015F8121004F84A
:10437C00121001328242F4DB38BD19460C30BDE814
:10438C0038400EF063BE4020E6E700BF3812002034
:10439C00401200204C12002054120020012A02D19D
:1043AC000B78012B05D0D0F8F0310133C0F8F03187
:1043BC00704710B407490024D0F8BC2003720C607D
:1043CC0022B1D0F8C0005DF8044B10475DF8044BE7
:1043DC00704700BF785800200B78F82B31D190F83B
:1043EC00AC3070B5D0F8A85065B390F8ADE073451B
:1043FC0028D24C781A01AC5405EB03128C7854700B
:10440C00CC7894704C6854608E68966091F80CC0AF
:10441C004E7B4CEA062CA2F80CC091F80EC082F828
:10442C000EC0C97BD1730A4A944203D10522964629
:10443C0080F8AD200133DBB2734580F8AC3001D28B
:10444C0070BD7047002285F85030C0E9282270BD3D
:10445C007FA69800F8B5194C054623681A691846CA
:10446C009047D4F8A07037BB06466B682046C4E969
:10447C0028579847A8B9D4F8A0307BB130462A68A1
:10448C00831B0AB19A420FD9606800F089FE20683C
:10449C0003699847D4F8A030002BF0D1D4F8A400CD
:1044AC00F8BDC4E92870F8BD6FF00503002218466A
:1044BC00C4E92823F8BD6FF00200F8BDF84C0020C9
:1044CC00FFF7A6BE2DE9F84F0646002A63D00F462B
:1044DC009146002500F11D04DFF8D8B007EB050864
:1044EC00795D002302E00133402B5BD014F81320DC
:1044FC008A42F8D106EB430393F81EA0BAF1000FE1
:10450C0050D0FC2911D0D6F8A0101FFA8AFA29B184
:10451C008B681BB152464146304698470AEB05035F
:10452C009DB2A945DAD8BDE8F88FD6F8BC20002A90
:10453C00E9D00223D6F8C000CBF8003098F801106F
:10454C008BF8041098F802C01A49CCF3400E8BF883
:10455C0008E00CF0010E8BF809E0CCF3800ECCF3E4
:10456C00C00C8BF80AE08BF80BC098F803C098F8D5
:10457C0004E04CEA0E2CABF80CC0D8F80530CBF8A4
:10458C001030D8F80930CBF81430D8F80D30CBF8FF
:10459C0018309047B7E7D0F8F4310133C0F8F43154
:1045AC00BDE8F88FD6F8F8310133C6F8F831BDE81C
:1045BC00F88F00BF7858002000285ED0F0B5324C40
:1045CC00054683B00F46164600214FF4FE72204676
:1045DC000DF04EFAFF2328462560E372C4E92F76CE
:1045EC0000F0D0FC606000284AD02246274900F039
:1045FC004DFD2346264A0221606800F077FD254BCD
:10460C00254A02216068009400F044FD234B244AA3
:10461C0002216068009400F03DFD224B224A0221E9
:10462C006068009400F036FD204A0221204B60683F
:10463C00009400F02FFD23461E4A0121606800F013
:10464C0055FD1D4B1D4A01216068009400F022FDB0
:10465C0020681B4E03699847054608E0606800F027
:10466C009FFD206803699847401BB04202D8237A0B
:10467C00002BF3D0002003B0F0BD6FF001007047A9
:10468C004FF0FF30F7E700BFF84C0020D51E0000BC
:10469C0031210000D52200004C1200202D210000F9
:1046AC0008130020D1220000141300202013002036
:1046BC009D1F0000D11E0000AD210000381200200B
:1046CC003F0D0300014B586800F06ABDF84C002008
:1046DC000246024B0020C3E931217047F84C002000
:1046EC0010B4064A044600230548C2E92A43C2E92D
:1046FC002C335DF8044BFFF7ADBE00BFF84C002027
:10470C009810002000B5074B864600220648C3E9E6
:10471C002A12C3E92C2283F8ACE05DF804EBFFF716
:10472C0099BE00BFF84C00206012002038B504463A
:10473C0001F10E000D462DED028B00F087FA07EE0D
:10474C00900A9FED1D8A05F11000F8EEE77A67EEEE
:10475C00887AC4ED057A00F079FA07EE900A05F133
:10476C001200F8EEE77A67EE887AC4ED067A00F06C
:10477C006DFA07EE900A05F11400F8EEE77A67EE91
:10478C00887AC4ED077A00F061FA07EE900A05F119
:10479C001600F8EEE77A67EE887AC4ED087A00F036
:1047AC0055FA07EE900A0020FAEECA7ABDEC028B9D
:1047BC00C4ED097A38BD00BF0000803838B5044616
:1047CC0001F10E000D462DED028B00F03FFA07EEC5
:1047DC00900A9FED188A05F11000F8EEE77A67EE63
:1047EC00887AC4ED057A00F031FA07EE900A05F1EB
:1047FC001200F8EEE77A67EE887AC4ED067A00F0DC
:10480C0025FA07EE900A05F11400F8EEE77A67EE48
:10481C00887AC4ED077A00F019FA07EE900A0020A6
:10482C00F8EEE77A67EE887ABDEC028BC4ED087A75
:10483C0038BD00BF0000803870B52DED028B4B7A6F
:10484C000D46044603702A2B91ED007B80ED027B14
:10485C0040D0CA7A013B42700A7B02F0030282709C
:10486C002A2B00F2C580DFE813F09400F600F1006B
:10487C0094009F0194001501EB00DB01CF01C301F3
:10488C00B701AB01C6006E01BF0061012B00BF0078
:10489C00D2007901D200C60098012B002B002B000E
:1048AC002B00C3000101BF002B002B002B002B00A1
:1048BC00C300C300C300C3007301A501C300FB0008
:1048CC00002601F10E0000F0BDF9A0823046BDECCF
:1048DC00028B70BD002601F10A00DFEDD48A6670F0
:1048EC00A67000F0B3F907EE900A05F10C009FEDED
:1048FC00D08AF8EEE77A67EEA87AC4ED057A00F074
:10490C00A5F907EE900A05F10E00F8EEE77A67EECE
:10491C00A87AC4ED067A00F099F907EE900A05F131
:10492C001000F8EEE77A67EEA87AC4ED077A00F08B
:10493C008DF907EE900A05F11200F8EEE77A67EEB2
:10494C00A87AC4ED087A00F081F907EE900A05F117
:10495C001400F8EEE77A67EE887AC4ED097A00F075
:10496C0075F907EE900A05F11600F8EEE77A67EE96
:10497C00887AC4ED0A7A00F069F907EE900A30469D
:10498C00F8EEE77A67EE887ABDEC028BC4ED0B7A11
:10499C0070BD01F10E009FEDA78A00F057F907EEEC
:1049AC00900A05F110000026F8EEE77A67EE887A97
:1049BC00C4ED057A00F04AF907EE900A05F11200F1
:1049CC00F8EEE77A67EE887AC4ED067A00F03EF9E5
:1049DC0007EE900A3046F8EEE77A67EE887ABDEC7F
:1049EC00028BC4ED077A70BD8A7B002602756DE7D9
:1049FC004FF0FF366AE701F10E00002600F026F9B1
:104A0C0007EE900AFAEEEC7AC4ED057A5EE701F156
:104A1C000E00002600F01AF9034605F11000A382DF
:104A2C0000F014F9034605F11200E38200F00EF9D0
:104A3C00034605F11600238300F00CF9E06145E70D
:104A4C00BDEC028BBDE87040FFF7B8BE01F10E0063
:104A5C009FED798AA1E701F10E009FED788A9CE722
:104A6C008A7B00260275CA7B42752FE78B7B01F18E
:104A7C00190203F07F01DB090175437515F80F3F2F
:104A8C0004F8163F15F8013FAA4204F8013FF9D18A
:104A9C0000261BE701F10E009FED688A00F0D6F8A6
:104AAC0007EE900A05F110000026F8EEE77A67EEA3
:104ABC00887AC4ED057A00F0C9F807EE900A05F182
:104ACC001200F8EEE77A67EE887AC4ED067A00F009
:104ADC00BDF807EE900A05F11400F8EEE77A67EEE0
:104AEC00887AC4ED077A00F0B1F807EE900A05F168
:104AFC001600F8EEE77A67EE887AC4ED087A00F0D3
:104B0C00A5F807EE900A05F11800F8EEE77A67EEC3
:104B1C00887AC4ED097A00F099F807EE900AF8EE5D
:104B2C00E77A67EE887AC4ED0A7ACFE601F10E00D7
:104B3C00002600F089F8034605F11200636100F0CD
:104B4C0083F82083C2E601F10E009FED3B8AA5E7B6
:104B5C00BDEC028BBDE87040FFF7E8BD01F10E0023
:104B6C00002600F073F8034605F11000A38200F054
:104B7C006DF8034605F11200E38200F067F8034676
:104B8C0005F11400238300F061F8034605F11600CB
:104B9C00638300F05FF8E06198E601F10E000026F7
:104BAC0000F052F8606191E6BDEC028BBDE87040FC
:104BBC00FFF7BCBDBDEC028BBDE87040FFF7FEBD3E
:104BCC0001F10E00002600F041F807EE900AFAEE13
:104BDC00CE7AC4ED057A79E601F10E00002600F0DC
:104BEC0035F807EE900AFAEECC7AC4ED057A6DE64C
:104BFC0001F10E00002600F02DF807EE900AFAEEF7
:104C0C00CC7AC4ED057A61E601F10E00002600F0C5
:104C1C0021F807EE900AFAEEC67AC4ED057A55E64D
:104C2C00BDEC028BBDE87040FFF780BD0000803802
:104C3C000000803A0000803B0000803D0000003BFB
:104C4C00007870470088704700687047B0F9000022
:104C5C00704700BF006870472DE9F84F4FF000090E
:104C6C00074600F2245B00F2C4685BF804ACCBF896
:104C7C002490BAF1FF3F1ED007F2BE64002503E07A
:104C8C0001352C34082D16D0D4F82260002EF7D024
:104C9C0034F8023C9A45F3D1214658460EF06CF894
:104CAC000028EDD12C23CBF8246003FB0575D5F837
:104CBC00E436CBF828300BF1340BC345D5D1BDE825
:104CCC00F88F00BF10B590F8DC447CB104EBC40E37
:104CDC00002300F5856C01E0734505D05CF82320BA
:104CEC0009338A42F8D110BD052CFCD004EBC40268
:104CFC0004F1010C242300EB820280F8DCC4C2F81E
:104D0C00281440F22C41002213FB0413BDE8104080
:104D1C00C254FFF7A1BF00BF802900D0704738B53F
:104D2C00054618461C460EF003FA072800D938BD74
:104D3C00421C214605F10C00BDE8384001F050BB87
:104D4C00002A18BF00292FD02DE9F04F97B00B780F
:104D5C00029313B117B0BDE8F08F029D0223012A14
:104D6C0080468DF818508DF8385080F8243400F0B7
:104D7C0006810124894603950192631CA61C19F82F
:104D8C0004A09BB2B6B219F803B00AF1FF3306EBDC
:104D9C000B044E44A4B2082B38D8DFE803F0B9AFAB
:104DAC00AB9F948D86650600704731460EA80DF0BA
:104DBC0063FA029A0490072A28D8342140F224502E
:104DCC0011FB020301FB028731464344C7F820550F
:104DDC00184605930EF03AF90021039B4046A7F8BC
:104DEC001C1587F84435C7F84815C7F84C15FFF75C
:104DFC0033FF0EA9049A059B521AC7F82055184682
:104E0C00013201F0EDFA039B87F84435434600224A
:104E1C00B3F8E0148D4200F0938001320C33052A74
:104E2C00F6D1019BA342A8D843460022B3F8E01464
:104E3C00A94207D001320C33052A8BD0B3F8E01409
:104E4C00A942F7D1D3F8E444002CF3D002EB420290
:104E5C000023A44608EB820819461A46D8F8E80441
:104E6C0017B0BDE8F04F604706AF314638460DF03D
:104E7C0003FA98F8DCC4BCF1000FC7D042460023FB
:104E8C0002E001336345C1D0D2F828142432A94280
:104E9C00F7D103EBC303C21B394608EB8303013282
:104EAC0003F22C4001F09CFAB0E73046FFF7C8FE45
:104EBC00012302900393A9E73046FFF7C1FE0023BC
:104ECC0002900393A2E73046FFF7BCFE043883B28E
:104EDC00B3F5C07F9AD2A8F8183197E73046FFF7A0
:104EEC00B1FE043883B2FF2B88BF4FF48073A8F84F
:104EFC0016308BE73046FFF7A5FE87E73046FFF705
:104F0C00A1FE043883B2FF2B80D8A8F814307DE7BB
:104F1C0043460022B3F8E014A94221D001320C33ED
:104F2C00052AF7D13046FFF78FFE05464046294645
:104F3C00FFF7C8FE00238DF818308DF8383065E780
:104F4C00D3F8E474002F3FF468AF02EB4200334611
:104F5C005A46514608EB8000D0F8E804B84760E7A1
:104F6C00D3F8E474002FD9D002EB420208EB820391
:104F7C00D3F8E80400231A461946B847D2E7029D35
:104F8C0052E700BF70B53C4C05462178002968D02B
:104F9C00002D6ED0394C2668002E6AD140F63402B2
:104FAC00314620460CF064FD4FF00123314620467B
:104FBC0063612560FFF786FE314A04F22453C4F87E
:104FCC00206584F84465A4F81C65C4F84865C4F8E9
:104FDC004C6592E8030083E803002046FFF73CFE93
:104FEC0094F8DD34042B0DD85A1C03EB430384F8DE
:104FFC00DD2404EB8303234AA3F8E064C3F8E844FC
:10500C00C3F8E42494F82434022B02D1002384F84E
:10501C00243494F81C28072A1BD8511C2C2384F800
:10502C001C1840F2BE6103FB024613FB0213002165
:10503C00134AA6F8BC1604EB030C03CAE050124B3F
:10504C00CCF804100D48C6F8E446C6F8E036FFF775
:10505C0003FE0123284684F824342B68984707481C
:10506C0070BD40F6340205480CF002FD012323709C
:10507C008EE7002070BD00BF45590020904F0020E6
:10508C002C130020292B0000512B0000C0E9011229
:10509C00704700BF32B38C46114670B51E4613786C
:1050AC00D3B1044690F81C08072818D82C22431CAE
:1050BC0002FB004584F81C3805F2BE60A5F8BCC69E
:1050CC000DF0C4FF049B2046C5F8E066C5F8E43635
:1050DC00FFF7C2FD002070BD6FF0010070BD4FF0F6
:1050EC00FF3070BD6FF00100704700BF90F8DDC459
:1050FC00BCF1040F1BD800B50CEB4C0E0CF1010CE1
:10510C0080F8DDC400EB8E0CACF8E014CCF8E42491
:10511C00CCF8E83490F82434022B02D000205DF84F
:10512C0004FB002380F8243400205DF804FB90F885
:10513C002434022B02D1002380F824340020704741
:10514C002DE9F843002605468946904600F22C4787
:10515C00384649460DF010FE2437044628B1013676
:10516C00052EF5D1FF20BDE8F88306EBC60605EB4E
:10517C008606D6F82864731CF4D005F2245528460C
:10518C0041460DF0F9FD18B955F8043CB34204D072
:10519C0001343435082CF2D1E4E7E0B2BDE8F883F1
:1051AC002DE9F043002383B090F824540446019376
:1051BC005DB1206801AB4FF4C07204F529718568AC
:1051CC00A84778B903B0BDE8F08301220223294631
:1051DC0080F82424514A00F0A3F80028E9D084F880
:1051EC002454E6E780B2DDF804C003285FD994F8B4
:1051FC00A51247F6FC7594F8A43294F8A62203EB9A
:10520C00012394F8A7622B429FB244D0072A56D8A8
:10521C0094F81C38934252D9B4F81A31C7F30E08DB
:10522C00002B59D1B8F5C07F5CD800231746C4F8C1
:10523C00A0C284F81C21A4F89E32404504F21D192A
:10524C0004F52A7128BF4046054609EB03002A1FC6
:10525C00A8EB050801F0C4F8B4F89E221FFA88F3F5
:10526C00043AA4F81A31A81882B2A4F89E225BB9A9
:10527C00342303FB0743D3F848552DB1D3F84C0521
:10528C004946D4F8A032A8473423013603FB07471C
:10529C0087F81D6596E7D4F8243862680133C4F8A2
:1052AC002438002A8ED00121A06890478AE7D4F8D0
:1052BC0024380133C4F8243803B0BDE8F083D4F8A3
:1052CC002C3862680133C4F82C38002A3FF47AAFCA
:1052DC000321A068904775E70B0610D40023A4F8AF
:1052EC001A319FE7D4F8283862680133C4F828389B
:1052FC00002A3FF467AF0221A068904762E794F858
:10530C001C719742EAD1342303FB074393F81D35F4
:10531C00B342E3D1B4F89E328FE700BF1C0C0020DF
:10532C002DE9F04F1E46838A83B0B34201925DD3C0
:10533C0007298346894651D800274FF0340808FBCB
:10534C0001083946002E45D0BBF81620043A92B21B
:10535C00B24228BF3246141D9246A4B2230A8BF8DF
:10536C00184009B163F07F038BF819305D468BF858
:10537C001A90A6EB0A0698F81C35019AB6B2581C7E
:10538C00D119524688F81C050BF11C008BF81B3008
:10539C00574401F025F855F8180B2246BFB2C368E4
:1053AC002946984750B95846FFF7FAFEDBF800003B
:1053BC0022462946C36898470028F4D000284FF0AD
:1053CC000101BFDADBF820380B44CBF8203803B0EE
:1053DC00BDE8F08F304603B0BDE8F08FD0F8303820
:1053EC006FF001000133CBF83038F0E76FF00100BB
:1053FC00EDE700BF10B5044600F000FC204610BDE0
:10540C0030B40F4D00230C2101222C680371224271
:10541C004FEA420C0BD0037901391FFA8CF203F1DD
:10542C0001030371F3D1FF2330BC037170470549AD
:10543C0014430B682C6023EA020330BC0B607047EA
:10544C00A44C0020A04C002003790B2B1ED8B1F5E6
:10545C00087F2DDA21EAE171B0F800C04288B42946
:10546C00A2EB0C02A8BFB421002A02FB01F10EDB57
:10547C005A31174A82FB0102C81700290A44C0EBB3
:10548C00E212944411DB134A22F813C070475A39C4
:10549C000F4A82FB0102C81700290A44C0EBE21232
:1054AC009444F0DB0CF1010CEDE70CF1FF3CEAE766
:1054BC0002884FEA011CB2EB011F04DC42886245F2
:1054CC00A8BF624692B2034921F81320704700BF6F
:1054DC00B7600BB6844C002003880A01B3EB011FA4
:1054EC0003DC43889342A8BF134602790B2A02D8E7
:1054FC00014921F812307047844C0020024A0349BC
:10550C00034802F0E5BB00BF901F002005320000ED
:10551C002C260020B0F84630B0F848209BB292B24E
:10552C00934202D2013AD01A7047416B01390A44B6
:10553C00D01A704772B6B0F84A20B0F84C3092B21C
:10554C009BB29A423CBF816B5218D31A0269D06A43
:10555C0062B6C0F302601844704700BFB0F84A103E
:10556C000246B0F84C3089B29BB2994210D001334C
:10557C00906B116B984298BF0023994203D9126A21
:10558C00D05CC0B270475B1A526AD05CC0B2704734
:10559C0072B6B0F84A0080B2814201D062B6E6E73A
:1055AC001369D96A11F0E06F03D14FF0FF3062B686
:1055BC007047DB6901204FF0000C116AA2F84A0019
:1055CC00C3F30900DBB2A2F84CC04B70EFE700BF8D
:1055DC00B0F84A100246B0F84C3089B29BB29942EE
:1055EC0026D0013330B4946B9C4216D9106B1FFA41
:1055FC0083FC984217D9106AC05CC0B2956DA2F8B2
:10560C004CC045B199421CD3CB1AD16B994202D3F1
:10561C00D36DC5F8883030BC70474FF0000C106B60
:10562C0063469842E7D8181A556A285CC0B2E5E779
:10563C00084672B6B2F84A1089B2884204D062B6F3
:10564C00CFE70C44E31AE0E71369DA6A12F0E06F73
:10565C0003D14FF0FF3062B67047D869C0F3090030
:10566C00F9E700BF90F8443043B110B5044602F09E
:10567C00B9F994F84430002BF9D110BD704700BF34
:10568C00EFF31380B8B9EFF310834BB9EFF3058246
:10569C003AB94FF48073EFF3118050B1984208D2AD
:1056AC0070470F2AF7D9054B9B5CEFF3118000284C
:1056BC00F4D1184670474FF0FF30F1E7F0E300E00B
:1056CC0007EE901A9FED917A0421B6EE005AF8EE8F
:1056DC00677A9FED8F6A41F6FF7CC7EE275A2DE95A
:1056EC00F0418E46012407EE901AF8EEE77A85EE2B
:1056FC00A77A77EE057AFDEEE77A17EE903A6345D6
:10570C00A8BF6346012BB8BF012307EE903AF8EE11
:10571C00E76A76EEC76AC6EE877AF5EEC07AF1EEE6
:10572C0010FA48BFF1EE677AF4EEC67AF1EE10FA91
:10573C0003D8B0EE676A8E461C4601312129D2D1BE
:10574C000021436902F40075A0F84A10B3F85EC05A
:10575C008D42A0F84C10B3F85C50A0F84610A0F89D
:10576C00481080F84410816B1E69A1EB0505A1EB74
:10577C000C01C0E90F5131685D6941EA05013160E6
:10578C0014BF01210021817640F09180057EDFF865
:10579C00988103EB051C5F4E9CF8185008EB05151F
:1057AC00A9686D680E60DCF81C602E60DCF8205077
:1057BC0015B1DCF824602E60457ED92703EB051566
:1057CC0095F8386008EB06118E6849683760ED6B08
:1057DC000D60417E03EB01110D6C0DB1496C29601C
:1057EC000EF1FF31BEF1080F5D684FF00006CCBF23
:1057FC004FF0000E4FF0010E090644EA4E4401F042
:10580C00F85121435C7804F1100304692161424989
:10581C00E66041F8235043694FF0010C3F4902F018
:10582C0003055C7893F85A30635444693C4B6178B7
:10583C0003EB511301F01F019B000CFA01F11960ED
:10584C004FF002110369D962996A41F0880199629B
:10585C00510729D445F4701102F00F05042D857EF3
:10586C0008BF41F08041970648BF41F080510DB10F
:10587C0041F0A0011607996103D5196941F0005157
:10588C0019615969D50621F0805148BF41F080510A
:10589C00D205596103D51A6942F400521A61E368C2
:1058AC001B78A3B1BDE8F0811E492943D4E7417EA2
:1058BC004FF2D9071C4D03EB011191F8386005EB41
:1058CC000615AE686D683760C96B296081E7174EA5
:1058DC003478BCB1611E164DC9B22B1F05EB81018A
:1058EC0053F8042F9042DDD09942F9D1631CDBB2FE
:1058FC00104A3370137845F8240043F002031370F8
:10590C00BDE8F08101230A4DF2E700BF001BB74B45
:10591C00EC78AD6038F001000038002000E400E0C5
:10592C004038003810003C003C0C00203D59002051
:10593C00BC4C002086360020F8B5036D04460E469C
:10594C0013B1426DC3F88420A37E33B172B62269C1
:10595C00936943F00053936162B6B4F84650636B9D
:10596C00ADB20135AB424CD800273D46B4F84830B7
:10597C009BB29D421AD029E021694B691B0210D5BC
:10598C00B4F84830626B9BB201339A4236D99AB262
:10599C00E06A98422DD9E069C35CDBB2CB61A4F814
:1059AC004820B4F848309BB2AB420FD1FFF768FEE9
:1059BC006369B3F85A308342DEDAFF28F1DD02F076
:1059CC0011F8B4F848309BB2AB42EFD0E36AAB426B
:1059DC0019D9E369F6B25E5572B60120226984F8D2
:1059EC004400A4F84670936943F40003936162B6D3
:1059FC00F8BD1B1AA06AC35CDBB2CFE700221346CA
:105A0C00C6E7AFB2B2E7ED1AF6B2A36A5E55E3E7AA
:105A1C00FFF792BF0269536913F4401F70B5154626
:105A2C0047D0D36A13F0E06FC3F3026E3ED0B0F8E8
:105A3C004A40B0F84C50A4B2ADB208E0026A02F889
:105A4C0003C002690EF1FF3313F0FF0E1ED0D169B3
:105A5C00631CB0F84CC0866BC1F309011FFA8CFCB7
:105A6C009E4298BF00239C45ECD0026B5FFA81FCF0
:105A7C001C469A42A3EB0206E0D8436A03F806C020
:105A8C000EF1FF33026913F0FF0EE0D1A3B2A0F8C0
:105A9C004A30836D002B5AD0AC425DD3641B016C31
:105AAC00A14254D8C16D1546C3F884105369DC0269
:105ABC0048D49669310229D553691B0226D5B0F812
:105ACC0046C0B0F848301FFA8CFC9BB206E0C169A6
:105ADC00C95CC9B2D161D16A4C0512D463453FD0BF
:105AEC00446B0133C16A9C4298BF00239942A3EBDB
:105AFC000104ECD8816A095DC9B2D161D16A4C0547
:105B0C00ECD599B26345A0F848102CD0710218D589
:105B1C0053695B0215D50022036D80F8442013B144
:105B2C00426DC3F88820837E3BB172B602699369DB
:105B3C0023F00053936162B60569AB6923F48003CB
:105B4C00AB6170BD536943F480135361B1E7536982
:105B5C001546DC02ADD5F5E7816B491B0C449EE77D
:105B6C009BB2A0F84830936923F4000393619369C6
:105B7C0043F480039361C9E70148FFF74BBF00BFB3
:105B8C008C47002010B4174B4FF47A740022282055
:105B9C009C604021144C83F844201C60134C1A73F5
:105BAC001C61134C1A835C61124C9A76A3F8462044
:105BBC00DC61A3F848205DF8044BA3F84A205A6036
:105BCC005A621A64A3F84C20C3E90A20C3E90C10EA
:105BDC000948C3E90E121862C3E91422C3E916225C
:105BEC00704700BF8C470020780B002000001A4043
:105BFC00C82500205C4C00201C4C0020026822B3FD
:105C0C00124B00214FF0FF0C134410B51B11104C1C
:105C1C00916044F823100124D4600E4A02F803C0AA
:105C2C00137892F801C092F802E0634528BF6346EE
:105C3C0092F803C0084A734528BF7346634528BFD2
:105C4C00634682F87A30016010BD704700BFF7BF21
:105C5C00C03A00203426002000E400E0084601F0A1
:105C6C002DBE00BF012A70B508BF0A228AB091B3BD
:105C7C004FF0210E01E05FFA86FE0EF1FF36B1FB0C
:105C8C00F2F502FB15145FFA84FC092C0CF13704B5
:105C9C000CF1300C98BF5FFA8CF40EF1280C88BF15
:105CAC00E4B29142EC4429460CF8244CE3D24BB1BB
:105CBC000EF1FF3E2D225FFA8EFE0EF128036B448F
:105CCC0003F8242C036801A9CEF122025B6871440D
:105CDC0098470AB070BD30224FF0210E8DF8252068
:105CEC00E5E700BF2DE9F0410C46D1B1EAB18046A1
:105CFC008E1800250E4F04E001F0E0FDB44205447F
:105D0C000CD0D8F8003014F8010B1B68BB42F3D050
:105D1C00014640469847B4420544F2D12846BDE8B6
:105D2C00F0810D462846BDE8F0811546F6E700BF28
:105D3C006D3A000000B5036883B040F60D2C0222CA
:105D4C0001A95B68ADF804C0984703B05DF804FB8B
:105D5C00054B022888BF034610B41C6818466368BC
:105D6C005DF8044B184700BF4C2500205AB9036856
:105D7C00C9B2074A1B68934200B506D108465DF8C4
:105D8C0004EB01F09BBDFFF76DBF5DF804EB18470A
:105D9C006D3A000000000000B4EE400B70B5F1EE5F
:105DAC0010FA05462DED028B86B07CD6B0EEC07B8A
:105DBC009FED476BB4EE467BF1EE10FA6BDC9FED7A
:105DCC00467BB4EEC70BF1EE10FA5ADC9FED447B28
:105DDC00B4EEC70BF1EE10FA53D4B5EEC00B0C4673
:105DEC00F1EE10FA5BD40023B6EE007B002C5ED0F3
:105DFC004FF0000C9FED3C6B0CF1010C27EE067B79
:105E0C005FFA8CF2A242F7D330EE070B0A22284637
:105E1C00FCEEC07BB8EE678B17EE901A30EE488B19
:105E2C00FFF720FF0F2C4FF02E03B2EE046B06464B
:105E3C0028BF0F248DF808300DF1090302AA611E4A
:105E4C0053FA81F128EE060BFCEEC07BCDED017A06
:105E5C009DF8043007EE903A3033B8EEE78B02F839
:105E6C00013F914230EE488BECD12B68013402A9F2
:105E7C0028465B68E2B29847304606B0BDEC028B10
:105E8C0070BD2B6803221A495B6806B0BDEC028B0F
:105E9C00BDE870401847036803221649F4E7B1EED9
:105EAC00400B0123A0E7036803221349ECE730EE13
:105EBC00070B0A222846FCEEC07B17EE901A06B0A0
:105ECC00BDEC028BBDE87040FFF7CCBEAFF3008099
:105EDC00FFFFFFFFFFFFEF7F000000E0FFFFEF4140
:105EEC00000000E0FFFFEFC19A9999999999B93F89
:105EFC00C8090020C4090020C0090020A249A34BF6
:105F0C0088422DE9F047A24C5E699A69D4F80C805E
:105F1C001BD9A04B984240F20281C31A9E491B0A1E
:105F2C00A1FB031340F22761DB0903EB830303EBB3
:105F3C00830303F2E2438B4228BF0B46A3F5487759
:105F4C00964BA3FB0737FF0804E0954FB8428CBF74
:105F5C000E2706278D4908F01F09D1F88030B94566
:105F6C0043F0C003C1F880300CD228F01F08A1F513
:105F7C00F82148EA0708C1F80C800B68002BFCDA02
:105F8C0008F01F0916F0007324D186490C69864964
:105F9C00A14300F0EA8082F4805134464FF48055DE
:105FAC0014F0605F04D026F060561E43774B5E61A0
:105FBC0011F4405F07D022F4405274492A438A619D
:105FCC008B6C1A07FCD446F00076704A5661936CC1
:105FDC009B06FCD4754CA04200F2CE804FF0010C15
:105FEC000146634603FB011203F1010E0CF101059E
:105FFC00A24218D8BEF1080F4FF0010340F08D807B
:10600C00BCF1040F00F291800A18A24200F2A480A5
:10601C0005FB00F1AC4603F1010E03FB01120CF180
:10602C000105A242E6D90CF1FF318C0286EA8121EE
:10603C005F4810445F4A90427FD9DFF8A4A16C22DC
:10604C005D48584DB0FBFEF0D5F800E0B0FBFCF01D
:10605C00DFF890C10EEA0C0CD44509D042F4005282
:10606C004FF4805CC5F800C02A602A68002AFCDA6C
:10607C00464A156905F007059D4203D01361936CE0
:10608C00DD03FCD411F4E05F09D026F4E05604F4EF
:10609C00E0543E4A26435661936C9907FCD4474919
:1060AC00474A014491423CD8464BC909A3FB0131F4
:1060BC00090B4B1E1B0286EA030212F4407F06D02A
:1060CC0026F4407603F44073304A334353612F4A2D
:1060DC00536923F000735361936C9B06FCD43A4BC9
:1060EC004F45A3FB00234FF0FF324FEA9343B0FB25
:1060FC00F1F1B2FBF3F3354A1060354A1160354AC1
:10610C00136008D228F01F08214A48EA0707D76015
:10611C001368002BFCDABDE8F087734662E71227A0
:10612C0018E74FF440730421C5E70CF1FF31204808
:10613C0007238C02104486EA8121274ADFF8A8A0A5
:10614C00A2FB0020020D2548362A38BF362202FB5E
:10615C0000F042EA0A0A74E74FEA8C24002386EA2C
:10616C008C214FF0010EAC4662E71D4686F0C05400
:10617C0011464FF0C05313E700244FF0010C0246B8
:10618C0031462346E64653E700A4781F00C00F4073
:10619C00000008400046C32323B24C001F85EB517E
:1061AC0000366E0100800D4040300080FFB19F260C
:1061BC00808D5B00FF7EF64D00643F4D7FD1F00873
:1061CC007F17B42C9F10E50083DE1B43482500206D
:1061DC004425002064580020819F5E16001BB700E8
:1061EC006C2000807F3001800020008000B9704757
:1061FC002DE9F84F01218146214C224D224E54E8C5
:10620C00003F2A68306844E80013002BF7D11F497F
:10621C004B684FF47A7BDFF878A01B1A01270BFB35
:10622C0002F8DAF80020A3FB02325A4594BF9044DE
:10623C00D84454E8003F2A68306844E80073002BC7
:10624C00F7D14B68DAF800C01B1A0BFB02F2A3FB68
:10625C000C3CBCF57A7F94BF624402F57A72A2EBD7
:10626C000802B2F57A7F06D3B9F1010908F57A78FC
:10627C00DFD1BDE8F88F01F0B5FB0449D9E700BFC9
:10628C009C5800209858002094580020001000E0E2
:10629C006458002030B40F4B4FF0010C0E4D0F4CD6
:1062AC0053E8002F2868216843E800C2002AF7D180
:1062BC000B4B5B680B4A5B1A4FF47A71126801FB4B
:1062CC0000F0A3FB023230BC8A4294BF8018401805
:1062DC00704700BF9C58002098580020945800200C
:1062EC00001000E064580020362816D80201104B2C
:1062FC0003EB00109B5810B4C2685C68144205D0C4
:10630C0061B95DF8044BC3F888207047836851B1BC
:10631C00084A5DF8044B1A60704770475DF8044BEF
:10632C00C3F884207047044A5DF8044B1A60704728
:10633C003C0C002038F001003830010036280BD816
:10634C00064B020103EB00109A58C36892681A427C
:10635C0014BF012000207047002070473C0C002027
:10636C00362829D8164B0201012903EB00109A5844
:10637C0010B45368C4680ED004290CD023EA04036B
:10638C0053608368A9B1022917D003290CBF0D4AA9
:10639C000D4A1A6007E0234301295360836808D033
:1063AC0040F638021A60436815225DF8044B1A60F7
:1063BC00704738221A60F6E77047044A1A60F2E711
:1063CC003C0C0020383001003800010038F001008E
:1063DC0008B5FCF7EDFAFCF77FFB01F003FBFAE7DD
:1063EC00844641EA000313F003036DD1403A41D3D4
:1063FC0051F8043B40F8043B51F8043B40F8043B93
:10640C0051F8043B40F8043B51F8043B40F8043B82
:10641C0051F8043B40F8043B51F8043B40F8043B72
:10642C0051F8043B40F8043B51F8043B40F8043B62
:10643C0051F8043B40F8043B51F8043B40F8043B52
:10644C0051F8043B40F8043B51F8043B40F8043B42
:10645C0051F8043B40F8043B51F8043B40F8043B32
:10646C0051F8043B40F8043B51F8043B40F8043B22
:10647C00403ABDD2303211D351F8043B40F8043BC2
:10648C0051F8043B40F8043B51F8043B40F8043B02
:10649C0051F8043B40F8043B103AEDD20C3205D3D2
:1064AC0051F8043B40F8043B043AF9D2043208D0CA
:1064BC00D2071CBF11F8013B00F8013B01D30B883C
:1064CC0003806046704700BF082A13D38B078DD01A
:1064DC0010F003038AD0C3F10403D21ADB071CBFEC
:1064EC0011F8013B00F8013B80D331F8023B20F856
:1064FC00023B7BE7043AD9D3013A11F8013B00F88F
:10650C00013BF9D20B7803704B7843708B78837016
:10651C00604670470AF050B90AF056B901F1FF3CD9
:10652C0070B56646002400E00134B0FBF2F502FBC6
:10653C001503092B03F1370E03F130035FFA8EFEBE
:10654C0098BF5FFA83FE9042284606F801EFEBD223
:10655C00631C0022C818CA547CB162461CF8015F47
:10656C0010F8016DA1EB0C0302328CF80060013BBA
:10657C00521A057023449A42EFDB084670BD00BFE7
:10658C0000230F2248F2B82C194610B54FF4704472
:10659C004FF4806EA0F88C414FF46044A0F88E212B
:1065AC000A46A0F89031B0F888319BB243F0F00362
:1065BC00A0F8883101EB4103013100EB43130429AE
:1065CC009C80A3F806E05A841A865A805A81A3F854
:1065DC000EC05A82DA825A83DA83EBD1B0F8883152
:1065EC009BB243F00F03A0F88831B0F888319BB20E
:1065FC0043F47063A0F8883110BD00BF374B384AA4
:10660C00996F384841F47F0170B5996741F20106E2
:10661C00D3F8801045F6C05543F226040A43C3F85C
:10662C008020FFF7ADFF00F58040FFF7A9FF00F5D4
:10663C008040FFF7A5FF00F58040FFF7A1FF002287
:10664C00A0F503104FF00F0E114600EB42134FEA6A
:10665C00421C01329981042A5981A3F80EE09E82D2
:10666C00DD8020F80C1019829C81EED100221E488E
:10667C004FF00F0E41F20106114645F6C05543F29C
:10668C00260400EB42134FEA421C01329981042A82
:10669C005981A3F80EE09E82DD8020F80C1019823F
:1066AC009C81EED1002211480F2641F201051146C2
:1066BC0045F6C05443F2260E00EB42134FEA421C3F
:1066CC0001329981042A5981DE819D82DC8020F877
:1066DC000C101982A3F80CE0EED170BD00C00F4075
:1066EC00000003FC00C03D4000001E4000401E4066
:1066FC00704700BF72B6EFF305834F4CC4F884307B
:10670C00EFF308824FF0E0234C4E4D4DD3F8280D9B
:10671C00D3F82C1DC4E92201D3F8341DD3F8383D2D
:10672C00C4E924139369C4F89830D369C4F89C3035
:10673C0000F0D2F884ED280A01F04EFA0B214FF04C
:10674C00FF32C4F8A4000B46C4F880103D49301D3C
:10675C005A40202402F00103013C01FB03F383EABD
:10676C005202F7D1A84202D073680646EFE7324BCB
:10677C00C3F8A820BFF34F8F4FF0E0232F49324AC4
:10678C00C3F8701FC3F8702FBFF34F8FBFF36F8F19
:10679C002E4A02252E48D36E2E4943F44053D3661D
:1067AC000560D3692C4823F07F0343F04003D36189
:1067BC000B6883423DD8264D00214FF0E0234FF06B
:1067CC00FF3229600126C5F808112449C5F80011CB
:1067DC00C5F80861C3F88021C3F88421C3F8882167
:1067EC00C3F88C21C3F8902101E000F067F9D5F8CB
:1067FC000C31002BF9D00134C5F80C614F2CF4D9B5
:10680C00174B022017494FF00042C1F840015A6360
:10681C00D5F80C313BB9144814490D4A0163D2F830
:10682C000C31002BFAD04FF0E023114AC3F80C2D99
:10683C00FEE7FFF763FBBEE700FF272080FF272062
:10684C00A8FF27202083B8EDA0FF272000C00F4011
:10685C000040084048250020803DCD0B009F2400BF
:10686C0000900D4000002E4000800F40F100AD0B59
:10687C000400FA050A490A6838B108B51318094822
:10688C00834204D810460B6008BD104670470CF0CC
:10689C0027FA0C234FF0FF320360104608BD00BFEF
:1068AC00C426002000002820002070474FF0FF3045
:1068BC00704700BF4FF4005300204B60704700BF7F
:1068CC00012070474FF0FF30704700BF30BFFDE72D
:1068DC0030BFFDE7FFF70EBF124AD2F880305B07DE
:1068EC00FBD5D2F880301048C3F30B230F4990ED41
:1068FC00007A07EE903A91ED006AB8EE477A0C4AAE
:10690C00F8EEE77A0B4BD2ED006A77EEC77A93ED8F
:10691C00007AB8EE477A67EE867A87EEA60A37EEEB
:10692C00400A704700810D40545800205C580020EC
:10693C006058002058580020836BF0B41BB153688A
:10694C0043F40043536072B6446B3CB31A4B226061
:10695C00D3F8B0410C421DD1184E776804E074682E
:10696C00E41BB4F5166F0BD2D3F8404144F48044C9
:10697C00C3F84041D3F8B851D3F840416404EED584
:10698C000D4007D10C4CC0E90225D4F8B0310B43B3
:10699C00C4F8B031426362B6F0BC7047064DC0E932
:1069AC000224D5F8B0310B43C5F8B0310263426311
:1069BC0062B6F0BC704700BF00002E40001000E033
:1069CC0070B5056B9DB106462A46002403E012689B
:1069DC000134012A0CD0536813F08003F7D03263D2
:1069EC002CB12846B36B2D689847013CF9D170BD8A
:1069FC00C6E90C33F4E700BF30B4D9B91F4C204BB7
:106A0C000021204A01254FF0011099601D60C4E956
:106A1C00023180245C60C2F8BC01D2F8B0311A4853
:106A2C002B43C2F8B0310160D2F8B031002BFBD14E
:106A3C0030BC70470904154B104C012541F0800106
:106A4C009860104A596000F580511D60D96000F5BE
:106A5C000051A364196100F5405100F58040596163
:106A6C0000219861E164D2F8B03143F48033C2F86C
:106A7C00B031D2F8B031002BFBD1C0E700000020C0
:106A8C00E03A002000002E40FC4E0020003B00208D
:106A9C00084901220B7802FA00F023EA0000087082
:106AAC0030B9054AD2F8483123F08003C2F8483196
:106ABC00704700BF4659002000002E402DE9F04FD2
:106ACC00974C83B0D4F84471FB07C4F8447153D588
:106ADC00D4F8AC21002A4AD0924EDFF860A2DFF83D
:106AEC007492DFF874B2DFF87482C4F8AC21D6E982
:106AFC000A20D4F8403143F40053C4F84031D4F8A0
:106B0C0040319D04F5D5D4F8403123F40053C4F83A
:106B1C0040314FF00113C4F8B431D4F8B45115F02E
:106B2C000115FAD193B28446CAF80050B3F5086F38
:106B3C0000F0CF8100F2DB8040F202318B4200F09A
:106B4C00E78100F29A80822B00F0CB81B3F5817F34
:106B5C0040F08A8010F0780F83B200F003824FF07F
:106B6C000113C4F8C031D4F8AC21002ABDD16C4A51
:106B7C00D2F8BC31002B42D17E0616D5684BD3F827
:106B8C00AC21C3F8AC21D3F8BC21C3F8BC21D3F899
:106B9C00B041002CFBD14FF0FF32C3F8B421D3F835
:106BAC00843100F02DFD604B1C60FC0103D55F4B64
:106BBC001B6803B19847B80103D55D4B1B6803B143
:106BCC009847790708D5564BD3F8843113F40073E2
:106BDC0047D0584B01221A70514BD3F848311A0642
:106BEC000AD53B0608D5544A13782BB1013BDBB2CE
:106BFC001370002B00F0728203B0BDE8F08F4F4988
:106C0C00C2F8BC310868034240F0D181464A14688E
:106C1C001C40B1D05FEA144810D0424E4FF001092D
:106C2C0098FAA8F5B5FA85F506EBC51009FA05F53D
:106C3C004030FFF7C5FE38EA0508F1D1A4B2002CAC
