:0200000460009A
:100000004643464200000156000000000103030081
:1000100000000000000000000000000000000000E0
:1000200000000000000000000000000000000000D0
:1000300000000000000000000000000000000000C0
:1000400000000000010408000000000000000000A3
:100050000000800000000000000000000000000020
:100060000000000000000000000000000000000090
:100070000000000000000000000000000000000080
:10008000EB04180A063204260000000000000000FD
:10009000050404240000000000000000000000002F
:1000A0000000000000000000000000000000000050
:1000B0000604000000000000000000000000000036
:1000C0000000000000000000000000000000000030
:1000D00020041808000000000000000000000000DC
:1000E0000000000000000000000000000000000010
:1000F0000000000000000000000000000000000000
:10010000D8041808000000000000000000000000F3
:100110000204180804200000000000000000000095
:1001200000000000000000000000000000000000CF
:10013000600400000000000000000000000000005B
:1001400000000000000000000000000000000000AF
:10015000000000000000000000000000000000009F
:10016000000000000000000000000000000000008F
:10017000000000000000000000000000000000007F
:10018000000000000000000000000000000000006F
:10019000000000000000000000000000000000005F
:1001A000000000000000000000000000000000004F
:1001B000000000000000000000000000000000003F
:1001C000000100000010000001000000000000001D
:1001D000000001000000000000000000000000001E
:1001E000000000000000000000000000000000000F
:1001F00000000000000000000000000000000000FF
:10020000FFFFFFFFFFFFFFFFFFFFFFFFFFFFFFFFFE
:10021000FFFFFFFFFFFFFFFFFFFFFFFFFFFFFFFFEE
:10100000D100204325160060000000000000000011
:101010002010006000100060000403600000000069
:10102000000000600010030000000000FFFFFFFF51
:10103000FFFFFFFFFFFFFFFFFFFFFFFFFFFFFFFFC0
:10104000FFFFFFFFFFFFFFFFFFFFFFFFFFFFFFFFB0
:10105000FFFFFFFFFFFFFFFFFFFFFFFFFFFFFFFFA0
:10106000FFFFFFFFFFFFFFFFFFFFFFFFFFFFFFFF90
:10140000884207D0904205D251F8043B40F8043B93
:101410008242F9D8704700BF884204D2002340F8C6
:10142000043B8142FBD870472DE9884800F0D0F991
:101430000824614B614AC3F8544161496148FFF790
:10144000DFFF614A61496248FFF7DAFF614962489C
:10145000FFF7E2FF614C4FF0E0214FF470000023F2
:101460005F4AC1F8880D44F823200133B02BFAD12C
:101470005C4B80215C4A03F8011B9342FBD14FF087
:10148000E0254D4E4FF08039DFF88CB1DFF88CA1AC
:101490004FF0FF31C5F8084D0027C6F80491C6F893
:1014A00000B1C6F8F490C6F8F0A0D5F8243DDFF8F6
:1014B000708143F4E0234D4AC5F8243DD8F81C3030
:1014C00023F07F0343F04003C8F81C30D8F82430E1
:1014D00023F07F0343F04003C8F824309166D166BF
:1014E0001167516700F07CF9414B4249A363424BBD
:1014F000E36363236B610323AF612B613F4BC5F84B
:10150000203DD5F8FC3D43F08073C5F8FC3D3C4BD5
:101510001A6842F001021A605B680B6000F09EFBE3
:10152000C6F804913748C6F800B1C6F8F490C6F87A
:10153000F0A000F039FDD8F86C10334B334A41F479
:101540004051C8F86C101F60C3F80871C3F81871D7
:10155000C3F82871C3F83871936BDB0708D442F6DF
:1015600015632B4951651365936B43F00103936336
:10157000264A284C936843F00113936000F0ACF9BD
:1015800000F0D0FC00F018FD00F096FB00F022F90E
:101590002368132BFCD900F027FC2368B3F5967F52
:1015A000FBD300F01BF900F017F900F0F5FC00F098
:1015B000FFFC30BFFDE700BF00800D40E882020065
:1015C0003422006000000000C05E002020A5026000
:1015D0000000002020D30020C05E0020005C00201E
:1015E00029BF000000E400E0A0E400E000C00A40E1
:1015F000DDD30000F0D10020E1D300000000202066
:10160000001000E00008AF2F0040084000400D40EF
:101610000000C056F4D100201B1018200C0D11132F
:1016200000C00F40074B4FF42A01074A07485A648D
:101630001864074A99639546BFF34F8FBFF36F8FC6
:10164000FFF7F2FE00C00A40FFAFAAAA0700200081
:101650000000052043690A4A03EB011010B4037A25
:10166000084C02EB0313D3E901321460C2681A601C
:1016700003690BB142691A605DF8044B704700BF03
:101680009820002061F801004369027E03EB0212FA
:1016900092F808C08C451CD01A7AFF2A19D09142C2
:1016A00010B5044616D01A7EFF2A06D00121D3E9D0
:1016B000002312681A4201D1217610BD064B052283
:1016C000204603EB0C135B681A60FFF7C3FF21761B
:1016D000F3E770470021EAE79820002043690A4AAF
:1016E00003EB011010B490F82830084C02EB031300
:1016F000D3E901321460C26A1A60036B0BB1426B0A
:101700001A605DF8044B70479820002061F80100D2
:101710004369427E03EB021292F828C08C451ED02A
:1017200093F82820FF2A1AD0914210B5044617D00A
:1017300093F83820FF2A06D00121D3E9002312684C
:101740001A4201D1617610BD064B0522204603EBFB
:101750000C135B681A60FFF7C1FF6176F3E770470F
:101760000021EAE798200020164942698B6B23F498
:101770007C0343F4802370B58B630446124DD2E999
:1017800000130A681A4303690A60022200211A61E1
:101790000E4A19619A6401225A629D624FF43035F3
:1017A000DD624FF001159E6C1E6519629D651A6120
:1017B000017EFFF74FFF617E2046BDE87040FFF7D6
:1017C0008DBF00BF00C00F40B80B05053B3728197F
:1017D000704700BF704700BF704700BF00BF704731
:1017E00010B44FF0E023002110242B48C3F8941DBF
:1017F000C3F89C4D1124C3F8A00D2848C3F89C4D94
:101800001224C3F8A00D2648C3F89C4D254AC3F8FE
:10181000A00D254C42F015022448C3F89C4DC3F896
:10182000A00D234C2348C3F89C4DC3F8A00D224CB7
:10183000C3F89C2D2148224AC3F8A04DC3F89C0D43
:10184000C3F8A02D02F5A0221E4C0C321E48C3F88E
:101850009C4DC3F8A02D1D4AC3F89C0D1C4CC3F829
:10186000A02D01221B48C3F89C4DC3F8A00DC3F85E
:10187000942DBFF34F8FBFF36F8FC3F8501FBFF38B
:101880004F8FBFF36F8FD3F8142D5DF8044B42F4E4
:101890004032C3F8142D70473F00001025000803A4
:1018A0000900100020D300201300200021000207AF
:1018B0001400002025000813090000101600202045
:1018C00027000B1317000040180000602F000B07C3
:1018D000190000702F000B13F0B5B84B1822B84E4A
:1018E0000120B84F83B0C3F85C62B749C3F8607297
:1018F000B64DC3F86462A6F53046B54CC3F86862CD
:10190000C3F86C52C3F87052C3F87452C3F87852DB
:1019100048F20C75DA661A675A679A67DA67C3F88D
:101920008020C3F88420C3F88820C1F82C03A94A7A
:10193000C1F83003C1F83403C1F83803C1F83C03DF
:10194000C1F85003A169A44B0A40A448A449134319
:10195000A44AA361D4F8843043F00C03C4F8843063
:101960004FF0FF34036843F00203036003682B4029
:101970004FF400551A439C4B026044608A689B4CAC
:1019800013409B4A43F000538360C36823F07803FD
:10199000C360036A134023430362036A1340954AFA
:1019A0002343954C43628262C2620022D1F8B83070
:1019B00023F03F0343F00103C0F8B830D1F8BC3046
:1019C0008E4923F03F0343F00103C0F8BC3040F2DE
:1019D0000563026105660467C0F8803045664467A8
:1019E0000224C0F88430036823F00203036081619D
:1019F000834B8449C46143F8042B8B42FBD1774A63
:101A0000136843F001031360136813F00103FBD163
:101A10007A48022140F2F564906140F29940D16128
:101A200040F26641C2F8004242F20144C2F810128C
:101A30007549C2F82002C2F8301240F235417348AD
:101A4000C2F83442C2F84012714CC2F8500242F25D
:101A500001207049C2F854120121C2F86042C2F854
:101A600064025E48C2F8A030C2F8A430C2F8B010D8
:101A70004369DA07FCD5012300244FF4803257492B
:101A80004361C0F8A040C0F8A420C0F8B0304B6952
:101A9000DB07FCD5012300244FF400304F4A4B6193
:101AA000C1F8A040C1F8A400C1F8B0305369DF0705
:101AB000FCD501230024584848495361C2F8A0408E
:101AC000C2F8A400C2F8B0304B69DE07FCD5D1F8EB
:101AD000003145F60D5221209BB24861934265D1F9
:101AE00000244FF4802201233C48C1F8A040C1F8F3
:101AF000A420C1F8B0304369DD07FCD501234FF4C1
:101B000000040021354A4361C0F8A040C0F8A41089
:101B1000C0F8B0305369DC07FCD501234FF4000452
:101B20004FF480302D495361C2F8A040C2F8A400A0
:101B3000C2F8B0304B69D807FCD501234FF400043C
:101B40004FF40030254A4B61C1F8A040C1F8A40011
:101B5000C1F8B0305369D907FCD501234FF4000414
:101B60002D481E495361C2F8A040C2F8A400C2F833
:101B7000B0304B69DA07FCD5D1F8003145F60D528B
:101B800021209BB24861934250D008254FF40004B5
:101B900022490020224B234A009015705A1A012333
:101BA0002148224400F00CFA03B0F0BD1E4B002285
:101BB000C3E90022C3E9022203B0F0BD00801F4048
:101BC000F9B00100F910010000841F40F970010014
:101BD00000C00F40FFFCFF1F000300A000402A4090
:101BE00000802A401200FFFFFF37F700400000800E
:101BF00000FFF07CFF000F8363000200F05AF05AF0
:101C000000422A4000432A409F041830EB06180A7D
:101C10003806180A0632012604000300000000708E
:101C200000000070E5D2002004C700204FF400043B
:101C30004FF4802201230848C1F8A040C1F8A42035
:101C4000C1F8B0304369DB07FCD5012310254FF004
:101C5000807443619CE700BF00402A40F0B4154AFD
:101C600040274FF480314FF480564FF400554FF425
:101C7000404443F24200136913F0020F0ED113F4F3
:101C8000005F0FD013F4805F0ED0002BF3DA13F453
:101C9000803F0BD15B060BD5F0BC7047946151615E
:101CA0009061E8E75561E6E75661E4E79161E2E7B4
:101CB0005761E0E700800D403F4A03203F49F3EEC3
:101CC000095AD2F880304FF0000C9FED3D6A23F0A6
:101CD00001039FED3C5A30B4C2F88030C2F8900046
:101CE000D1F8E010384DCBB2384C39482B6007EEB4
:101CF000903A0B0DC1F30B21F8EEE77A06EE903A1D
:101D000007EE101A334BB8EEC77A2160F8EEE66A98
:101D1000314937EEC66A37EEC55A76EEC76A77EEB6
:101D2000E57A26EE266AC3ED006A25EE265AD2F839
:101D3000803067EEA64AC0ED007AC6EE275A2748E3
:101D400085EE276AC4EEA76A75EE875AFCEEE55A5F
:101D500036EE076A15EE904ABCEEC66A43EA0453B3
:101D600076EE877AC2F8803016EE103AD2F89041BB
:101D7000FCEEE77A01EA0341214317EE903AC2F8FC
:101D80009011C3F30B03D2F890110B431449C2F81E
:101D90009031D2F8803043F00203C2F88030114B0A
:101DA00080F840C0C1F840314FF0E023012230BC40
:101DB000C3F80821704700BF00810D4000441F4058
:101DC0000000AA420000B44284D1002080D100204B
:101DD00088D100208CD100200000FF0F00E400E03B
:101DE000005C002009C10000314B40F6617210B563
:101DF000C3F8202140F2044400F0C6F82D4A2E49D1
:101E0000D2F880302D4843F00303C2F880302C4BC9
:101E1000C1F8604102681A4203D1D1F8A8319A078B
:101E20001BD0254A4FF00041244B5963D2F8403172
:101E300043F00203C2F84031D2F840319B07FBD493
:101E40004FF400304FF0E0211C4B4FF00042C1F83E
:101E50008C0219209A6300F0A3F8184A4FF08040D2
:101E6000154C002190630A20164B11604FF420722C
:101E7000C4F8A801184600F08BF84FF4800203461E
:101E80004FF4810040F243111860C4F858311A64CD
:101E90000D4B0E4AC4F84811C3F804224FF0E0225B
:101EA0004FF400310123C2F80C11C4F8403110BDC9
:101EB00000800D4000C00F4000002E4000900D40FB
:101EC000001C1E0000000020005C0020F1C2000089
:101ED00008B50E4B1B6E9B0700D4FBBE72B60C4BB5
:101EE00000200C4AC3F8400103F160430A49A3F5FE
:101EF0005F2311649D46BFF34F8F4FF400130748D3
:101F0000074ADB6902609B68984700BF00441F4096
:101F100000002E4000C00A40030020000080202066
:101F2000000012EB104BA020104AD96E41F4403152
:101F300010B4D96640F23764D96E41F44071D96665
:101F400054649064936C1B06FCD4094A40F23761D8
:101F5000A02351649364936C13F08003FBD1054A72
:101F600013705DF8044B704700C00F4000400C40F8
:101F700000800C40E3D20020F8B500BFF8BC08BCDC
:101F80009E467047000000005FF800F061CA000044
:101F90005FF800F0D1FD01005FF800F04D10020085
:101FA0005FF800F001BA00005FF800F011B7000020
:101FB0005FF800F0E5BB00005FF800F019BE00001C
:101FC0005FF800F075D400008900000055010000A2
:101FD00079020000A9030000210500007D0C00002B
:101FE0007912000039130000F1180000E9A7000081
:101FF000DDAE00005DAF0000E1AF000065B00000A5
:10200000E9B000006DB10000F1B1000021D5000081
:1020100051D5000091D50000D1D5000001D60000B7
:1020200031D6000061D6000091D6000011DD01001C
:1020300070C00F40C000000012000000130000003C
:10204000D0841F4001000000FF000000FF000000DE
:10205000000000000000000013000000130000005A
:10206000CC841F4001000000FF000000FF000000C2
:1020700000000000000000001C000000CD1800005F
:1020800070C00F40000C00001100000011000000A3
:10209000E0841F40020000002C000000120000003D
:1020A000E0841F400100000010000000110000004B
:1020B000DC841F40020000002D0000001200000020
:1020C000DC841F40010000001E000000D918000041
:1020D00080C00F4000000003190000001000000045
:1020E000E8841F4001000000FF000000FF00000026
:1020F00000000000000000001800000010000000B8
:10210000E4841F4001000000FF000000FF00000009
:1021100000000000000000001F000000E5180000A3
:1021200001010101010101001603550053004200A5
:102130002000530065007200690061006C0000001F
:1021400018035400650065006E0073007900640098
:10215000750069006E006F00040309040902620043
:10216000030100C032080B00020202010009040052
:1021700000010202010005240010010524010101F3
:10218000042402060524060001070582031000103E
:1021900009040100020A00000007050302400000D4
:1021A000070584024000000904020002FF6AFF00E4
:1021B00007058102400001070501024000010000FF
:1021C00009026200030100C032080B000202020192
:1021D00000090400000102020100052400100105AD
:1021E00024010101042402060524060001070582DA
:1021F0000310000509040100020A0000000705039E
:102200000200020007058402000200090402000225
:10221000FF6AC700070581020002010705010200ED
:10222000020100000A060002EF0201400100000066
:0422300000000000AA
:10223400000000000000000000000000000000009A
:10224400000000000000000000000000000000008A
:102254000348044B834202D0034B03B11847704731
:10226400C05E0020C05E0020000000000548064B50
:102274001B1AD90F01EBA301491002D0034B03B180
:1022840018477047C05E0020C05E002000000000B8
:1022940010B5064C237843B9FFF7DAFF044B13B1AA
:1022A4000448AFF300800123237010BD58AA002016
:1022B400000000000010036008B5044B1BB1044982
:1022C4000448AFF30080BDE80840CFE700000000F9
:1022D4005CAA00200010036030B583B004460D48AA
:1022E4006D4685E806004FF4E1310AF0F3F90DF08C
:1022F40039FA094B02462946201D11F0D9F908B9CB
:1023040003B030BD64200BF093FC64200BF090FC10
:10231400F8E700BFB8BA00204C1B002038B5094DBF
:10232400144640F2BB414FF4FA72284602F02CFCEA
:102334006A6CB5F848306261237615F01FFF60605F
:1023440038BD00BF08BD002000B583B004306B4623
:1023540083E80600194612F025FA10B903B05DF8B7
:1023640004FB64200BF064FC64200BF061FCF8E7D0
:10237400034B10B5044603600AF0D0F9204610BDA3
:10238400181D002038B50C4C00230C4D18221721C1
:1023940020460AF02FF90A4A0A4920460DF0C4F9EA
:1023A4002146284602F076F82846054A0649BDE843
:1023B40038400DF0B9B900BFB8BA002008BD0020FC
:1023C400803C002041010000CD22000030B583B0E4
:1023D400044610486D4685E806004FF416510AF08D
:1023E40079F9002340F24C420A490B4809F04AFFAC
:1023F4000DF0D8F9094B02462946201D11F058F971
:1024040008B903B030BD64200BF012FC64200BF05B
:102414000FFCF8E7A0B7002080BB0020B81A00200A
:1024240038B5164D40F24C411446284609F0EEFFEB
:1024340007EE100A40F24C412846B8EEC77B84ED03
:10244400067B0AF005F807EE100A40F24C412846D4
:10245400B8EEC77B84ED087B0AF01CF807EE100A7F
:1024640040F24C412846B8EEC77B84ED0A7B09F064
:10247400ABFF206315F082FE606038BD80BB002096
:1024840000B583B004306B4683E80600194612F0A9
:1024940089F910B903B05DF804FB64200BF0C8FBA4
:1024A40064200BF0C5FBF8E738B50B4D00230B4C4B
:1024B4001D221C2128460AF09DF8094A094928468C
:1024C4000DF032F9204604F0B9F82046044A0649D2
:1024D400BDE838400DF028B9A0B7002080BB00202B
:1024E400803C002041010000E14C000010B50021B7
:1024F400044615482DED028B01F086FF134B002294
:102504000121D3ED007A104830EE678A01F008FF0C
:10251400F2EE047AB4EEE78AF1EE10FA02DCBDECD6
:10252400028B10BD84ED078A84ED080A15F026FE9F
:10253400034604F10801201DE3600022BDEC028B78
:10254400BDE8104011F052BF6CBB00205CBB002002
:1025540030B52DED028B83B004461B486D4685E8EB
:102564000600372101F0F4FD0DF03CF9174B02464B
:102574002946201D11F062F818B164200BF058FBB5
:10258400FBE70A249FED128A0F4D2846002101F033
:102594003BFF0A2038EE008A0BF04AFB013CF4D1E1
:1025A400B7EEC87A0B4B9FED066B27EE067BB7EEB2
:1025B400C77B83ED007A03B0BDEC028B30BD00BF56
:1025C4009A9999999999B93F6CBB0020500C0020B5
:1025D400000000005CBB00200623162204210148F1
:1025E40001F0A0BD6CBB002030B583B004466D463D
:1025F40085E806000DF00EF9074B02462946201D1A
:1026040011F01CF808B903B030BD64200BF010FBC6
:1026140064200BF00DFBF8E7241B002010B50446E2
:1026240015F0ACFD0346002204F11401201DA36142
:10263400BDE8104011F0DABE38B52DED088B61EE1F
:10264400019A0C46F0EE41AA1546F0EE408AB0EE2F
:10265400691A20EE210AB0EE608A90EEA01AA0EE6C
:10266400AA0AB0EE619AB1EE69AAA1EEE11AB7EE38
:10267400C00A30EE000BA8EEA81AB7EEC11A1DF07E
:10268400AFFCE8EE089A2AEEE86AB8EE007BB7EEF3
:10269400C0BBA8EE096AE9EE099A84ED00BAB7EE68
:1026A400C66AE8EEA89A26EE076BB7EEE90A86EE4C
:1026B400000B1DF069FCA8EE48AA28EE887AB7EE54
:1026C400C08BAAEE897A84ED018AA9EE09AAB7EE35
:1026D400C70AA8EEA8AA30EE000BB7EECA1A1DF07E
:1026E4007FFCB7EEC07B84ED027ACDB1B7EECBBAF6
:1026F400B7EEC80AB7EEC77A9FED0B6B2BEE06BB9D
:1027040020EE060B27EE067BB7EECBBBB7EEC00B75
:10271400B7EEC77B84ED00BA84ED010A84ED027A3A
:10272400BDEC088B38BD00BFF8C1631ADCA54C4072
:10273400DFED037A90ED020A30EE270A704700BFFE
:1027440000003443014B93ED000B704750620020AE
:1027540010B5064C4FF0FF31204602F07BFC2046BA
:10276400034A0449BDE810400CF0DEBFDCBD002084
:10277400803C0020392E000038B5354C2368012BED
:102784004DDD0BF0A9FA334A334DB1EE002B92ED37
:10279400006AB1EE083B314B314993ED004A83EDB9
:1027A400006AB7EEC66A2B68B7EEC44A2D4CC31A4A
:1027B400A6EE024B91ED006A07EE103A2A4B82ED29
:1027C400006A1A68B8EE477B1860B7EEC66A2749F4
:1027D4002A600A2226489FED1C5B36EE046B27EE26
:1027E400057B94ED005BB7EEC77BB7EEC77A27EEA7
:1027F400067B87EE036B36EE056B84ED006B0AF007
:102804004BFF1B480AF07CFF0221194894ED000B92
:102814000AF0A6FF1648BDE838400AF071BF124D11
:102824000D4B2A681A600BF057FA2368094A0133E2
:102834000A49286023600A4B1868136810600B600B
:1028440038BD00BFAFF300808DEDB5A0F7C6B03E34
:1028540058BE002020BB0020E0BA002024BB00208A
:102864002CBB002050620020DCBA0020181B002082
:10287400BCB2002008B542F2107204210F4802F0E5
:1028840065FC38B141F2883228210C4802F05EFC24
:1028940048B108BD24220A490A480AF0FDFE094845
:1028A4000AF02EFFEEE72922074906480AF0F4FE53
:1028B4000448BDE808400AF023BF00BFDCBD002087
:1028C400C41A0020BCB20020EC1A00202DE9F0410B
:1028D4009CB0002280464FF41651224817AC0AF0EF
:1028E4007DF94FF0FF3101A81F4D02F0B3FB02A99F
:1028F40054221E480BF096FA1D4F1E4E0FCC0FC5E6
:10290400236801A845F8683902F0AEFB384627F081
:10291400F7FD11E00AF0C0FE12480AF0F1FE164974
:1029240023460A2209680F480AF006FF0D480AF0F8
:10293400E7FE64200BF07CF93A464A21002328463E
:1029440002F094FB04461A2231460648002CE1D0DA
:102954004046FFF78FFF094909481CB0BDE8F04124
:1029640002F0D6BBBCB2002034BE0020E0BD002083
:102974005CB60020301B0020F4D10020A0600020B1
:10298400DCBD002030B505468DB0274802F0B8FB09
:1029940088BB2549684602F0EBFB244CEC46A6466E
:1029A400BCE80F00AEE80F00BCE80F00AEE80F0073
:1029B4009CE80F008EE80F00D4E90232134318D0CC
:1029C4002378042B1BD0282B13D1012205F10801F5
:1029D400D4ED071A284694ED061AD4ED050A94EDB1
:1029E400080AFFF729FEA968EA682B696963AA63E4
:1029F400EB630DB030BD2846FFF73CFFC9E76369C0
:102A0400A069E1690A4AEB64286528466965136090
:102A1400FFF7B2FE074B93ED007BB7EEC77B85ED66
:102A2400107A0DB030BD00BFDCBD0020A0600020D6
:102A34002CBB00205062002030B583B00446102027
:102A44006D4685E8060000210BF0ACF90CF0FAFEA7
:102A5400074B02462946201D10F0F0FD08B903B0CB
:102A640030BD64200BF0E4F864200BF0E1F8F8E7E3
:102A74005C1B002010B5044610200BF081F90128DE
:102A840000D010BD207715F079FB034604F108014E
:102A9400201DE3600022BDE8104011F0A7BC00BF78
:102AA400014B1860704700BF30BB002008B564209C
:102AB4000BF0BEF8FBE700BF03460A46014819467F
:102AC400FFF7AEBC8061002003460A460148194660
:102AD400FFF724BC14C00020044808B500F0E6FB4E
:102AE400FDEEC07A17EE900A08BD00BF5CBE002060
:102AF400F8B5012109200BF055F901210A201A4FDC
:102B04000BF050F901210B20184E0BF04BF9012169
:102B14000C20174D0BF046F909213846154C09F0E5
:102B2400EDFE0A21304609F0E9FE0B21284609F0A2
:102B3400E5FE0C21204609F0E1FE38465A2109F051
:102B440011FF30465A2109F00DFF28465A2109F099
:102B540009FF204640F2DC5109F04CFF41F65830A1
:102B6400BDE8F8400BF064B884C000208CC000209D
:102B740094C0002068C0002030B589B0524D02AC2A
:102B840002A813F0C1FA0FCC0FC5002221682B460E
:102B94004E4843F81019114610F080FB002840F00D
:102BA40086804B4C494B4B4A20464B4910F07AFCEB
:102BB40000287CD14FF47A7015F0EEFA002876D113
:102BC400464894E8060000F0A1FC454894E8060055
:102BD400FFF7BEFC434894E80600FFF72DFF424888
:102BE40094E80600FFF7F2FB404894E80600FFF77C
:102BF40073FB0CF03FFE3E4B024621463D4810F06D
:102C040097FD002853D13C48304900903B482AA303
:102C1400D3E9002310F0C6FD002848D138482B49D9
:102C24000090384826A3D3E9002310F0BBFD0446E6
:102C340000283CD1A5F1100306222449012532487D
:102C44000FF0AEFF2D49304810F098F82D492E486A
:102C540010F094F82D4B2E4903F138022A480091C4
:102C6400191F10F0B9F82B4B2B4903F12802264801
:102C74000091191F10F0B0F8284B294A00941D49FF
:102C8400214810F03DF8274C274A2378126882F82F
:102C9400405013B1012009B030BD2448FFF716FE9F
:102CA400234800F0F5FB0120257009B030BDFFF783
:102CB400FDFE00BFAFF3008000AC23FC0600000063
:102CC400404B4C000000000070C0002070BF00208A
:102CD40000BD002064280020540B0020D060002098
:102CE400FCBA002048C000208061002014C00020ED
:102CF400700B002084B90020850D0000ACC00020BA
:102D0400D10E0000A8C00020C86100208861002006
:102D1400890800001CC00020990800007108000008
:102D240038610020DDD2002030BB0020D0BE00205E
:102D34000061002030B52C4883B02C4D10F004FC09
:102D440000216C4615F03AFA95E8030084E8030084
:102D54002146274811F0F0FA78B995E8030084E891
:102D640003002146234811F0E7FA68B164200AF011
:102D74005FFF64200AF05CFFF8E764200AF058FF64
:102D840064200AF055FFF8E795E8030084E803009F
:102D94002146194811F0D0FA30B164200AF048FFF6
:102DA40064200AF045FFF8E795E806001348FFF7AA
:102DB40067FB134895E80600FFF7C6FA2946114851
:102DC40011F05CFE104812F045FA104812F042FA75
:102DD4000F480FF061FF284611F0ACF8024803B029
:102DE400BDE8304010F0A4BA70BF002000BD002040
:102DF400D460002000BB00204CC000208061002073
:102E040014C0002084B90020ACC00020A8C0002059
:102E1400C86100202DE9F0431A4D83B01A4C40F2EA
:102E2400EE281A4FDFF880902E680CF007FB237809
:102E3400D3B13B78DB0717D52B68D9F800209B1A50
:102E44000E2B11D9124C1348134B144A1449CDE9D3
:102E54000004012013F0A4FDFFF74AFE114B0022E9
:102E64001A7003B0BDE8F0832B6822789B1B2AB14B
:102E7400B3F5FA6FE6D80CF0E1FAD6E74345FAD990
:102E8400E0E700BFF4D10020F0D20020EFD2002010
:102E9400591300004D1300004913000045130000AE
:102EA40074420020DFD2002078D2002000B5DFED8C
:102EB400280A83B04820CDED000A0BF04DF82549CF
:102EC400254B264A08601A6025492648264B274A7E
:102ED40008601A6026492748274B284A08601A6068
:102EE4002749284B284A29481A600860284809F0CD
:102EF400E1FC284809F0DEFC9FED270A27488DED08
:102F0400010A09F0D7FC264809F0D4FCDDED000ADB
:102F14009DED010A5A238C222821224800F0B0F9A1
:102F24000023DDED000A642219469DED010A1E48C6
:102F340000F0A6F95A2387222D21DDED000A9FED2A
:102F44001B0A1B4803B05DF804EB00F099B900BFFD
:102F5400CDCC4C3D30BB0020D0600020C41C0020F0
:102F6400FCBA0020D41C002048C00020A81D00206A
:102F740000610020E41C0020D0BE0020841D00203D
:102F84008061002014C00020941D0020701D0020CA
:102F940084C000208CC000209A99193F94C000205E
:102FA40068C000205CBE0020A4BF0020CDCC4C3EF5
:102FB4006CBD002008B314221049114838B50AF03A
:102FC4006BFB104C104B21681A6800230F4D511AEB
:102FD4000B482A600A220AF0AFFB09480AF090FB6A
:102FE4002B680B48236000F065FA0A48FFF77EFA65
:102FF4000948BDE83840FFF73DBD7047900B0020FD
:10300400BCB20020F0C00020F4D10020F4C00020A5
:10301400D0600020FCBA002048C0002010B52E4C1F
:10302400236893F840202DED028B002A51D12B48C0
:1030340093ED088BFFF77CFBF0EE400AB7EEC88BEC
:10304400B0EE480AFFF748FD23680246234893ED93
:10305400068B1446FFF776FB2148F7EEC00BB7EE5C
:10306400C88BB0EE480A00F021F9B0EE408A102275
:103074001C491D480AF010FBFDEEC87A4FF4FA72A1
:103084001A49194817EE903A02FB03F3323381FBD5
:103094000321DA17002BC2EB6112ACBF02F2DC5140
:1030A40002F2DB510AF020FB2146114809F05AFCD8
:1030B4005A21104809F056FC5A210F4809F052FCD5
:1030C40040F2DC510D48BDEC028BBDE8104009F024
:1030D40091BC5A21E9E700BF30BB0020D0BE0020DC
:1030E400A4BF0020A80B0020BCB200201F85EB5118
:1030F40084C000208CC0002094C0002068C0002040
:1031040000B310221049114838B50AF0C5FA104C22
:10311400104B21681A6800230F4D511A0B482A607E
:103124000A220AF009FB09480AF0EAFA2B680B485C
:103134002360FFF727FC0A4800F04AF9BDE838404D
:10314400FFF76CBF704700BF7C0B0020BCB20020AF
:10315400E8C00020F4D10020ECC00020D0BE002044
:10316400006100200000000070B53F4D2C78032C56
:1031740007D8DFE804F02C260702FFF7DBFD002365
:103184002B7070BD394ED6E90023B3F1FF3F08BF61
:10319400B2F1FF3F5DD00FF081F9D6E90023801A28
:1031A40061EB0301C92871F1000140DA2B78022B8D
:1031B400E7D12F482AA3D3E90023BDE8704010F0DB
:1031C4003BB8FFF7D9FC68B302232B7070BD04220F
:1031D40028492948294C0AF05FFA27480AF090FA4E
:1031E400D4E90023B3F1FF3F08BFB2F1FF3F2BD076
:1031F4000FF054F9D4E90023801A61EB030140F283
:10320400F513984271F10001BBDB0121642013F036
:10321400DDFBB0FA80F0400928700FF03FF9C4E9F3
:10322400000170BD2870BDE87040FFF783BD012127
:10323400642013F0CBFB002818BF03242C700FF07C
:103244002DF9C6E90001B1E70FF028F9C4E900013E
:10325400CEE70FF023F9C6E900019CE7AFF3008045
:1032640000E1F50500000000DFD20020783C0020DA
:10327400C861002058250020BCB20020703C00200A
:1032840038B50446154680ED170A5022C0E91915D1
:103294000021E3660023C4ED180A6165043023604D
:1032A400A3651EF0ADFE204638BD00BF436D70EE31
:1032B400600A314A03F1010C00EB8303C0ED160AE6
:1032C40082FB0C124FEAEC71DFED2C7AC1EBE201C8
:1032D40000F1540201EB810110B4ACEB8101C3EDA8
:1032E400010A031D4165B3EC017A934277EE877AB4
:1032F400F9D1D0E91A13446E07EE103ACA1AE31A48
:1033040090ED185AB8EEC76A02EB820207EE101A63
:1033140003EB8303D0ED175AB8EEC70A07EE102A61
:10332400F8EEC76A07EE103AB8EEC77AF4EE676AA9
:10333400F1EE10FA48BFF0EE667AB4EE677AF1EE79
:1033440010FA77FE277A67EE857AE0EEA57A76EEB4
:10335400277AB4EEE70AF1EE10FA09D407EE104A20
:10336400B8EEC70AB4EEE70AF1EE10FA30FE270A07
:103374005DF8044B704700BF676666660000000096
:1033840030B583B004466D4685E806000CF0D2F9EA
:10339400074B02462946201D10F050F908B903B026
:1033A40030BD64200AF044FC64200AF041FCF8E7D4
:1033B4005C0C002010B5044614F0E0FE0346002225
:1033C40004F10801201DE360BDE8104011F00EB8BF
:1033D40038B5114D0446284600F07AFD2846B7EE6C
:1033E400000A00F0E3FCB7EEC00A284684ED080B9F
:1033F40000F0FEFC094B2846D3ED007A30EE670A54
:10340400B7EEC00A84ED0A0B00F0E4FCB7EEC00A84
:1034140084ED0C0B38BD00BF34BB002068BB00201A
:1034240038B5174C0A259FED170A20462DED028B5F
:103434009FED158A00F09CFB204600F049FD2046D4
:10344400B7EE000A00F0B2FC204600F0D1FC013DCA
:1034540038EE008AF0D1B7EEC87A0C4B9FED066BBC
:10346400BDEC028B27EE067BB7EEC77B83ED007ABB
:1034740038BD00BFAFF300809A9999999999B93FE3
:1034840034BB0020004079440000000068BB0020E9
:1034940010B50446034800F0E1FD2046BDE81040A5
:1034A400FFF7BEBF34BB0020014800F05BBB00BF88
:1034B40034BB002070B50446134801F061FC10EEE3
:1034C400100A1DF00DF906460F480D4601F03CFCAC
:1034D40043F698239E4275F1000300DB70BD10EEA5
:1034E400100AC4E908651DF0FBF8C4E90A0114F0E8
:1034F40045FE034604F10801201DE3600022BDE8F7
:10350400704010F073BF00BF48BE002030B583B0D8
:10351400044612486D4685E80600114A402101F030
:1035240099FB0CF0BFF90F4B02462946201D10F001
:1035340085F818B164200AF07BFBFBE704460221FE
:10354400064801F037FC2146044801F053FC2146AB
:10355400024801F03FFC03B030BD00BF48BE00206C
:103564005CB60020480C0020014801F071BB00BF8C
:1035740048BE00200120704701207047D0F88C021B
:1035840003685B68184700BF10B5D0F88C0282B09E
:103594000C461946019200900AF096F9019A2146C8
:1035A400009802B0BDE810400AF090B900207047BE
:1035B40090F8A32090F8A200101A704790F8A23057
:1035C40090F8A3209A4205D95A1C034480F8A220FB
:1035D400987E70474FF0FF30704700BF90F8A230DC
:1035E40090F8A3209A4202D91844807E70474FF085
:1035F400FF307047704700BF0346B0F8300178B120
:1036040093F82F21882A03D9012200205A60704799
:1036140002F1010C01201A4483F82FC182F8A5108D
:10362400704700BF38B5B0F830410CB9204638BDFA
:1036340090F82F310546C3F18904A2420DD81446EF
:1036440005F1A500224618440AF0ECFB95F82F3149
:103654002046234485F82F3138BD01224260EFE72C
:1036640038B5002513464FF47A720446C0E9015276
:103674001548882221612946206004F11A006361FB
:103684002573257665761EF0BBFC8922294604F154
:10369400A50084F8A25084F8A35084F8A4501EF026
:1036A400AFFC204684F82E5184F82F5184F8305111
:1036B40084F8315184F8325184F8335184F8345108
:1036C400C4E94E5538BD00BFB81D00202DE9F04FA8
:1036D400D0F814A01524017E8146437E83B00AEB02
:1036E4000111384A0AEB0313374F097A93F828304B
:1036F40002EB01150901E86852F8018002EB03119D
:10370400D5F804B01B01CE68D558CBF80040C8F8F2
:103714008400D8F804304A6803432C490192C8F85D
:1037240004301460C5F884606B6833436B60284BC5
:103734004C683A68A3FB0232920C02EB82025200FC
:103744004B681B1B9A42FBD84FF0090C1F4ADFF849
:1037540080E0D8F80830034202D0AB6833422FD15E
:10376400C5F8886054683968AEFB0131890C01EBF7
:10377400810153681B1B9942FBD8C5F884605468C7
:103784003968AEFB0131890C01EB810153681B1BC5
:103794009942FBD8BCF1010CDBD1604699F8183092
:1037A400019A0AEB0313DB68CBF8003099F819305F
:1037B4000AEB031ADAF82C30136003B0BDE8F08F7B
:1037C4000120EBE79820002038420020001000E0A0
:1037D40083DE1B430E4A10B51168046905E0DB0162
:1037E40007D413685B1A102B08D8636913F0007FA1
:1037F400F5D14FF4FE430120636110BDFFF766FF6E
:103804000028FAD04FF4FE4301206361F5E700BFBE
:10381400F4D100202DE9F04790F82FA1BAF1000F60
:1038240058D081468846FFF7D5FF002852D0374E3E
:103834000024376816E06B691A0544D4580558D437
:1038440099044CD43268D21B322A48D8544507D93B
:10385400EA6D520704D19B0555D4B8F1000F52D03C
:103864000BF0ECFD5445D9F81050E4D8EA6D51073B
:1038740002F00703DFD413E099F8A52001330224F2
:1038840042F48062042B2A6627D08A4503F101039F
:1038940009EB01020ED992F8A520042B2A66CAD09E
:1038A4000121002CE8D02146013301348A4509EB7B
:1038B4000102F0D8B8F1000FBDD04FF400732B66AD
:1038C4006B691A05BAD52B69042043F440732B6144
:1038D400BDE8F0870420BDE8F0870124ABE72B693D
:1038E4004FF40072042043F440732B612A66BDE850
:1038F400F0872B694FF40072022043F440732B616C
:103904002A66BDE8F0870020E5E700BFF4D1002077
:103914002DE9F04782460C4615461F46FFF75AFF2D
:10392400002800F08F8063000021012DDFF81C8146
:10393400DBB240F2014638BF01250C461E43D8F8DD
:103944000090AAF8A2101EE09AF8A330872B3DD964
:1039540051690B0557D411F4105F67D1D8F80030C2
:10396400A3EB0903322B61D89AF8A330AB4208D3F6
:10397400022C06D9D36D580703D18B0547D4002FE9
:1039840045D00BF05BFD022CDAF81020DCD8D36DA7
:10399400590703F00700D7D421466C1E084444F4A9
:1039A400807441B916660131431A032B01D80229E8
:1039B400F7D90C46C8E7012931D017B14FF4007389
:1039C40013669AF8A3300324872BC1D8D16D11F460
:1039D400E02FC1F3024EBBD0591C9E441933C9B227
:1039E4005FFA8EFE5AFA83F3D2F870C0481C714510
:1039F4008AF8A310C1B203F801CFA9D08929F3D161
:103A040051690B05A7D5136943F440731361D36D52
:103A140013F4E02F05D19AF8A300BDE8F0871466EB
:103A2400C1E7136943F400731361F4E713694FF4B6
:103A3400007143F4407313611166D36D13F4E02FE6
:103A4400E9D0EEE70420BDE8F08700BFF4D1002000
:103A5400036970B5D3F81451044615F4706201D0AB
:103A6400C3F81421AE070BD5D3F8701108043ED562
:103A74000022012084F8A220224484F8A300917635
:103A8400EA0710D594F83061F6B194F82E6194F8F1
:103A94002F21B24227D9721C264484F82E2196F88D
:103AA400A520C3F86021AB050DD594F8A30018B187
:103AB400D4F83C3103B198470023A4F8A230A4F809
:103AC4002E3184F8303170BDD4F838210AB19047D2
:103AD4002369002284F82E21012284F8302194F8ED
:103AE4002F21B242D7D80022C3F86021DBE794F833
:103AF400A320872AC4D8501CC0B2BDE70148FFF7F1
:103B0400A7BF00BFDCB300200148FFF7A1BF00BF7F
:103B14001CB500200148FFF79BBF00BF5CB6002026
:103B240010B5094C094922460948FFF799FD04F1EB
:103B3400500208490848FFF793FD04F1A002074921
:103B44000748FFF78DFD10BD3020006000003F40A6
:103B5400DCB3002000803F401CB5002000C03F4083
:103B64005CB60020014B4362704700BF00A0804454
:103B740080ED090A704700BF90F8203042894169FE
:103B8400012BC388A1EB02212DE9F04700F08780C7
:103B940083FB01344588002C7DDB02891B0A4FF42A
:103BA400004682FB012E43EA04632412BEF1000F97
:103BB400E6FB05346BDBD209858842EA4E622D04AC
:103BC4004FEAEE1E12EB050C828982FB01254EF1B1
:103BD400000E002D56DBD20D42EA452202F5FA66AC
:103BE400B6F5FA6F26DB02FB02F215110269866153
:103BF400A2FB033102FB0411002903DA694A9B1872
:103C040041F100015B0DBCEB050243EAC1236EEBFD
:103C1400E57E49159B1A61EB0E01002904DA41F691
:103C2400FF729B1841F100015B0B43EAC143C3617E
:103C3400BDE8F08781FB011702FB02F811EB0109D3
:103C440008EB480547EB070A19EB010908EB88085C
:103C540047EB0A0716F5C86F4FEA65054FEA670791
:103C64004FEAE80100F3968002F6AC52F61B02FB21
:103C740002F201EB8201C2EBC2025B1A154464EB4F
:103C8400E174B3E7484E921945F10005A3E77F328A
:103C94004EF1000E8FE7FF3344F100047DE783FB10
:103CA4000132002A02DA7F3342F10002DB09D41127
:103CB40043EA4263428812049B18028982FB01256D
:103CC40044F10004002D02DA3F3245F10005B0F85A
:103CD40004E09209B0F80CC042EA85624FEA4E460D
:103CE4004FEADE3E92194EEBA51E8CFB01C5002D5A
:103CF40004DA2D4E1CEB060C45F100054FEADC5CA2
:103D04004CEA452C0CF5FA66B6F5FA6F1FDB05692B
:103D14008661A5FB033105FB0411002903DA214C5C
:103D24001B1941F100015B0D43EAC12349159B1A9C
:103D340061EB0E01002904DA47F6FF729B1841F18A
:103D44000001DB0B43EA4143C361BDE8F0870CFB90
:103D54000CFC81FB0118CCEB8C17CCEB4C1C7D11BB
:103D64005D1B2B464FEAEC0564EBE774551B6EEBC9
:103D7400EC7E2A464D1848EB08076D1848EB0707F8
:103D8400BF0047EA9577AD006D1A67EB0807A6EB0D
:103D9400E706BCE7591AA6EB070664EBE8740B4682
:103DA40024E700BFFFFF1F00FFFF7F00D0ED077A6D
:103DB40090F82030F8EEE77A012B67EE807A0CBF9A
:103DC4009FED037AB2EE047A87EE870A704700BF4C
:103DD4000000C84290ED060ADFED037AB8EEC00A8F
:103DE40080EE270A704700BF0000C84200000000B0
:103DF40090F82030012B1ED0D0ED077AB2EE047A71
:103E0400DFED156AF8EEE77A67EEA67A87EE876A41
:103E140090ED097ADFED116AB7EEC77A36EE666A7D
:103E24009FED0B5BB7EEC66A27EE057B86EE070BAC
:103E3400B7EEC00B7047D0ED077A9FED077AF8EE26
:103E4400E77A67EE877A87EE876AE1E7AFF3008067
:103E540005A3923A019D23400000C84200DAC547F9
:103E640000220B8800B59646C3F30B031046CA81A3
:103E74001EF0010F0B8024D0DBB25840082305E06C
:103E8400013B1FFA8CF013F0FF030CD0420010F436
:103E9400004F944682F44052F2D0013B12B213F028
:103EA400FF0390B2F2D10EF1010E5FFA8EFEBEF165
:103EB400100F09D04FEA5E031EF0010F31F81330E2
:103EC400DAD180EA1320D9E7000B5DF804FB00BFC8
:103ED400F8B5614C0126EC274A210546204684F8B2
:103EE400306184F8A57084F82F61FFF785FB3146B3
:103EF4002046FFF78FFC142009F09AFE002120468B
:103F040084F8A57084F8306184F82F61FFF774FB9E
:103F140031462046FFF77EFC3346032276212046B5
:103F2400FFF7F6FC00232B6194F8A23094F8A32049
:103F34009A4277D9E2183344927E84F8A23011026F
:103F44002A6194F8A23094F8A3209A427FD95A1C8B
:103F540023449B7E84F8A2200B4319022B6194F81E
:103F6400A23094F8A3209A426ED95A1C23449B7E13
:103F740084F8A2200B430126EC272B615A213648F2
:103F840084F8A57084F8306184F82F61FFF734FB5E
:103F940031463148FFF73EFC142009F049FE002168
:103FA4002D4884F8A57084F8306184F82F61FFF7F8
:103FB40023FB31462848FFF72DFC334603227621A4
:103FC4002548FFF7A5FC00236B6194F8A23094F810
:103FD400A3209A4233D9E2183344927E84F8A23063
:103FE40011026A6194F8A23094F8A3209A4221D96C
:103FF4005A1C23449B7E84F8A2200B4319026B6154
:1040040094F8A23094F8A3209A4210D95A1C23445D
:104014009B7E84F8A2200B4328466B61BDE8F840E0
:10402400FFF7AABD6FF0FF014FF0FF3288E74FF0B2
:10403400FF33F1E76FF0FF014FF0FF33DFE76FF07D
:10404400FF014FF0FF32CCE74FF0FF3393E76FF0FF
:10405400FF014FF0FF3381E71CB500202DE9F04745
:104064002F4CEC27804601261E21204684F8A5709B
:1040740008F10E0A84F83061454684F82F61C8F1CE
:10408400A009FFF7B9FA31462046FFF7C3FB0A201F
:1040940009F0CEFD09EB0501204684F8A570C9B2EC
:1040A40084F8306184F82F61FFF7A6FA01212046D5
:1040B400FFF7B0FB0123022276212046FFF728FCFC
:1040C40094F8A23094F8A3005A1C04EB030C834226
:1040D40003F10201D2B220D29CF91A30904204EBCF
:1040E400020E84F8A2204FEA032316D99EF81A2060
:1040F40084F8A21013439BB225F8023B5545C9D15D
:10410400B8F8004041464046240BFFF7A9FE201AA8
:10411400B0FA80F04009BDE8F0874FF6FF73EBE793
:104124001CB50020084B82714FF47A721B684171F0
:1041340010B4064CA4FB03435DF8044B9B0C02FB38
:1041440003F3C360704700BF3842002083DE1B4383
:1041540038B504460D464079022109F023FE034B8D
:1041640065741B68A3F5FA63A36038BDF4D100201D
:10417400674B2DE9F0431A68D1B0044629B9836826
:10418400D31AB3F5FA6FC0F09F800025A260022114
:1041940060792560257109F005FE012009F048FDCC
:1041A4006079012109F0FEFD2946607909F0BEFD20
:1041B400A379153B012B00F28280564940F24C460C
:1041C400554D564B48682A68A3FB0232920C06FBF5
:1041D40002F24B681B1A9A42FBD80221607909F05B
:1041E400E1FD4C494D4E48682B68627CA6FB036395
:1041F4009B0C03FB02F24B681B1A9A42FBD872B663
:10420400002503E0E26895421D466CD2607909F00E
:10421400B7FD6B1C0028F5D0013564D0002503E000
:10422400E26895421D465ED2607909F0A9FD012835
:1042340005F10103F4D0013555D0E8460DF5A07918
:104244004746002503E0E26895421D4640D2607966
:1042540009F096FD6B1C0028F5D000263D6003E0B4
:10426400E26896421E4636D2607909F089FD01283B
:1042740006F10103F4D07E600837B945E1D162B696
:10428400002211E0431C14D0635D814202F101025B
:1042940008F108084FEA4303DBB243F001012CBFE5
:1042A40063556155282A24D0D510D8E900104E1C36
:1042B400E8D100231846237451B0BDE8F0831420DC
:1042C400154D09F0B5FC88E7007C51B0BDE8F083DA
:1042D4004FF0FF35C1E74FF0FF36083747F8046C5D
:1042E400B945AED1CBE70020207462B651B0BDE829
:1042F400F08362782378A0781344E1782279034428
:104304000B44DBB29A42D4D1012318462374DCE770
:10431400F4D10020001000E03842002083DE1B436B
:1043240038B50D4611460446FFF722FF002841D058
:10433400A379A1780C2BE2783FD025D80B2B39D167
:1043440007EE901A1106B8EE670A03D5FFEE007A5D
:1043540037EEC00A02F00F02B7EEC00A07EE902A49
:104364009FED216BB8EEE77BA7EE060BB7EEC00B13
:104374004DB1B7EEC00A9FED1E6B9FED1F7BA0EE03
:10438400067BB7EEC70B38BD153B012B12D80B02C9
:1043940003F4FE43134300EE103A0B069FED127B29
:1043A400B8EEC00B20EE070BB7EEC00B17D4002DF0
:1043B400DFD138BD9FED120A38BD02F00F0207EEBF
:1043C400901AB8EE670B07EE902A0A06B8EEE77B60
:1043D4009FED056BA7EE060BB7EEC00BE7D5B1EE6C
:1043E400400A002DE5D0C4E79A9999999999B93F63
:1043F400CDCCCCCCCCCCFC3F000000000000404035
:104404000000C07F0000000010B50446FFF7B0FEB6
:10441400A8B1A3790C2B10D9153B012B0FD82388F5
:104424005BBA9BB200EE103A9FED0F7BB8EEC00B67
:1044340020EE070BB7EEC00B10BD0A2B02D89FED80
:104444000C0A10BD637807EE103A237800EE103A98
:10445400B8EEC77B9FED046BB8EEC00BA7EE060B5E
:10446400B7EEC00B10BD00BF9A9999999999B93FBD
:104474000000C07F10B50446406808B11CF08AFBF8
:10448400204610BD0AF036BF0AF0F0BE08460AF016
:1044940041BF00BF38B504464FF40075216028467B
:1044A400A5801CF06FFB002345F242210122A56187
:1044B4000180E361238484F82220636284F8283035
:1044C4006385636384F838306387E363A4F840301A
:1044D4006364A4F8483084F85430A4F85630A4F83F
:1044E4006030C4E90203C4E90430C4E90B33204654
:1044F400C4E91333C4E9163338BD00BF10B504460C
:10450400806D08B11CF046FBA06808B11CF042FBAA
:10451400204610BD2DE9F8436D4E4FF00109DFF838
:10452400B4810446071D206803681B69B3422ED179
:104534000AF09CFE00282DD020683D4603685B6984
:10454400434540F0BC800AF0D5FE94F822305FFA6F
:1045540080FC5A1E0A2A13D8DFE802F08A839F627D
:104564000606062072063600E3696269591CE16199
:1045740002F803C094F822300133DBB284F822300D
:10458400002B4AD0206803681B69B342D0D09847F7
:104594000028D1D105462846BDE8F883E36962695D
:1045A400591CE16102F803C094F82220218C531CA9
:1045B400DBB284F822300029E2D10232D3B284F88B
:1045C4002230002BDED128E0E3696269591CE161E5
:1045D40002F803C0A268A188538884F822900A33A1
:1045E4009BB299426DD3D118022B11F8010C11F82A
:1045F40002CC0CEB002C1FFA8CFC66D0D01E013AC6
:104604001844002312F8011F0B4490429BB2F9D1C5
:10461400634556D1E3680133E3602846BDE8F88377
:10462400E2696369511CE16103F802C0238CA26949
:1046340043EA00230A3A9BB29342238415D899E7AC
:10464400E3696269591CE16102F803C0238C013BF0
:104654009BB22384002B8DD094F82230002B91D16F
:10466400DBE7BCF1520F3FF47FAF84F822905AE7A6
:104674000023BCF1420FE3617FF455AF6369C4F8D2
:104684001C9083F800C094F822300133DBB284F824
:104694002230002B7FF476AFBFE7E3696269591CCF
:1046A400E16102F803C094F82230A4F820C0013379
:1046B400DBB284F82230002B7FF464AFADE7984777
:1046C40043E72369013323612DE70023A0E700BFFB
:1046D400592200005522000070B54D6840F2145272
:1046E40082B0AB88934200F29380B3F5966F044690
:1046F4006BD3A3F59663642B00F28A80DFE813F092
:104704008A00A000B100C100D100E300F40004015C
:1047140014018800250142015501730184019501AA
:104724008800880088008800880088008800880045
:104734008800880088008800880088008800880035
:104744008800880088008800880088008800880025
:104754008800880088008800880088008800880015
:104764008800880088008800880088008800880005
:1047740088008800880088008800880088008800F5
:1047840088008800880088008800880088008800E5
:1047940088008800880088008800880088008800D5
:1047A40088008800880088008800880088008800C5
:1047B40088008800880088008800880088008800B5
:1047C4008800880088008800A601042B00F0798105
:1047D400052B1DD16A880A3292B2104601921CF050
:1047E400D1F929460546019A09F01CFB6B7A284643
:1047F400297AAA7A84F86030EB7A84F85F1084F816
:10480400612084F85E3002B0BDE870401CF0C2B98B
:1048140002B070BD6A880A3292B2104601921CF04E
:10482400B1F929460546019A09F0FCFA2989284676
:104834006A89AB89A18484F8262084F82730E2E7CA
:104844006A880A3292B2104601921CF09BF92946FA
:104854000546019A09F0E6FA2B7A284684F82830AE
:10486400D1E76A880A3292B2104601921CF08AF9A2
:1048740029460546019A09F0D5FA2B89284663850D
:10488400C1E76A880A3292B2104601921CF07AF9A2
:1048940029460546019A09F0C5FAAB682846E36241
:1048A400B1E76A880A3292B2104601921CF06AF9A2
:1048B40029460546019A09F0B5FA2846D5E90223A6
:1048C400C4E90C239FE76A880A3292B21046019227
:1048D4001CF058F929460546019A09F0A3FA2B7AE7
:1048E400284684F838308EE76A880A3292B2104635
:1048F40001921CF047F929460546019A09F092FAFB
:104904002B89284663877EE76A880A3292B210466A
:1049140001921CF037F929460546019A09F082FAFA
:10492400AB682846E3636EE76A880A3292B210469F
:1049340001921CF027F929460546019A09F072FAFA
:104944002B892846A4F840305DE76A880A3292B27F
:10495400104601921CF016F929460546019A09F001
:1049640061FA6B8928462A8984F82730EB89A9895A
:1049740084F8262063872A7C6B7C6185E26384F853
:10498400383040E76A880A3292B2104601921CF02D
:10499400F9F829460546019A09F044FAAA68284616
:1049A4002B7B6264A4F848302DE76A880A3292B2FD
:1049B400104601921CF0E6F829460546019A09F0D2
:1049C40031FAA9682846AB89EA896164A4F84830B9
:1049D400A4F84020D5E90431E364D5E90623C4E909
:1049E4000C12E3630FE76A880A3292B2104601920E
:1049F4001CF0C8F829460546019A09F013FA2B89D8
:104A04002846A4F85030FEE66A880A3292B210466C
:104A140001921CF0B7F829460546019A09F002FAFA
:104A24002B892846A4F85230EDE66A880A3292B2FD
:104A3400104601921CF0A6F829460546019A09F091
:104A4400F1F92B7A284684F85430DCE66A880A3275
:104A540092B2104601921CF095F829460546019A37
:104A640009F0E0F9B4F85630A968AA896164A4F899
:104A74004820E9892A692E8CA4F84010E264B342E4
:104A8400D5E90512C4E90C12EA69E26307D2A06D04
:104A940008B11CF07FF830461CF074F8A065A4F847
:104AA400566066B100239AB2A16D0133A81890F83C
:104AB400220088549AB2B4F856109142F3D828468A
:104AC400A1E66A880A3292B2104601921CF05AF8A2
:104AD40029460546019A09F0A5F92A7A28466B7AEF
:104AE400698984F8242084F85C302A7B6B7BE18418
:104AF40084F85D2084F85E3085E600BF2DE9F04738
:104B0400DFF8808082B005461FFA81F9D8F800707A
:104B14001744D8F800302846BB4229D2FFF7FAFCE4
:104B240004462846002CF4D02146FFF7D5FDD4F8DE
:104B340004A0BAF80460022E05D04E45E9D12046FF
:104B440002B0BDE8F087BAF802200A3292B21046E9
:104B540001921CF017F851468246019A09F062F955
:104B6400BAF8083050464B4507D01CF013F8E4E778
:104B74000024204602B0BDE8F08700241CF00AF8A7
:104B8400DDE700BFF4D100202DE9F041DFF8BC805F
:104B94000D4604461746D8F80030284ED90716D5D6
:104BA40071683388B1F802C00D810CF10A0C1FFA48
:104BB4008CFC63451DD22068624603685B68984795
:104BC4003A4629462046BDE8F041FFF797BF0C203E
:104BD40030801BF0D7FF1A4A062370601949C0E9D8
:104BE40000230123184A3046C8F800300AF09CFD1F
:104BF400D6E7BCF1020F1ED0C81E01F1FF3E002310
:104C040060441EF8012F134470459BB2F9D1DAB207
:104C14001B0A8C440CF8022C71684A880A3211FA77
:104C240082F202F8013C7168B1F802C00CF10A0C7E
:104C34001FFA8CFCBFE700231A46EAE710C10020E4
:104C44004252020045220000803C00209CB7002014
:104C5400704700BF2DE9F04186B005461020CDE92C
:104C6400022109F079F90446DDE902211AF094FDE4
:104C740001212046EC601AF099FD20B90024204659
:104C840006B0BDE8F08101260446182009F064F955
:104C94000223FF228046CDE90066E9681AF05AFC37
:104CA400182009F059F90223FE220746CDE90066CF
:104CB400E9681AF04FFC082009F04EF94146042334
:104CC4000C2280461AF03EFD38461AF019FD45F2D2
:104CD40049439842D2D140461AF038FD40F2272386
:104CE4009842CBD1182009F037F907460223002255
:104CF400CDE90066E9681AF02DFC2F60182009F050
:104D04002BF9074602230622CDE90066E9681AF06A
:104D140021FC6F60182009F01FF9074602230722BF
:104D2400CDE90066E9681AF015FC0F2329683246BC
:104D340004A8AF601AF006FD314604A81AF014FD69
:104D4400022008F075FF9AE700B5012289B0C16816
:104D5400022302A8CDE900221AF0FCFB02A81AF0F3
:104D6400CFFCB7EE047B03B200EE103AB8EEC00BF2
:104D740020EE070BB7EEC00B09B05DF804FB00BFD3
:104D840010B5022388B00124C1681A4602A8CDE9EF
:104D940000441AF0DFFB02A81AF0B2FC06EE900AF7
:104DA400B7EE047BB8EE660B20EE070BB7EEC00B34
:104DB40008B010BD10B582B00C4609230322016867
:104DC40068461AF0BFFC214668461AF0CDFC02B0D2
:104DD40010BD00BF10B5032382B00C4601681A460B
:104DE40068461AF0AFFC214668461AF0BDFC02B0D2
:104DF40010BD00BF10B582B00C4606230322016823
:104E040068461AF09FFC214668461AF0ADFC02B0D1
:104E140010BD00BF704700BF034B4FF47A701B688E
:104E240003FB00F0704700BFF4D100200B6813B9F6
:104E3400014B01221A707047DED200200A48012378
:104E4400006830B5C56883B00024AA4228BF2A464A
:104E5400CDE9004494B222461AF0C4FC002814BFE1
:104E64002046002003B030BDCCBE00202DE9F04F19
:104E740085B02B480E46144600AF0123042207F1E7
:104E84000C0100681AF01AFD00283FD0244B80461C
:104E9400B7F80C901868C9F30E09C368A1457B6084
:104EA40034D8073323F00703ADEB030DEA46B9F119
:104EB400000F30D07C684D460DF1040B4C4528BFE3
:104EC4004C46A4B22246012351461AF0F7FC03468D
:104ED400A4F1040C224651463046BBB1B8F1000F90
:104EE40003D11FFA8CF4594622462D1B26444FF059
:104EF400000808F097FFADB22C1D65B1084B186887
:104F04007B689C4228BF1C46A4B2DBE70020143710
:104F1400BD46BDE8F08F48461437BD46BDE8F08F66
:104F2400CCBE0020134B70B593E8030084B0052475
:104F3400114E002502908DF80C100123052202A9C0
:104F44003068CDE900551AF04DFC03461E204BB9DC
:104F540008F06EFE631E13F0FF04EED14FF0FF3035
:104F640004B070BD4FF4967008F062FE002004B0E7
:104F740070BD00BF90060020CCBE002010B5104CC0
:104F840094F90000431C00D110BD0121C0B208F007
:104F940009FF0121207808F0C9FE0A2008F048FE24
:104FA4000021207808F0C2FE0A2008F041FE207893
:104FB400012108F0BBFE0A20BDE8104008F038BE0D
:104FC400DCD2002010B50446FFF7D8FF00220C49BC
:104FD40004F1580000F05CFB08B1002010BD04345B
:104FE4000146542220461DF00BF8204600F0E4FB55
:104FF4000028F2D10146034800F0D6FB012010BD81
:10500400FD2B0000D92D000038B50E4C206800F0AF
:105014007FFC50B925680C4C0FCD0FC40FCD0FC4C5
:1050240095E80F0084E80F0038BD242107480AF0F2
:1050340087F9074808F064FB236800200021C3E9CE
:10504400020138BD28BB002028AA0020BC0B002088
:1050540074420020024A034B02601970704700BF7B
:105064003C1D0020DCD20020704700BFF0B51C4F6F
:10507400044683B00D4638681E4620B110210192C3
:1050840008F070FF019A1020019208F065FF29468C
:105094000546019A1AF080FB012128463D601AF06A
:1050A40085FB054688B10F4A31460F4B0F48C4E9CA
:1050B40016230F4B0F4AC4E9180323682046A2663F
:1050C4001B6803B0BDE8F040184715210A480AF0F0
:1050D40037F90A4808F014FB284603B0F0BD00BFB6
:1050E400CCBE0020F52C0000E52B00003D2C000078
:1050F4000D2C0000E92B0000E4180020744200206D
:10510400024B002218781A70704700BFDED20020CC
:105114009FED0B7B0C4B10B50C46196081ED027BA7
:1051240000F03CFBD4E90232134306D12078A0F10D
:105134002A00B0FA80F0400910BD012010BD00BF64
:10514400000000000000000028BB0020074B0846B8
:1051540010B5002419469A601C609C80C3E903447E
:1051640000F03CFBB0FA80F0400910BDFCC0002008
:1051740038B50546074C00F011FBAC460FCCACE843
:105184000F000FCCACE80F0094E80F008CE80F0080
:10519400284638BD28AA0020704700BF0848094B9C
:1051A400D0F8BC2010B4012419711C602AB119462E
:1051B400D0F8C0005DF8044B10475DF8044B70470D
:1051C40018C10020B4D1002000B54FF4806183B031
:1051D4004FF0F90C0223A0F8AC1001AAC17A406880
:1051E400ADF804C001F008F903B05DF804FB00BF9A
:1051F400D0F8A8301A785978520030B5D2B287B0B6
:10520400044609B142F00102997809B142F004025E
:10521400D97809B142F008020025019504958DF86A
:1052240014508DF8062001AACDE902559988ADF8ED
:1052340007109968CDF80910D3E903011123CDF8BB
:10524400111094F8AC10CDF80D008DF80510FD2167
:1052540060688DF80410E17A01F0CEF8C4E92850B2
:1052640007B030BD2DE9F04F8BB0164604460F460B
:105274004FF0000C00F11D02019304E00CF1010C4D
:10528400BCF1400F2DD012F81C302A2BF6D104EBC0
:105294004C0C9CF81E500EB34FF000091FFA85FB0E
:1052A4004FF02A0AC846019B07EB08012A460DF174
:1052B40012008DF811A0CDE9023908F0B3FDD4F83D
:1052C400C42002A98DF8105012B1D4F8C800904738
:1052D4000BEB08031FFA83F84645E4D80BB0BDE88E
:1052E400F08F0025D7E700BF002A7ED02DE9F04FCC
:1052F4004FF000088BB000F11D0407460E469A4695
:105304009146DFF8ECB0454600947119705D0023B6
:10531400009C02E00133402B5FD014F8132082423A
:10532400F8D107EB430300949A7F002A55D0FB2859
:1053340036D0FA283AD0EF283DD091F802E0CB7865
:105344004FEA8E1E0EF47C5E03EB0E0CDBF800308D
:105354009A45264B3CD31B6803930CEB08038DF84A
:1053640011006420CBF800A000FB03A30DF1120090
:10537400CDE9012308F056FD019AD7F8C4308DF821
:10538400102092B22BB102A9D7F8C8000192984715
:10539400019A2A4495B2A945B7D80BB0BDE8F08F5D
:1053A400D1F8018092B2C8F10008F2E7D1F80130D7
:1053B40092B29844EDE7D7F8A03092B2002BE8D02F
:1053C4009B68002BE5D0384601929847019AE0E7A4
:1053D4001C461B6801332360BEE7D7F8F83101335C
:1053E400C7F8F8310BB0BDE8F08F70474CD10020FE
:1053F400A8CF0020FFF778BF802938B5044628D00D
:10540400812911D001B138BD164A1749406800F00E
:1054140003FF0346154AA3721549606800F0FCFEB9
:105424000123E072637238BD812A18D85008EAD08B
:1054340004F11D0C00221E345D1C13F812100CF82C
:10544400121015F8121004F8121001328242F4DB23
:1054540038BD19460C30BDE838401EF0B7B84020BE
:10546400E6E700BF0C290020142900202029002091
:1054740028290020012A02D10B78012B05D0D0F86D
:10548400F0310133C0F8F031704710B407490024FB
:10549400D0F8BC2003720C6022B1D0F8C0005DF8D3
:1054A400044B10475DF8044B704700BFB4D1002093
:1054B4000B78F82B31D190F8AC3070B5D0F8A850F7
:1054C40065B390F8ADE0734528D24C781A01AC541A
:1054D40005EB03128C785470CC7894704C6854604B
:1054E4008E68966091F80CC04E7B4CEA062CA2F8AC
:1054F4000CC091F80EC082F80EC0C97BD1730A4A61
:10550400944203D10522964680F8AD200133DBB2E4
:10551400734580F8AC3001D270BD7047002285F825
:105524005030C0E9282270BD7FA69800F8B5194C08
:10553400054623681A6918469047D4F8A07037BB0B
:1055440006466B682046C4E928579847A8B9D4F89A
:10555400A0307BB130462A68831B0AB19A420FD926
:10556400606800F089FE206803699847D4F8A03089
:10557400002BF0D1D4F8A400F8BDC4E92870F8BD1C
:105584006FF0050300221846C4E92823F8BD6FF024
:105594000200F8BD18C10020FFF7A6BE2DE9F84FA0
:1055A4000646002A63D00F469146002500F11D04EB
:1055B400DFF8D8B007EB0508795D002302E001337A
:1055C400402B5BD014F813208A42F8D106EB430336
:1055D40093F81EA0BAF1000F50D0FC2911D0D6F8D0
:1055E400A0101FFA8AFA29B18B681BB152464146B2
:1055F400304698470AEB05039DB2A945DAD8BDE8C1
:10560400F88FD6F8BC20002AE9D00223D6F8C000CF
:10561400CBF8003098F801108BF8041098F802C009
:105624001A49CCF3400E8BF808E00CF0010E8BF80D
:1056340009E0CCF3800ECCF3C00C8BF80AE08BF8B5
:105644000BC098F803C098F804E04CEA0E2CABF8B1
:105654000CC0D8F80530CBF81030D8F80930CBF8A6
:105664001430D8F80D30CBF818309047B7E7D0F89D
:10567400F4310133C0F8F431BDE8F88FD6F8F831CD
:105684000133C6F8F831BDE8F88F00BFB4D100206B
:1056940000285ED0F0B5324C054683B00F4616465E
:1056A40000214FF4FE7220461CF0AAFCFF2328467A
:1056B4002560E372C4E92F7600F0D0FC6060002816
:1056C4004AD02246274900F04DFD2346264A0221AE
:1056D400606800F077FD254B254A0221606800943C
:1056E40000F044FD234B244A02216068009400F03A
:1056F4003DFD224B224A02216068009400F036FDF1
:10570400204A0221204B6068009400F02FFD2346BC
:105714001E4A0121606800F055FD1D4B1D4A012100
:105724006068009400F022FD20681B4E03699847CE
:10573400054608E0606800F09FFD2068036998470B
:10574400401BB04202D8237A002BF3D0002003B0D0
:10575400F0BD6FF0010070474FF0FF30F7E700BF76
:1057640018C100206D2F0000C93100006D33000006
:1057740020290020C53100004029002069330000A1
:105784004C2900205829002035300000692F0000E2
:10579400453200000C2900203F0D0300014B5868DE
:1057A40000F06ABD18C100200246024B0020C3E984
:1057B4003121704718C1002010B4064A0446002362
:1057C4000548C2E92A43C2E92C335DF8044BFFF7CC
:1057D400ADBE00BF18C100204C25002000B5074B0A
:1057E400864600220648C3E92A12C3E92C2283F81C
:1057F400ACE05DF804EBFFF799BE00BF18C10020D0
:105804003429002038B5044601F10E000D462DED73
:10581400028B00F087FA07EE900A9FED1D8A05F1CE
:105824001000F8EEE77A67EE887AC4ED057A00F0A6
:1058340079FA07EE900A05F11200F8EEE77A67EEBE
:10584400887AC4ED067A00F06DFA07EE900A05F145
:105854001400F8EEE77A67EE887AC4ED077A00F070
:1058640061FA07EE900A05F11600F8EEE77A67EEA2
:10587400887AC4ED087A00F055FA07EE900A002001
:10588400FAEECA7ABDEC028BC4ED097A38BD00BFCA
:105894000000803838B5044601F10E000D462DEDA8
:1058A400028B00F03FFA07EE900A9FED188A05F18B
:1058B4001000F8EEE77A67EE887AC4ED057A00F016
:1058C40031FA07EE900A05F11200F8EEE77A67EE76
:1058D400887AC4ED067A00F025FA07EE900A05F1FD
:1058E4001400F8EEE77A67EE887AC4ED077A00F0E0
:1058F40019FA07EE900A0020F8EEE77A67EE887A44
:10590400BDEC028BC4ED087A38BD00BF00008038BE
:1059140070B52DED028B4B7A0D46044603702A2B8D
:1059240091ED007B80ED027B40D0CA7A013B42704E
:105934000A7B02F0030282702A2B00F2C580DFE8A2
:1059440013F09400F600F10094009F0194001501F7
:10595400EB00DB01CF01C301B701AB01C6006E014F
:10596400BF0061012B00BF00D2007901D200C60044
:1059740098012B002B002B002B00C3000101BF005A
:105984002B002B002B002B00C300C300C300C3005B
:105994007301A501C300FB00002601F10E0000F015
:1059A400BDF9A0823046BDEC028B70BD002601F12A
:1059B4000A00DFEDD48A6670A67000F0B3F907EE32
:1059C400900A05F10C009FEDD08AF8EEE77A67EEB5
:1059D400A87AC4ED057A00F0A5F907EE900A05F15E
:1059E4000E00F8EEE77A67EEA87AC4ED067A00F0C6
:1059F40099F907EE900A05F11000F8EEE77A67EEE0
:105A0400A87AC4ED077A00F08DF907EE900A05F143
:105A14001200F8EEE77A67EEA87AC4ED087A00F08F
:105A240081F907EE900A05F11400F8EEE77A67EEC3
:105A3400887AC4ED097A00F075F907EE900A05F149
:105A44001600F8EEE77A67EE887AC4ED0A7A00F079
:105A540069F907EE900A3046F8EEE77A67EE887A3D
:105A6400BDEC028BC4ED0B7A70BD01F10E009FED0D
:105A7400A78A00F057F907EE900A05F110000026F6
:105A8400F8EEE77A67EE887AC4ED057A00F04AF911
:105A940007EE900A05F11200F8EEE77A67EE887ACD
:105AA400C4ED067A00F03EF907EE900A3046F8EEAF
:105AB400E77A67EE887ABDEC028BC4ED077A70BD95
:105AC4008A7B002602756DE74FF0FF366AE701F125
:105AD4000E00002600F026F907EE900AFAEEEC7AA2
:105AE400C4ED057A5EE701F10E00002600F01AF914
:105AF400034605F11000A38200F014F9034605F1F2
:105B04001200E38200F00EF9034605F11600238328
:105B140000F00CF9E06145E7BDEC028BBDE8704094
:105B2400FFF7B8BE01F10E009FED798AA1E701F1FC
:105B34000E009FED788A9CE78A7B00260275CA7B5B
:105B440042752FE78B7B01F1190203F07F01DB091A
:105B54000175437515F80F3F04F8163F15F8013F1A
:105B6400AA4204F8013FF9D100261BE701F10E0017
:105B74009FED688A00F0D6F807EE900A05F1100050
:105B84000026F8EEE77A67EE887AC4ED057A00F02D
:105B9400C9F807EE900A05F11200F8EEE77A67EE0D
:105BA400887AC4ED067A00F0BDF807EE900A05F194
:105BB4001400F8EEE77A67EE887AC4ED077A00F00D
:105BC400B1F807EE900A05F11600F8EEE77A67EEF1
:105BD400887AC4ED087A00F0A5F807EE900A05F17A
:105BE4001800F8EEE77A67EE887AC4ED097A00F0D7
:105BF40099F807EE900AF8EEE77A67EE887AC4ED32
:105C04000A7ACFE601F10E00002600F089F8034677
:105C140005F11200636100F083F82083C2E601F10C
:105C24000E009FED3B8AA5E7BDEC028BBDE87040FA
:105C3400FFF7E8BD01F10E00002600F073F80346FB
:105C440005F11000A38200F06DF8034605F112007F
:105C5400E38200F067F8034605F11400238300F0A3
:105C640061F8034605F11600638300F05FF8E06114
:105C740098E601F10E00002600F052F8606191E60A
:105C8400BDEC028BBDE87040FFF7BCBDBDEC028BE0
:105C9400BDE87040FFF7FEBD01F10E00002600F0E4
:105CA40041F807EE900AFAEECE7AC4ED057A79E669
:105CB40001F10E00002600F035F807EE900AFAEE26
:105CC400CC7AC4ED057A6DE601F10E00002600F0F1
:105CD4002DF807EE900AFAEECC7AC4ED057A61E667
:105CE40001F10E00002600F021F807EE900AFAEE0A
:105CF400C67AC4ED057A55E6BDEC028BBDE870406A
:105D0400FFF780BD000080380000803A0000803B2F
:105D14000000803D0000003B007870470088704719
:105D240000687047B0F90000704700BF0068704712
:105D34002DE9F84F4FF00009074600F2245B00F20A
:105D4400C4685BF804ACCBF82490BAF1FF3F1ED0D2
:105D540007F2BE64002503E001352C34082D16D06B
:105D6400D4F82260002EF7D034F8023C9A45F3D1DF
:105D7400214658461DF0C0FA0028EDD12C23CBF85B
:105D8400246003FB0575D5F8E436CBF828300BF115
:105D9400340BC345D5D1BDE8F88F00BF10B590F8DA
:105DA400DC447CB104EBC40E002300F5856C01E0F7
:105DB400734505D05CF8232009338A42F8D110BD1D
:105DC400052CFCD004EBC40204F1010C242300EBE9
:105DD400820280F8DCC4C2F8281440F22C4100226C
:105DE40013FB0413BDE81040C254FFF7A1BF00BF6A
:105DF400802900D0704738B5054618461C461DF06A
:105E040057FC072800D938BD421C214605F10C0077
:105E1400BDE8384008F006B8002A18BF00292FD082
:105E24002DE9F04F97B00B78029313B117B0BDE88A
:105E3400F08F029D0223012A80468DF818508DF8B8
:105E4400385080F8243400F00681012489460395F3
:105E54000192631CA61C19F804A09BB2B6B219F8EF
:105E640003B00AF1FF3306EB0B044E44A4B2082B33
:105E740038D8DFE803F0B9AFAB9F948D8665060090
:105E8400704731460EA81CF0BFFC029A0490072A02
:105E940028D8342140F2245011FB020301FB02876D
:105EA40031464344C7F82055184605931DF08EFB30
:105EB4000021039B4046A7F81C1587F84435C7F812
:105EC4004815C7F84C15FFF733FF0EA9049A059B34
:105ED400521AC7F820551846013207F0A3FF039B56
:105EE40087F8443543460022B3F8E0148D4200F0AD
:105EF400938001320C33052AF6D1019BA342A8D822
:105F040043460022B3F8E014A94207D001320C330F
:105F1400052A8BD0B3F8E014A942F7D1D3F8E444AE
:105F2400002CF3D002EB42020023A44608EB8208C3
:105F340019461A46D8F8E80417B0BDE8F04F604790
:105F440006AF314638461CF05FFC98F8DCC4BCF15F
:105F5400000FC7D04246002302E001336345C1D09D
:105F6400D2F828142432A942F7D103EBC303C21B8D
:105F7400394608EB8303013203F22C4007F052FF49
:105F8400B0E73046FFF7C8FE012302900393A9E768
:105F94003046FFF7C1FE002302900393A2E7304688
:105FA400FFF7BCFE043883B2B3F5C07F9AD2A8F8D9
:105FB400183197E73046FFF7B1FE043883B2FF2B60
:105FC40088BF4FF48073A8F816308BE73046FFF78C
:105FD400A5FE87E73046FFF7A1FE043883B2FF2B06
:105FE40080D8A8F814307DE743460022B3F8E014C3
:105FF400A94221D001320C33052AF7D13046FFF7EC
:106004008FFE054640462946FFF7C8FE00238DF85B
:1060140018308DF8383065E7D3F8E474002F3FF476
:1060240068AF02EB420033465A46514608EB800003
:10603400D0F8E804B84760E7D3F8E474002FD9D067
:1060440002EB420208EB8203D3F8E80400231A4669
:106054001946B847D2E7029D52E700BF70B53C4CE1
:1060640005462178002968D0002D6ED0394C266869
:10607400002E6AD140F63402314620461BF0C0FFA0
:106084004FF001233146204663612560FFF786FE09
:10609400314A04F22453C4F8206584F84465A4F812
:1060A4001C65C4F84865C4F84C6592E8030083E8AD
:1060B40003002046FFF73CFE94F8DD34042B0DD892
:1060C4005A1C03EB430384F8DD2404EB8303234AC3
:1060D400A3F8E064C3F8E844C3F8E42494F824344F
:1060E400022B02D1002384F8243494F81C28072AB4
:1060F4001BD8511C2C2384F81C1840F2BE6103FBEE
:10610400024613FB02130021134AA6F8BC1604EB43
:10611400030C03CAE050124BCCF804100D48C6F827
:10612400E446C6F8E036FFF703FE0123284684F868
:1061340024342B689847074870BD40F6340205485C
:106144001BF05EFF012323708EE7002070BD00BFAB
:10615400EAD2002074C7002064290020C13B00005B
:10616400E93B0000C0E90112704700BF32B38C461E
:10617400114670B51E461378D3B1044690F81C0836
:10618400072818D82C22431C02FB004584F81C382D
:1061940005F2BE60A5F8BCC61DF018FA049B2046A3
:1061A400C5F8E066C5F8E436FFF7C2FD002070BD0F
:1061B4006FF0010070BD4FF0FF3070BD6FF0010053
:1061C400704700BF90F8DDC4BCF1040F1BD800B5C4
:1061D4000CEB4C0E0CF1010C80F8DDC400EB8E0CC2
:1061E400ACF8E014CCF8E424CCF8E83490F8243487
:1061F400022B02D000205DF804FB002380F8243435
:1062040000205DF804FB90F82434022B02D1002313
:1062140080F82434002070472DE9F8430026054611
:106224008946904600F22C47384649461DF064F8EA
:106234002437044628B10136052EF5D1FF20BDE8E8
:10624400F88306EBC60605EB8606D6F82864731CAD
:10625400F4D005F22455284641461DF04DF818B9EE
:1062640055F8043CB34204D001343435082CF2D13F
:10627400E4E7E0B2BDE8F8832DE9F043002383B0FE
:1062840090F82454044601935DB1206801AB4FF4A7
:10629400C07204F529718568A84778B903B0BDE8D0
:1062A400F08301220223294680F82424514A00F075
:1062B400A3F80028E9D084F82454E6E780B2DDF896
:1062C40004C003285FD994F8A51247F6FC7594F826
:1062D400A43294F8A62203EB012394F8A7622B427C
:1062E4009FB244D0072A56D894F81C38934252D906
:1062F400B4F81A31C7F30E08002B59D1B8F5C07F92
:106304005CD800231746C4F8A0C284F81C21A4F862
:106314009E32404504F21D1904F52A7128BF4046F7
:10632400054609EB03002A1FA8EB050807F07AFDD0
:10633400B4F89E221FFA88F3043AA4F81A31A81874
:1063440082B2A4F89E225BB9342303FB0743D3F83B
:1063540048552DB1D3F84C054946D4F8A032A84786
:106364003423013603FB074787F81D6596E7D4F805
:10637400243862680133C4F82438002A8ED00121FD
:10638400A06890478AE7D4F824380133C4F8243845
:1063940003B0BDE8F083D4F82C3862680133C4F844
:1063A4002C38002A3FF47AAF0321A068904775E7A0
:1063B4000B0610D40023A4F81A319FE7D4F8283828
:1063C40062680133C4F82838002A3FF467AF022119
:1063D400A068904762E794F81C719742EAD134238D
:1063E40003FB074393F81D35B342E3D1B4F89E325F
:1063F4008FE700BF701E00202DE9F04F1E46838AF0
:1064040083B0B34201925DD307298346894651D8AC
:1064140000274FF0340808FB01083946002E45D008
:10642400BBF81620043A92B2B24228BF3246141D79
:106434009246A4B2230A8BF8184009B163F07F0393
:106444008BF819305D468BF81A90A6EB0A0698F87B
:106454001C35019AB6B2581CD119524688F81C054D
:106464000BF11C008BF81B30574407F0DBFC55F88C
:10647400180B2246BFB2C3682946984750B95846FC
:10648400FFF7FAFEDBF8000022462946C368984766
:106494000028F4D000284FF00101BFDADBF82038DF
:1064A4000B44CBF8203803B0BDE8F08F304603B07E
:1064B400BDE8F08FD0F830386FF001000133CBF82D
:1064C4003038F0E76FF00100EDE700BF4218415C9F
:1064D400937892F801C01B04D07843EA0C230B4351
:1064E40043EA0060704700BF69B170B505460846CD
:1064F4000C461DF0DDF82B680246214628465B68F1
:10650400BDE870401847704738B5044649B108469D
:106514000D461DF0CDF82368024629465B682046E7
:1065240098472046BDE8384007F0EAB830B482B056
:106534000C4602AB03E90600C37C002B30D072B6D4
:10654400C37CDA0708D54FF0E0214569D1F88021F2
:106554002A408262C1F880219D0708D54FF0E021CE
:106564008569D1F884212A40C262C1F8842159077F
:1065740008D54FF0E021C569D1F888212A4002638B
:10658400C1F888211A0708D54FF0E021056AD1F82F
:106594008C212A404263C1F88C21DB062FD462B6D9
:1065A40083689C4235D0224B84609B69214AC3F3A3
:1065B4000111C3F3826352F821100133B1FBF3F2EA
:1065C400CCB1944227D8B2FBF4F3B2FBF3F2944279
:1065D4002CD3B3F5817F20D3174CC4600368032206
:1065E4000020019918615A6201221C6419661A611B
:1065F40002B030BC70479942EFD3531CE9E74FF027
:10660400E022416AD2F890310B408363C2F89031A2
:10661400C5E7C468E2E70024DFE7022BFBD9023BAD
:106624005A08140244EA02441C43D6E71A46E4E733
:1066340000C00F40D41D0020FF7F7F0010B44FF432
:10664400005400223B4940F6641C04804224C0E903
:106654000122C0E90322C0E90522C0E90722C0E9FA
:106664000922C0E90B22C0E90D22C0E90F22C0E9CA
:106674001122C0E91322C0E91522C0E91722C0E99A
:106684001922C0E91B22C0E91D22C0E91F22C0F85B
:10669400E8408024C0F8C42080F8094100F1F404E3
:1066A400C0F8D020C0F8144100F1F604C0F8D82096
:1066B40080F80821C0E94612C0E92122C0E923225A
:1066C400C0E92522C0E92722C0E92922C0E92B22FA
:1066D400C0E92D22C0E92F22C0E93E22C0E94022B0
:1066E400C0E94322C0E94824134CC0F85421A0F85F
:1066F40050C180F86421C0F86821A0F86C2180F8AA
:106704007821C0F87C21A0F87221A0F87421C0E996
:106714005214C0E94A12C0E94E1258215DF8044BE4
:1067240080F85D110121C0E94C22C0E95022C0E982
:106734003B217047000002020002646438B504463D
:10674400D0F8680168B194F8E930002B40F0BE83BA
:1067540007F006FC0023C4F86831A4F86C31A4F8EF
:106764007231606820B1032107F0FCFB00236360F1
:10677400A06820B1342107F0F5FB0023A360606C0E
:1067840020B12C2107F0EEFB00236364E36863B1BE
:10679400586A002800F0CF82142107F0E3FBE36875
:1067A400002B40F0C8820023E360236963B1186AB8
:1067B400002800F0BB82102107F0D4FB2369002BD2
:1067C40040F0B48200232361636963B1586A0028EE
:1067D40000F0CF82142107F0C5FB6369002B40F061
:1067E400C88200236361E36963B1186B002800F079
:1067F400BB82202107F0B6FBE369002B40F0B48292
:106804000023E361236AFBB1186F002800F0BB8208
:106814005C2107F0A7FB94F8E930002B40F0678374
:10682400236A002B40F0AF82002294F8E930226200
:1068340053B1D4F8D45025229F492B6828465B686D
:106844009847284606F05CFF636A63B1586A0028DB
:1068540000F09482142107F085FB636A002B40F05A
:106864008D8200236362E36A63B1586A002800F0F2
:106874006C82142107F076FBE36A002B40F06582FA
:106884000023E362236B63B1586B002800F0588245
:10689400242107F067FB236B002B40F05182002377
:1068A4002363636B63B1D86A002800F058821C210B
:1068B40007F058FB636B002B40F0518200236363A5
:1068C400A36B63B1586B002800F04482242107F0C5
:1068D40049FBA36B002B40F03D820023A363E36BD1
:1068E4006BB1D3F88800002800F0B882742107F057
:1068F40039FBE36B002B40F0B1820023E363A36A0E
:1069040063B1186A002800F0A482142107F02AFB5E
:10691400A36A002B40F09D820023A362236C63B121
:10692400586A002800F0A482142107F01BFB236C92
:10693400002B40F09D8200232364A36C63B1586B49
:10694400002800F09082282107F00CFBA36C002B98
:1069540040F089820023A364E36C73B1D3F80C0C78
:10696400002800F0668240F6FC3107F0FBFAE36C85
:10697400002B40F05E820023E364236D63B1186D45
:10698400002800F05182402107F0ECFA236D002B1F
:1069940040F04A8200232365636D63B1186A0028BE
:1069A40000F05282102107F0DDFA636D002B40F0F5
:1069B4004B8200236365A36963B11869002800F062
:1069C4003E82042107F0CEFAA369002B40F03782FF
:1069D4000023A361A36D6BB19868002800F067825F
:1069E4004FF4047107F0BEFAA36D002B40F05F82F0
:1069F4000023A365E36D6BB19868002800F0528210
:106A04004FF4067107F0AEFAE36D002B40F04A82B2
:106A14000023E365236E5BB19868002800F051827F
:106A240007F09EFA236E002B40F04B82002323666E
:106A3400636E63B19868002800F03E820C2107F071
:106A440091FA636E002B40F0378200236366A36ED5
:106A540063B1986D002800F01682482107F082FA8D
:106A6400A36E002B40F00F820023A366E36E73B184
:106A7400D3F89C0B002800F000824FF4396107F032
:106A840071FAE36E002B40F0F8810023E366606F37
:106A940020B10C2107F066FA00236367A36F7BB172
:106AA400D86A002800F0F9811C2107F05BFAA36F73
:106AB400002B40F0F28101E0B01600200023A36710
:106AC400E36F63B1186A002800F0E281102107F037
:106AD40049FAE36F002B40F0DB810023E367D4F82D
:106AE4008C3073B1D86B002800F06B812C2107F037
:106AF40039FAD4F88C30002B40F063810023C4F8B9
:106B04008C30D4F8803073B1586B002800F0548175
:106B1400242107F027FAD4F88030002B40F04C8170
:106B24000023C4F88030D4F884307BB1D3F89400C7
:106B3400002800F05181882107F014FAD4F8843039
:106B4400002B40F049810023C4F88430D4F8883005
:106B540083B1D3F84402002800F038814FF40E7159
:106B640007F000FAD4F88830002B40F02F8100237E
:106B7400C4F88830D4F89C0028B1822107F0F2F9D7
:106B84000023C4F89C30D4F8A00030B14AF2FA7162
:106B940007F0E8F90023C4F8A030D4F8943073B1B6
:106BA400186B002800F0F980202107F0DBF9D4F8F5
:106BB4009430002B40F0F1800023C4F89430D4F8D2
:106BC400983073B1586B002800F0E280242107F05C
:106BD400C9F9D4F89830002B40F0DA800023C4F8C7
:106BE4009830D4F8903073B1986D002800F0DF80AD
:106BF400482107F0B7F9D4F89030002B40F0D78043
:106C04000023C4F89030D4F8A4307BB1D3F8D40076
:106C1400002800F0C780652107F0A4F9D4F8A43057
:106C2400002B40F0BF800023C4F8A430D4F8A8306F
:106C34007BB1D3F8D400002800F0E780652107F089
